{
  "_format": "hh-sol-artifact-1",
  "contractName": "NtReservation",
  "sourceName": "contracts/NtReservation.sol",
  "abi": [
    {
      "inputs": [
        {
          "internalType": "string",
          "name": "_code",
          "type": "string"
        }
      ],
      "stateMutability": "nonpayable",
      "type": "constructor"
    },
    {
      "anonymous": false,
      "inputs": [
        {
          "indexed": false,
          "internalType": "address",
          "name": "reserver",
          "type": "address"
        },
        {
          "indexed": true,
          "internalType": "uint256",
          "name": "time",
          "type": "uint256"
        }
      ],
      "name": "roomOpened",
      "type": "event"
    },
    {
      "anonymous": false,
      "inputs": [
        {
          "indexed": false,
          "internalType": "address",
          "name": "reserver",
          "type": "address"
        },
        {
          "indexed": true,
          "internalType": "uint256",
          "name": "time",
          "type": "uint256"
        }
      ],
      "name": "roomReserved",
      "type": "event"
    },
    {
      "inputs": [],
      "name": "code",
      "outputs": [
        {
          "internalType": "string",
          "name": "",
          "type": "string"
        }
      ],
      "stateMutability": "view",
      "type": "function"
    },
    {
      "inputs": [
        {
          "internalType": "uint256",
          "name": "timestamp",
          "type": "uint256"
        }
      ],
      "name": "minutesAndSeconds",
      "outputs": [
        {
          "internalType": "uint256",
          "name": "truncatedTimestamp",
          "type": "uint256"
        }
      ],
      "stateMutability": "pure",
      "type": "function"
    },
    {
      "inputs": [
        {
          "internalType": "address",
          "name": "reserverID",
          "type": "address"
        }
      ],
      "name": "openRoom",
      "outputs": [
        {
          "internalType": "bool",
          "name": "",
          "type": "bool"
        }
      ],
      "stateMutability": "nonpayable",
      "type": "function"
    },
    {
      "inputs": [],
      "name": "owner",
      "outputs": [
        {
          "internalType": "address",
          "name": "",
          "type": "address"
        }
      ],
      "stateMutability": "view",
      "type": "function"
    },
    {
      "inputs": [
        {
          "internalType": "uint16",
          "name": "year",
          "type": "uint16"
        },
        {
          "internalType": "uint8",
          "name": "month",
          "type": "uint8"
        },
        {
          "internalType": "uint8",
          "name": "day",
          "type": "uint8"
        },
        {
          "internalType": "uint8",
          "name": "hour",
          "type": "uint8"
        },
        {
          "internalType": "uint8",
          "name": "period",
          "type": "uint8"
        },
        {
          "internalType": "address",
          "name": "reserver",
          "type": "address"
        }
      ],
      "name": "reserveRoom",
      "outputs": [
        {
          "internalType": "bool",
          "name": "",
          "type": "bool"
        }
      ],
      "stateMutability": "nonpayable",
      "type": "function"
    }
  ],
  "bytecode": "0x60806040523480156200001157600080fd5b50604051620015c0380380620015c0833981810160405281019062000037919062000224565b33600160006101000a81548173ffffffffffffffffffffffffffffffffffffffff021916908373ffffffffffffffffffffffffffffffffffffffff1602179055508060009081620000899190620004c0565b5050620005a7565b6000604051905090565b600080fd5b600080fd5b600080fd5b600080fd5b6000601f19601f8301169050919050565b7f4e487b7100000000000000000000000000000000000000000000000000000000600052604160045260246000fd5b620000fa82620000af565b810181811067ffffffffffffffff821117156200011c576200011b620000c0565b5b80604052505050565b60006200013162000091565b90506200013f8282620000ef565b919050565b600067ffffffffffffffff821115620001625762000161620000c0565b5b6200016d82620000af565b9050602081019050919050565b60005b838110156200019a5780820151818401526020810190506200017d565b60008484015250505050565b6000620001bd620001b78462000144565b62000125565b905082815260208101848484011115620001dc57620001db620000aa565b5b620001e98482856200017a565b509392505050565b600082601f830112620002095762000208620000a5565b5b81516200021b848260208601620001a6565b91505092915050565b6000602082840312156200023d576200023c6200009b565b5b600082015167ffffffffffffffff8111156200025e576200025d620000a0565b5b6200026c84828501620001f1565b91505092915050565b600081519050919050565b7f4e487b7100000000000000000000000000000000000000000000000000000000600052602260045260246000fd5b60006002820490506001821680620002c857607f821691505b602082108103620002de57620002dd62000280565b5b50919050565b60008190508160005260206000209050919050565b60006020601f8301049050919050565b600082821b905092915050565b600060088302620003487fffffffffffffffffffffffffffffffffffffffffffffffffffffffffffffffff8262000309565b62000354868362000309565b95508019841693508086168417925050509392505050565b6000819050919050565b6000819050919050565b6000620003a16200039b62000395846200036c565b62000376565b6200036c565b9050919050565b6000819050919050565b620003bd8362000380565b620003d5620003cc82620003a8565b84845462000316565b825550505050565b600090565b620003ec620003dd565b620003f9818484620003b2565b505050565b5b81811015620004215762000415600082620003e2565b600181019050620003ff565b5050565b601f82111562000470576200043a81620002e4565b6200044584620002f9565b8101602085101562000455578190505b6200046d6200046485620002f9565b830182620003fe565b50505b505050565b600082821c905092915050565b6000620004956000198460080262000475565b1980831691505092915050565b6000620004b0838362000482565b9150826002028217905092915050565b620004cb8262000275565b67ffffffffffffffff811115620004e757620004e6620000c0565b5b620004f38254620002af565b6200050082828562000425565b600060209050601f83116001811462000538576000841562000523578287015190505b6200052f8582620004a2565b8655506200059f565b601f1984166200054886620002e4565b60005b8281101562000572578489015182556001820191506020850194506020810190506200054b565b868310156200059257848901516200058e601f89168262000482565b8355505b6001600288020188555050505b505050505050565b61100980620005b76000396000f3fe608060405234801561001057600080fd5b50600436106100575760003560e01c806307acbd781461005c57806324c12bf61461008c5780634ba3a765146100aa5780638da5cb5b146100da578063fecbfd01146100f8575b600080fd5b610076600480360381019061007191906107d3565b610128565b604051610083919061081b565b60405180910390f35b610094610219565b6040516100a191906108c6565b60405180910390f35b6100c460048036038101906100bf919061095b565b6102a7565b6040516100d1919061081b565b60405180910390f35b6100e26104fd565b6040516100ef91906109f7565b60405180910390f35b610112600480360381019061010d9190610a48565b610523565b60405161011f9190610a84565b60405180910390f35b60008061013442610523565b90508273ffffffffffffffffffffffffffffffffffffffff166002600083815260200190815260200160002060009054906101000a900473ffffffffffffffffffffffffffffffffffffffff1673ffffffffffffffffffffffffffffffffffffffff16146101d7576040517f08c379a00000000000000000000000000000000000000000000000000000000081526004016101ce90610aeb565b60405180910390fd5b427feeb2eda8c2c0a2a32e47170c2f2f3a7d8e5e3cf96b797793a126df9e7afb0eca8460405161020791906109f7565b60405180910390a26001915050919050565b6000805461022690610b3a565b80601f016020809104026020016040519081016040528092919081815260200182805461025290610b3a565b801561029f5780601f106102745761010080835404028352916020019161029f565b820191906000526020600020905b81548152906001019060200180831161028257829003601f168201915b505050505081565b600060048360ff1611156102f0576040517f08c379a00000000000000000000000000000000000000000000000000000000081526004016102e790610bdd565b60405180910390fd5b6102f861074e565b60005b8460ff168160ff16101561040a5760006103328a61ffff168a60ff168a60ff16858b6103279190610c2c565b60ff1660008061058e565b9050600073ffffffffffffffffffffffffffffffffffffffff166002600083815260200190815260200160002060009054906101000a900473ffffffffffffffffffffffffffffffffffffffff1673ffffffffffffffffffffffffffffffffffffffff16146103d6576040517f08c379a00000000000000000000000000000000000000000000000000000000081526004016103cd90610cad565b60405180910390fd5b80838360ff16600481106103ed576103ec610ccd565b5b60200201818152505050808061040290610cfc565b9150506102fb565b5060005b8460ff168160ff1610156104ed57818160ff166004811061043257610431610ccd565b5b60200201517f6aa1629c1532cdf5cee474f7e4371bbf9949d5af8aa997658463dfe512654cbf8560405161046691906109f7565b60405180910390a28360026000848460ff166004811061048957610488610ccd565b5b6020020151815260200190815260200160002060006101000a81548173ffffffffffffffffffffffffffffffffffffffff021916908373ffffffffffffffffffffffffffffffffffffffff16021790555080806104e590610cfc565b91505061040e565b5060019150509695505050505050565b600160009054906101000a900473ffffffffffffffffffffffffffffffffffffffff1681565b6000617e90826105339190610d25565b91506000603c80846105459190610d88565b61054f9190610db9565b90506000603c846105609190610db9565b905080603c836105709190610dea565b8561057b9190610e2c565b6105859190610e2c565b92505050919050565b600081603c8461059e9190610dea565b610e10866105ac9190610dea565b620151806105bb8b8b8b6105ef565b6105c59190610dea565b6105cf9190610d25565b6105d99190610d25565b6105e39190610d25565b90509695505050505050565b60006107b284101561060057600080fd5b600084905060008490506000849050600062253d8c60046064600c600e876106289190610e6a565b6106329190610ead565b611324886106409190610f17565b61064a9190610f17565b6106549190610ead565b60036106609190610f5b565b61066a9190610ead565b600c80600c600e8861067c9190610e6a565b6106869190610ead565b6106909190610f5b565b60028761069d9190610e6a565b6106a79190610e6a565b61016f6106b49190610f5b565b6106be9190610ead565b6004600c600e886106cf9190610e6a565b6106d99190610ead565b6112c0896106e79190610f17565b6106f19190610f17565b6105b56106fe9190610f5b565b6107089190610ead565b617d4b866107169190610e6a565b6107209190610f17565b61072a9190610f17565b6107349190610e6a565b61073e9190610e6a565b9050809450505050509392505050565b6040518060800160405280600490602082028036833780820191505090505090565b600080fd5b600073ffffffffffffffffffffffffffffffffffffffff82169050919050565b60006107a082610775565b9050919050565b6107b081610795565b81146107bb57600080fd5b50565b6000813590506107cd816107a7565b92915050565b6000602082840312156107e9576107e8610770565b5b60006107f7848285016107be565b91505092915050565b60008115159050919050565b61081581610800565b82525050565b6000602082019050610830600083018461080c565b92915050565b600081519050919050565b600082825260208201905092915050565b60005b83811015610870578082015181840152602081019050610855565b60008484015250505050565b6000601f19601f8301169050919050565b600061089882610836565b6108a28185610841565b93506108b2818560208601610852565b6108bb8161087c565b840191505092915050565b600060208201905081810360008301526108e0818461088d565b905092915050565b600061ffff82169050919050565b6108ff816108e8565b811461090a57600080fd5b50565b60008135905061091c816108f6565b92915050565b600060ff82169050919050565b61093881610922565b811461094357600080fd5b50565b6000813590506109558161092f565b92915050565b60008060008060008060c0878903121561097857610977610770565b5b600061098689828a0161090d565b965050602061099789828a01610946565b95505060406109a889828a01610946565b94505060606109b989828a01610946565b93505060806109ca89828a01610946565b92505060a06109db89828a016107be565b9150509295509295509295565b6109f181610795565b82525050565b6000602082019050610a0c60008301846109e8565b92915050565b6000819050919050565b610a2581610a12565b8114610a3057600080fd5b50565b600081359050610a4281610a1c565b92915050565b600060208284031215610a5e57610a5d610770565b5b6000610a6c84828501610a33565b91505092915050565b610a7e81610a12565b82525050565b6000602082019050610a996000830184610a75565b92915050565b7f66616c7365000000000000000000000000000000000000000000000000000000600082015250565b6000610ad5600583610841565b9150610ae082610a9f565b602082019050919050565b60006020820190508181036000830152610b0481610ac8565b9050919050565b7f4e487b7100000000000000000000000000000000000000000000000000000000600052602260045260246000fd5b60006002820490506001821680610b5257607f821691505b602082108103610b6557610b64610b0b565b5b50919050565b7f43616e6e6f7420726573657276652074686520726f6f6d20666f72206f76657260008201527f203420686f757273000000000000000000000000000000000000000000000000602082015250565b6000610bc7602883610841565b9150610bd282610b6b565b604082019050919050565b60006020820190508181036000830152610bf681610bba565b9050919050565b7f4e487b7100000000000000000000000000000000000000000000000000000000600052601160045260246000fd5b6000610c3782610922565b9150610c4283610922565b9250828201905060ff811115610c5b57610c5a610bfd565b5b92915050565b7f416c726561647920726573657276656400000000000000000000000000000000600082015250565b6000610c97601083610841565b9150610ca282610c61565b602082019050919050565b60006020820190508181036000830152610cc681610c8a565b9050919050565b7f4e487b7100000000000000000000000000000000000000000000000000000000600052603260045260246000fd5b6000610d0782610922565b915060ff8203610d1a57610d19610bfd565b5b600182019050919050565b6000610d3082610a12565b9150610d3b83610a12565b9250828201905080821115610d5357610d52610bfd565b5b92915050565b7f4e487b7100000000000000000000000000000000000000000000000000000000600052601260045260246000fd5b6000610d9382610a12565b9150610d9e83610a12565b925082610dae57610dad610d59565b5b828204905092915050565b6000610dc482610a12565b9150610dcf83610a12565b925082610ddf57610dde610d59565b5b828206905092915050565b6000610df582610a12565b9150610e0083610a12565b9250828202610e0e81610a12565b91508282048414831517610e2557610e24610bfd565b5b5092915050565b6000610e3782610a12565b9150610e4283610a12565b9250828203905081811115610e5a57610e59610bfd565b5b92915050565b6000819050919050565b6000610e7582610e60565b9150610e8083610e60565b9250828203905081811260008412168282136000851215161715610ea757610ea6610bfd565b5b92915050565b6000610eb882610e60565b9150610ec383610e60565b925082610ed357610ed2610d59565b5b600160000383147f800000000000000000000000000000000000000000000000000000000000000083141615610f0c57610f0b610bfd565b5b828205905092915050565b6000610f2282610e60565b9150610f2d83610e60565b925082820190508281121560008312168382126000841215161715610f5557610f54610bfd565b5b92915050565b6000610f6682610e60565b9150610f7183610e60565b9250828202610f7f81610e60565b91507f80000000000000000000000000000000000000000000000000000000000000008414600084121615610fb757610fb6610bfd565b5b8282058414831517610fcc57610fcb610bfd565b5b509291505056fea2646970667358221220652ec69117b7130e76aba3048e5170aee1ad305a08250967670ad67bc57595ad64736f6c63430008130033",
  "linkReferences": {},
  "deployedLinkReferences": {}
}