{
  "_format": "hh-sol-artifact-1",
  "contractName": "NtAutoAttendance",
  "sourceName": "contracts/NtAutoAttendance.sol",
  "abi": [
    {
      "inputs": [],
      "stateMutability": "nonpayable",
      "type": "constructor"
    },
    {
      "anonymous": false,
      "inputs": [
        {
          "indexed": false,
          "internalType": "address",
          "name": "student",
          "type": "address"
        }
      ],
      "name": "AttendanceMarked",
      "type": "event"
    },
    {
      "inputs": [
        {
          "internalType": "address",
          "name": "",
          "type": "address"
        }
      ],
      "name": "attendanceRecords",
      "outputs": [
        {
          "internalType": "bool",
          "name": "",
          "type": "bool"
        }
      ],
      "stateMutability": "view",
      "type": "function"
    },
    {
      "inputs": [],
      "name": "code",
      "outputs": [
        {
          "internalType": "string",
          "name": "",
          "type": "string"
        }
      ],
      "stateMutability": "view",
      "type": "function"
    },
    {
      "inputs": [],
      "name": "instructor",
      "outputs": [
        {
          "internalType": "address",
          "name": "",
          "type": "address"
        }
      ],
      "stateMutability": "view",
      "type": "function"
    },
    {
      "inputs": [],
      "name": "isStudentPresent",
      "outputs": [
        {
          "internalType": "bool",
          "name": "",
          "type": "bool"
        }
      ],
      "stateMutability": "view",
      "type": "function"
    },
    {
      "inputs": [],
      "name": "lecture",
      "outputs": [
        {
          "internalType": "string",
          "name": "",
          "type": "string"
        }
      ],
      "stateMutability": "view",
      "type": "function"
    },
    {
      "inputs": [],
      "name": "markAttendance",
      "outputs": [],
      "stateMutability": "nonpayable",
      "type": "function"
    },
    {
      "inputs": [
        {
          "internalType": "address",
          "name": "student",
          "type": "address"
        }
      ],
      "name": "markAttendanceForStudent",
      "outputs": [],
      "stateMutability": "nonpayable",
      "type": "function"
    }
  ],
  "bytecode": "0x608060405234801561001057600080fd5b5033600360006101000a81548173ffffffffffffffffffffffffffffffffffffffff021916908373ffffffffffffffffffffffffffffffffffffffff160217905550610909806100616000396000f3fe608060405234801561001057600080fd5b506004361061007d5760003560e01c806371ae413d1161005b57806371ae413d146100c8578063d49da422146100e6578063f90afd6614610104578063fda56bdf146101205761007d565b806324c12bf6146100825780633dc938c1146100a05780633f9c5c3f146100aa575b600080fd5b61008a610150565b6040516100979190610663565b60405180910390f35b6100a86101de565b005b6100b26102fc565b6040516100bf91906106a0565b60405180910390f35b6100d0610350565b6040516100dd91906106fc565b60405180910390f35b6100ee610376565b6040516100fb9190610663565b60405180910390f35b61011e60048036038101906101199190610748565b610404565b005b61013a60048036038101906101359190610748565b6105b3565b60405161014791906106a0565b60405180910390f35b6001805461015d906107a4565b80601f0160208091040260200160405190810160405280929190818152602001828054610189906107a4565b80156101d65780601f106101ab576101008083540402835291602001916101d6565b820191906000526020600020905b8154815290600101906020018083116101b957829003601f168201915b505050505081565b600460003373ffffffffffffffffffffffffffffffffffffffff1673ffffffffffffffffffffffffffffffffffffffff16815260200190815260200160002060009054906101000a900460ff161561026b576040517f08c379a000000000000000000000000000000000000000000000000000000000815260040161026290610821565b60405180910390fd5b6001600460003373ffffffffffffffffffffffffffffffffffffffff1673ffffffffffffffffffffffffffffffffffffffff16815260200190815260200160002060006101000a81548160ff0219169083151502179055507f35816c7b6ffed555855d593ab845540d0b5b4fc5be1c40ba6dcf67e3b1a4ce90336040516102f291906106fc565b60405180910390a1565b6000600460003373ffffffffffffffffffffffffffffffffffffffff1673ffffffffffffffffffffffffffffffffffffffff16815260200190815260200160002060009054906101000a900460ff16905090565b600360009054906101000a900473ffffffffffffffffffffffffffffffffffffffff1681565b60008054610383906107a4565b80601f01602080910402602001604051908101604052809291908181526020018280546103af906107a4565b80156103fc5780601f106103d1576101008083540402835291602001916103fc565b820191906000526020600020905b8154815290600101906020018083116103df57829003601f168201915b505050505081565b600360009054906101000a900473ffffffffffffffffffffffffffffffffffffffff1673ffffffffffffffffffffffffffffffffffffffff163373ffffffffffffffffffffffffffffffffffffffff1614610494576040517f08c379a000000000000000000000000000000000000000000000000000000000815260040161048b906108b3565b60405180910390fd5b600460008273ffffffffffffffffffffffffffffffffffffffff1673ffffffffffffffffffffffffffffffffffffffff16815260200190815260200160002060009054906101000a900460ff1615610521576040517f08c379a000000000000000000000000000000000000000000000000000000000815260040161051890610821565b60405180910390fd5b6001600460008373ffffffffffffffffffffffffffffffffffffffff1673ffffffffffffffffffffffffffffffffffffffff16815260200190815260200160002060006101000a81548160ff0219169083151502179055507f35816c7b6ffed555855d593ab845540d0b5b4fc5be1c40ba6dcf67e3b1a4ce90816040516105a891906106fc565b60405180910390a150565b60046020528060005260406000206000915054906101000a900460ff1681565b600081519050919050565b600082825260208201905092915050565b60005b8381101561060d5780820151818401526020810190506105f2565b60008484015250505050565b6000601f19601f8301169050919050565b6000610635826105d3565b61063f81856105de565b935061064f8185602086016105ef565b61065881610619565b840191505092915050565b6000602082019050818103600083015261067d818461062a565b905092915050565b60008115159050919050565b61069a81610685565b82525050565b60006020820190506106b56000830184610691565b92915050565b600073ffffffffffffffffffffffffffffffffffffffff82169050919050565b60006106e6826106bb565b9050919050565b6106f6816106db565b82525050565b600060208201905061071160008301846106ed565b92915050565b600080fd5b610725816106db565b811461073057600080fd5b50565b6000813590506107428161071c565b92915050565b60006020828403121561075e5761075d610717565b5b600061076c84828501610733565b91505092915050565b7f4e487b7100000000000000000000000000000000000000000000000000000000600052602260045260246000fd5b600060028204905060018216806107bc57607f821691505b6020821081036107cf576107ce610775565b5b50919050565b7f417474656e64616e636520616c7265616479206d61726b656400000000000000600082015250565b600061080b6019836105de565b9150610816826107d5565b602082019050919050565b6000602082019050818103600083015261083a816107fe565b9050919050565b7f4f6e6c792074686520696e7374727563746f722063616e2063616c6c2074686960008201527f732066756e6374696f6e00000000000000000000000000000000000000000000602082015250565b600061089d602a836105de565b91506108a882610841565b604082019050919050565b600060208201905081810360008301526108cc81610890565b905091905056fea264697066735822122051d8a137a27602bc995820bb94bf3daa08409bcfef08a88a01be5b1cd8fb5ac664736f6c63430008130033",
  "linkReferences": {},
  "deployedLinkReferences": {}
}