{"contracts/NtZkVote.sol":{"NtZkVote":{"abi":[{"inputs":[{"internalType":"uint32","name":"_levels","type":"uint32"},{"internalType":"contract IHasher","name":"_hasher","type":"address"},{"internalType":"contract IVerifier","name":"_verifier","type":"address"},{"internalType":"uint8","name":"_numOptions","type":"uint8"}],"stateMutability":"nonpayable","type":"constructor"},{"anonymous":false,"inputs":[{"indexed":true,"internalType":"bytes32","name":"commitment","type":"bytes32"},{"indexed":false,"internalType":"uint32","name":"leafIndex","type":"uint32"},{"indexed":false,"internalType":"uint256","name":"timestamp","type":"uint256"}],"name":"Commit","type":"event"},{"anonymous":false,"inputs":[{"indexed":true,"internalType":"uint8","name":"option","type":"uint8"},{"components":[{"internalType":"string","name":"name","type":"string"},{"internalType":"string","name":"description","type":"string"}],"indexed":false,"internalType":"struct NtZkVote.CandidateDetail","name":"detail","type":"tuple"}],"name":"candidateRegistered","type":"event"},{"inputs":[],"name":"FIELD_SIZE","outputs":[{"internalType":"uint256","name":"","type":"uint256"}],"stateMutability":"view","type":"function"},{"inputs":[],"name":"ROOT_HISTORY_SIZE","outputs":[{"internalType":"uint32","name":"","type":"uint32"}],"stateMutability":"view","type":"function"},{"inputs":[],"name":"ZERO_VALUE","outputs":[{"internalType":"uint256","name":"","type":"uint256"}],"stateMutability":"view","type":"function"},{"inputs":[{"internalType":"uint256","name":"","type":"uint256"}],"name":"candidates","outputs":[{"internalType":"string","name":"name","type":"string"},{"internalType":"string","name":"description","type":"string"}],"stateMutability":"view","type":"function"},{"inputs":[{"internalType":"bytes32","name":"","type":"bytes32"}],"name":"commitments","outputs":[{"internalType":"bool","name":"","type":"bool"}],"stateMutability":"view","type":"function"},{"inputs":[],"name":"currentRootIndex","outputs":[{"internalType":"uint32","name":"","type":"uint32"}],"stateMutability":"view","type":"function"},{"inputs":[{"internalType":"uint256","name":"","type":"uint256"}],"name":"filledSubtrees","outputs":[{"internalType":"bytes32","name":"","type":"bytes32"}],"stateMutability":"view","type":"function"},{"inputs":[],"name":"getLastRoot","outputs":[{"internalType":"bytes32","name":"","type":"bytes32"}],"stateMutability":"view","type":"function"},{"inputs":[{"internalType":"uint256","name":"_option","type":"uint256"}],"name":"getOptionCounter","outputs":[{"internalType":"uint256","name":"","type":"uint256"}],"stateMutability":"view","type":"function"},{"inputs":[{"internalType":"uint256","name":"_left","type":"uint256"},{"internalType":"uint256","name":"_right","type":"uint256"}],"name":"hashLeftRight","outputs":[{"internalType":"bytes32","name":"","type":"bytes32"}],"stateMutability":"view","type":"function"},{"inputs":[],"name":"hasher","outputs":[{"internalType":"contract IHasher","name":"","type":"address"}],"stateMutability":"view","type":"function"},{"inputs":[{"internalType":"bytes32","name":"_root","type":"bytes32"}],"name":"isKnownRoot","outputs":[{"internalType":"bool","name":"","type":"bool"}],"stateMutability":"view","type":"function"},{"inputs":[],"name":"levels","outputs":[{"internalType":"uint32","name":"","type":"uint32"}],"stateMutability":"view","type":"function"},{"inputs":[],"name":"nextIndex","outputs":[{"internalType":"uint32","name":"","type":"uint32"}],"stateMutability":"view","type":"function"},{"inputs":[{"internalType":"bytes32","name":"","type":"bytes32"}],"name":"nullifiers","outputs":[{"internalType":"bool","name":"","type":"bool"}],"stateMutability":"view","type":"function"},{"inputs":[],"name":"owner","outputs":[{"internalType":"address","name":"","type":"address"}],"stateMutability":"view","type":"function"},{"inputs":[{"internalType":"string","name":"_name","type":"string"},{"internalType":"string","name":"_description","type":"string"}],"name":"registerCandidate","outputs":[{"internalType":"bool","name":"","type":"bool"}],"stateMutability":"nonpayable","type":"function"},{"inputs":[{"internalType":"uint256","name":"_uniqueHash","type":"uint256"},{"internalType":"uint256","name":"_commitment","type":"uint256"}],"name":"registerCommitment","outputs":[],"stateMutability":"nonpayable","type":"function"},{"inputs":[{"internalType":"address","name":"_validator","type":"address"}],"name":"registerValidator","outputs":[],"stateMutability":"nonpayable","type":"function"},{"inputs":[{"internalType":"uint256","name":"","type":"uint256"}],"name":"roots","outputs":[{"internalType":"bytes32","name":"","type":"bytes32"}],"stateMutability":"view","type":"function"},{"inputs":[{"internalType":"uint16","name":"year","type":"uint16"},{"internalType":"uint8","name":"month","type":"uint8"},{"internalType":"uint8","name":"day","type":"uint8"},{"internalType":"uint8","name":"hour","type":"uint8"}],"name":"setBeginning","outputs":[{"internalType":"bool","name":"","type":"bool"}],"stateMutability":"nonpayable","type":"function"},{"inputs":[{"internalType":"uint16","name":"year","type":"uint16"},{"internalType":"uint8","name":"month","type":"uint8"},{"internalType":"uint8","name":"day","type":"uint8"},{"internalType":"uint8","name":"hour","type":"uint8"}],"name":"setDeadline","outputs":[{"internalType":"bool","name":"","type":"bool"}],"stateMutability":"nonpayable","type":"function"},{"inputs":[{"internalType":"address","name":"","type":"address"}],"name":"validators","outputs":[{"internalType":"bool","name":"","type":"bool"}],"stateMutability":"view","type":"function"},{"inputs":[],"name":"verifier","outputs":[{"internalType":"contract IVerifier","name":"","type":"address"}],"stateMutability":"view","type":"function"},{"inputs":[{"internalType":"uint256","name":"_option","type":"uint256"},{"internalType":"uint256","name":"_nullifier","type":"uint256"},{"internalType":"uint256","name":"_root","type":"uint256"},{"internalType":"uint256[2]","name":"_proof_a","type":"uint256[2]"},{"internalType":"uint256[2][2]","name":"_proof_b","type":"uint256[2][2]"},{"internalType":"uint256[2]","name":"_proof_c","type":"uint256[2]"}],"name":"vote","outputs":[],"stateMutability":"nonpayable","type":"function"},{"inputs":[],"name":"votingPeriod","outputs":[{"internalType":"uint256","name":"beginning","type":"uint256"},{"internalType":"uint256","name":"deadline","type":"uint256"}],"stateMutability":"view","type":"function"},{"inputs":[{"internalType":"uint256","name":"i","type":"uint256"}],"name":"zeros","outputs":[{"internalType":"bytes32","name":"","type":"bytes32"}],"stateMutability":"pure","type":"function"}],"evm":{"bytecode":{"linkReferences":{},"object":"60c06040526000600360006101000a81548163ffffffff021916908363ffffffff1602179055506000600360046101000a81548163ffffffff021916908363ffffffff1602179055506000600960006101000a81548160ff021916908360ff1602179055503480156200007157600080fd5b50604051620048d4380380620048d4833981810160405281019062000097919062000ae9565b838383828260008263ffffffff1611620000e8576040517f08c379a0000000000000000000000000000000000000000000000000000000008152600401620000df9062000be2565b60405180910390fd5b60208263ffffffff161062000134576040517f08c379a00000000000000000000000000000000000000000000000000000000081526004016200012b9062000c54565b60405180910390fd5b816000806101000a81548163ffffffff021916908363ffffffff1602179055508073ffffffffffffffffffffffffffffffffffffffff1660808173ffffffffffffffffffffffffffffffffffffffff168152505060005b8263ffffffff168163ffffffff161015620001ea57620001b78163ffffffff16620002c660201b60201c565b600160008363ffffffff168152602001908152602001600020819055508080620001e19062000ca5565b9150506200018b565b5062000210600183620001fe919062000cd6565b63ffffffff16620002c660201b60201c565b600260008081526020019081526020016000208190555050508073ffffffffffffffffffffffffffffffffffffffff1660a08173ffffffffffffffffffffffffffffffffffffffff168152505050505033600660006101000a81548173ffffffffffffffffffffffffffffffffffffffff021916908373ffffffffffffffffffffffffffffffffffffffff16021790555080600960006101000a81548160ff021916908360ff1602179055505050505062000d87565b6000808203620002fc577f2fe54c60d3acabf3343a35b6eba15db4821b340f76e741e2249685ed4899af6c60001b9050620009a2565b6001820362000331577f256a6135777eee2fd26f54b8b7037a25439d5235caee224154186d2b8a52e31d60001b9050620009a2565b6002820362000366577f1151949895e82ab19924de92c40a3d6f7bcb60d92b00504b8199613683f0c20060001b9050620009a2565b600382036200039b577f20121ee811489ff8d61f09fb89e313f14959a0f28bb428a20dba6b0b068b3bdb60001b9050620009a2565b60048203620003d0577f0a89ca6ffa14cc462cfedb842c30ed221a50a3d6bf022a6a57dc82ab24c157c960001b9050620009a2565b6005820362000405577f24ca05c2b5cd42e890d6be94c68d0689f4f21c9cec9c0f13fe41d566dfb5495960001b9050620009a2565b600682036200043a577f1ccb97c932565a92c60156bdba2d08f3bf1377464e025cee765679e604a7315c60001b9050620009a2565b600782036200046f577f19156fbd7d1a8bf5cba8909367de1b624534ebab4f0f79e003bccdd1b182bdb460001b9050620009a2565b60088203620004a4577f261af8c1f0912e465744641409f622d466c3920ac6e5ff37e36604cb11dfff8060001b9050620009a2565b60098203620004d8577e58459724ff6ca5a1652fcbc3e82b93895cf08e975b19beab3f54c217d1c00760001b9050620009a2565b600a82036200050d577f1f04ef20dee48d39984d8eabe768a70eafa6310ad20849d4573c3c40c2ad1e3060001b9050620009a2565b600b820362000542577f1bea3dec5dab51567ce7e200a30f7ba6d4276aeaa53e2686f962a46c66d511e560001b9050620009a2565b600c820362000577577f0ee0f941e2da4b9e31c3ca97a40d8fa9ce68d97c084177071b3cb46cd3372f0f60001b9050620009a2565b600d8203620005ac577f1ca9503e8935884501bbaf20be14eb4c46b89772c97b96e3b2ebf3a36a948bbd60001b9050620009a2565b600e8203620005e1577f133a80e30697cd55d8f7d4b0965b7be24057ba5dc3da898ee2187232446cb10860001b9050620009a2565b600f820362000616577f13e6d8fc88839ed76e182c2a779af5b2c0da9dd18c90427a644f7e148a6253b660001b9050620009a2565b601082036200064b577f1eb16b057a477f4bc8f572ea6bee39561098f78f15bfb3699dcbb7bd8db6185460001b9050620009a2565b6011820362000680577f0da2cb16a1ceaabf1c16b838f7a9e3f2a3a3088d9e0a6debaa748114620696ea60001b9050620009a2565b60128203620006b5577f24a3b3d822420b14b5d8cb6c28a574f01e98ea9e940551d2ebd75cee12649f9d60001b9050620009a2565b60138203620006ea577f198622acbd783d1b0d9064105b1fc8e4d8889de95c4c519b3f635809fe6afc0560001b9050620009a2565b601482036200071f577f29d7ed391256ccc3ea596c86e933b89ff339d25ea8ddced975ae2fe30b5296d460001b9050620009a2565b6015820362000754577f19be59f2f0413ce78c0c3703a3a5451b1d7f39629fa33abd11548a76065b296760001b9050620009a2565b6016820362000789577f1ff3f61797e538b70e619310d33f2a063e7eb59104e112e95738da1254dc345360001b9050620009a2565b60178203620007be577f10c16ae9959cf8358980d9dd9616e48228737310a10e2b6b731c1a548f036c4860001b9050620009a2565b60188203620007f3577f0ba433a63174a90ac20992e75e3095496812b652685b5e1a2eae0b1bf4e8fcd160001b9050620009a2565b6019820362000828577f019ddb9df2bc98d987d0dfeca9d2b643deafab8f7036562e627c3667266a044c60001b9050620009a2565b601a82036200085d577f2d3c88b23175c5a5565db928414c66d1912b11acf974b2e644caaac04739ce9960001b9050620009a2565b601b820362000892577f2eab55f6ae4e66e32c5189eed5c470840863445760f5ed7e7b69b2a62600f35460001b9050620009a2565b601c8203620008c6577e2df37a2642621802383cf952bf4dd1f32e05433beeb1fd41031fb7eace979d60001b9050620009a2565b601d8203620008fb577f104aeb41435db66c3e62feccc1d6f5d98d0a0ed75d1374db457cf462e3a1f42760001b9050620009a2565b601e820362000930577f1f3c6fd858e9a7d4b0d1f38e256a09d81d5a5e3c963987e2d4b814cfab7c6ebb60001b9050620009a2565b601f820362000965577f2c7a07d20dff79d01fecedc1134284a8d08436606c93693b67e333f671bf69cc60001b9050620009a2565b6040517f08c379a0000000000000000000000000000000000000000000000000000000008152600401620009999062000d65565b60405180910390fd5b919050565b600080fd5b600063ffffffff82169050919050565b620009c781620009ac565b8114620009d357600080fd5b50565b600081519050620009e781620009bc565b92915050565b600073ffffffffffffffffffffffffffffffffffffffff82169050919050565b600062000a1a82620009ed565b9050919050565b600062000a2e8262000a0d565b9050919050565b62000a408162000a21565b811462000a4c57600080fd5b50565b60008151905062000a608162000a35565b92915050565b600062000a738262000a0d565b9050919050565b62000a858162000a66565b811462000a9157600080fd5b50565b60008151905062000aa58162000a7a565b92915050565b600060ff82169050919050565b62000ac38162000aab565b811462000acf57600080fd5b50565b60008151905062000ae38162000ab8565b92915050565b6000806000806080858703121562000b065762000b05620009a7565b5b600062000b1687828801620009d6565b945050602062000b298782880162000a4f565b935050604062000b3c8782880162000a94565b925050606062000b4f8782880162000ad2565b91505092959194509250565b600082825260208201905092915050565b7f5f6c6576656c732073686f756c642062652067726561746572207468616e207a60008201527f65726f0000000000000000000000000000000000000000000000000000000000602082015250565b600062000bca60238362000b5b565b915062000bd78262000b6c565b604082019050919050565b6000602082019050818103600083015262000bfd8162000bbb565b9050919050565b7f5f6c6576656c732073686f756c64206265206c657373207468616e2033320000600082015250565b600062000c3c601e8362000b5b565b915062000c498262000c04565b602082019050919050565b6000602082019050818103600083015262000c6f8162000c2d565b9050919050565b7f4e487b7100000000000000000000000000000000000000000000000000000000600052601160045260246000fd5b600062000cb282620009ac565b915063ffffffff820362000ccb5762000cca62000c76565b5b600182019050919050565b600062000ce382620009ac565b915062000cf083620009ac565b9250828203905063ffffffff81111562000d0f5762000d0e62000c76565b5b92915050565b7f496e646578206f7574206f6620626f756e647300000000000000000000000000600082015250565b600062000d4d60138362000b5b565b915062000d5a8262000d15565b602082019050919050565b6000602082019050818103600083015262000d808162000d3e565b9050919050565b60805160a051613b1262000dc26000396000818161090e0152611acd015260008181610b7b01528181610c5501526118da0152613b126000f3fe608060405234801561001057600080fd5b50600436106101a95760003560e01c8063955e0377116100f9578063e4ed54a411610097578063ed33639f11610071578063ed33639f14610522578063f178e47c14610540578063fa52c7d814610570578063fc7e9c6f146105a0576101a9565b8063e4ed54a4146104a4578063e8295588146104d4578063ec73295914610504576101a9565b8063c2b40ae4116100d3578063c2b40ae41461040a578063cd87a3b41461043a578063ce8f637714610458578063ddf0238814610474576101a9565b8063955e0377146103a05780639fca5169146103d0578063ba70f757146103ec576101a9565b8063414a37ba116101665780636d9833e3116101405780636d9833e314610304578063839df945146103345780638da5cb5b1461036457806390eeb02b14610382576101a9565b8063414a37ba146102985780634ecf518b146102b65780635bb93995146102d4576101a9565b806302a251a3146101ae5780630dbce4dd146101cd5780631407beb8146101fd5780632997e86b146102195780632b7ac3f3146102495780633477ee2e14610267575b600080fd5b6101b66105be565b6040516101c4929190611fd5565b60405180910390f35b6101e760048036038101906101e29190612158565b6105d0565b6040516101f491906121eb565b60405180910390f35b61021760048036038101906102129190612232565b6107c3565b005b610233600480360381019061022e91906122a8565b6108ec565b60405161024091906121eb565b60405180910390f35b61025161090c565b60405161025e9190612354565b60405180910390f35b610281600480360381019061027c919061236f565b610930565b60405161028f92919061241b565b60405180910390f35b6102a0610a74565b6040516102ad9190612452565b60405180910390f35b6102be610a98565b6040516102cb919061248c565b60405180910390f35b6102ee60048036038101906102e99190612232565b610aac565b6040516102fb91906124b6565b60405180910390f35b61031e600480360381019061031991906122a8565b610d07565b60405161032b91906121eb565b60405180910390f35b61034e600480360381019061034991906122a8565b610da4565b60405161035b91906121eb565b60405180910390f35b61036c610dc4565b60405161037991906124f2565b60405180910390f35b61038a610dea565b604051610397919061248c565b60405180910390f35b6103ba60048036038101906103b5919061236f565b610e00565b6040516103c79190612452565b60405180910390f35b6103ea60048036038101906103e59190612539565b610e1d565b005b6103f4610f08565b60405161040191906124b6565b60405180910390f35b610424600480360381019061041f919061236f565b610f3b565b60405161043191906124b6565b60405180910390f35b610442610f53565b60405161044f919061248c565b60405180910390f35b610472600480360381019061046d91906126cd565b610f58565b005b61048e600480360381019061048991906127cf565b610fff565b60405161049b91906121eb565b60405180910390f35b6104be60048036038101906104b991906127cf565b61110a565b6040516104cb91906121eb565b60405180910390f35b6104ee60048036038101906104e9919061236f565b611215565b6040516104fb91906124b6565b60405180910390f35b61050c6118b4565b6040516105199190612452565b60405180910390f35b61052a6118d8565b6040516105379190612857565b60405180910390f35b61055a6004803603810190610555919061236f565b6118fc565b60405161056791906124b6565b60405180910390f35b61058a60048036038101906105859190612539565b611914565b60405161059791906121eb565b60405180910390f35b6105a8611934565b6040516105b5919061248c565b60405180910390f35b600c8060000154908060010154905082565b6000600660009054906101000a900473ffffffffffffffffffffffffffffffffffffffff1673ffffffffffffffffffffffffffffffffffffffff163373ffffffffffffffffffffffffffffffffffffffff1614610662576040517f08c379a0000000000000000000000000000000000000000000000000000000008152600401610659906128be565b60405180910390fd5b600c6000015442106106a9576040517f08c379a00000000000000000000000000000000000000000000000000000000081526004016106a09061292a565b60405180910390fd5b60006040518060400160405280858152602001848152509050600b81908060018154018082558091505060019003906000526020600020906002020160009091909190915060008201518160000190816107039190612b4c565b5060208201518160010190816107199190612b4c565b5050506000600a6000600960009054906101000a900460ff1660ff168152602001908152602001600020819055506009600081819054906101000a900460ff168092919061076690612c4d565b91906101000a81548160ff021916908360ff16021790555060ff167f406ea63ed3d054daaf5dbce82d781d1baa6c3207f5ba37d94ae58d892c037486826040516107b09190612d04565b60405180910390a2600191505092915050565b600760003373ffffffffffffffffffffffffffffffffffffffff1673ffffffffffffffffffffffffffffffffffffffff16815260200190815260200160002060009054906101000a900460ff1661084f576040517f08c379a000000000000000000000000000000000000000000000000000000000815260040161084690612d72565b60405180910390fd5b6008600083815260200190815260200160002060009054906101000a900460ff16156108b0576040517f08c379a00000000000000000000000000000000000000000000000000000000081526004016108a790612e04565b60405180910390fd5b6108bc8160001b61194a565b60016008600084815260200190815260200160002060006101000a81548160ff0219169083151502179055505050565b60046020528060005260406000206000915054906101000a900460ff1681565b7f000000000000000000000000000000000000000000000000000000000000000081565b600b818154811061094057600080fd5b906000526020600020906002020160009150905080600001805461096390612979565b80601f016020809104026020016040519081016040528092919081815260200182805461098f90612979565b80156109dc5780601f106109b1576101008083540402835291602001916109dc565b820191906000526020600020905b8154815290600101906020018083116109bf57829003601f168201915b5050505050908060010180546109f190612979565b80601f0160208091040260200160405190810160405280929190818152602001828054610a1d90612979565b8015610a6a5780601f10610a3f57610100808354040283529160200191610a6a565b820191906000526020600020905b815481529060010190602001808311610a4d57829003601f168201915b5050505050905082565b7f30644e72e131a029b85045b68181585d2833e84879b9709143e1f593f000000181565b60008054906101000a900463ffffffff1681565b60007f30644e72e131a029b85045b68181585d2833e84879b9709143e1f593f00000018310610b10576040517f08c379a0000000000000000000000000000000000000000000000000000000008152600401610b0790612e70565b60405180910390fd5b7f30644e72e131a029b85045b68181585d2833e84879b9709143e1f593f00000018210610b72576040517f08c379a0000000000000000000000000000000000000000000000000000000008152600401610b6990612f02565b60405180910390fd5b600083905060007f000000000000000000000000000000000000000000000000000000000000000073ffffffffffffffffffffffffffffffffffffffff16633f1a1187838360006040518463ffffffff1660e01b8152600401610bd793929190612f5d565b6040805180830381865afa158015610bf3573d6000803e3d6000fd5b505050506040513d601f19601f82011682018060405250810190610c179190612fa9565b80925081935050507f30644e72e131a029b85045b68181585d2833e84879b9709143e1f593f000000180610c4e57610c4d612fe9565b5b84830891507f000000000000000000000000000000000000000000000000000000000000000073ffffffffffffffffffffffffffffffffffffffff16633f1a1187838360006040518463ffffffff1660e01b8152600401610cb193929190612f5d565b6040805180830381865afa158015610ccd573d6000803e3d6000fd5b505050506040513d601f19601f82011682018060405250810190610cf19190612fa9565b80925081935050508160001b9250505092915050565b60008060001b8203610d1c5760009050610d9f565b6000600360009054906101000a900463ffffffff16905060008190505b600260008263ffffffff168152602001908152602001600020548403610d6457600192505050610d9f565b60008163ffffffff1603610d7757601e90505b8080610d8290613018565b9150508163ffffffff168163ffffffff1603610d39576000925050505b919050565b60056020528060005260406000206000915054906101000a900460ff1681565b600660009054906101000a900473ffffffffffffffffffffffffffffffffffffffff1681565b600360009054906101000a900463ffffffff1681565b6000600a6000838152602001908152602001600020549050919050565b600660009054906101000a900473ffffffffffffffffffffffffffffffffffffffff1673ffffffffffffffffffffffffffffffffffffffff163373ffffffffffffffffffffffffffffffffffffffff1614610ead576040517f08c379a0000000000000000000000000000000000000000000000000000000008152600401610ea49061308d565b60405180910390fd5b6001600760008373ffffffffffffffffffffffffffffffffffffffff1673ffffffffffffffffffffffffffffffffffffffff16815260200190815260200160002060006101000a81548160ff02191690831515021790555050565b600060026000600360009054906101000a900463ffffffff1663ffffffff16815260200190815260200160002054905090565b60026020528060005260406000206000915090505481565b601e81565b600960009054906101000a900460ff1660ff16861115610fad576040517f08c379a0000000000000000000000000000000000000000000000000000000008152600401610fa4906130f9565b60405180910390fd5b610fc08560001b8560001b858585611a22565b6001600a600088815260200190815260200160002054610fe09190613119565b600a600088815260200190815260200160002081905550505050505050565b6000600660009054906101000a900473ffffffffffffffffffffffffffffffffffffffff1673ffffffffffffffffffffffffffffffffffffffff163373ffffffffffffffffffffffffffffffffffffffff1614611091576040517f08c379a0000000000000000000000000000000000000000000000000000000008152600401611088906128be565b60405180910390fd5b6000600c60000154146110d9576040517f08c379a00000000000000000000000000000000000000000000000000000000081526004016110d090613199565b60405180910390fd5b6110f58561ffff168560ff168560ff168560ff16600080611bf7565b600c6000018190555060019050949350505050565b6000600660009054906101000a900473ffffffffffffffffffffffffffffffffffffffff1673ffffffffffffffffffffffffffffffffffffffff163373ffffffffffffffffffffffffffffffffffffffff161461119c576040517f08c379a0000000000000000000000000000000000000000000000000000000008152600401611193906128be565b60405180910390fd5b6000600c60010154146111e4576040517f08c379a00000000000000000000000000000000000000000000000000000000081526004016111db90613199565b60405180910390fd5b6112008561ffff168560ff168560ff168560ff16600080611bf7565b600c6001018190555060019050949350505050565b6000808203611249577f2fe54c60d3acabf3343a35b6eba15db4821b340f76e741e2249685ed4899af6c60001b90506118af565b6001820361127c577f256a6135777eee2fd26f54b8b7037a25439d5235caee224154186d2b8a52e31d60001b90506118af565b600282036112af577f1151949895e82ab19924de92c40a3d6f7bcb60d92b00504b8199613683f0c20060001b90506118af565b600382036112e2577f20121ee811489ff8d61f09fb89e313f14959a0f28bb428a20dba6b0b068b3bdb60001b90506118af565b60048203611315577f0a89ca6ffa14cc462cfedb842c30ed221a50a3d6bf022a6a57dc82ab24c157c960001b90506118af565b60058203611348577f24ca05c2b5cd42e890d6be94c68d0689f4f21c9cec9c0f13fe41d566dfb5495960001b90506118af565b6006820361137b577f1ccb97c932565a92c60156bdba2d08f3bf1377464e025cee765679e604a7315c60001b90506118af565b600782036113ae577f19156fbd7d1a8bf5cba8909367de1b624534ebab4f0f79e003bccdd1b182bdb460001b90506118af565b600882036113e1577f261af8c1f0912e465744641409f622d466c3920ac6e5ff37e36604cb11dfff8060001b90506118af565b60098203611413577e58459724ff6ca5a1652fcbc3e82b93895cf08e975b19beab3f54c217d1c00760001b90506118af565b600a8203611446577f1f04ef20dee48d39984d8eabe768a70eafa6310ad20849d4573c3c40c2ad1e3060001b90506118af565b600b8203611479577f1bea3dec5dab51567ce7e200a30f7ba6d4276aeaa53e2686f962a46c66d511e560001b90506118af565b600c82036114ac577f0ee0f941e2da4b9e31c3ca97a40d8fa9ce68d97c084177071b3cb46cd3372f0f60001b90506118af565b600d82036114df577f1ca9503e8935884501bbaf20be14eb4c46b89772c97b96e3b2ebf3a36a948bbd60001b90506118af565b600e8203611512577f133a80e30697cd55d8f7d4b0965b7be24057ba5dc3da898ee2187232446cb10860001b90506118af565b600f8203611545577f13e6d8fc88839ed76e182c2a779af5b2c0da9dd18c90427a644f7e148a6253b660001b90506118af565b60108203611578577f1eb16b057a477f4bc8f572ea6bee39561098f78f15bfb3699dcbb7bd8db6185460001b90506118af565b601182036115ab577f0da2cb16a1ceaabf1c16b838f7a9e3f2a3a3088d9e0a6debaa748114620696ea60001b90506118af565b601282036115de577f24a3b3d822420b14b5d8cb6c28a574f01e98ea9e940551d2ebd75cee12649f9d60001b90506118af565b60138203611611577f198622acbd783d1b0d9064105b1fc8e4d8889de95c4c519b3f635809fe6afc0560001b90506118af565b60148203611644577f29d7ed391256ccc3ea596c86e933b89ff339d25ea8ddced975ae2fe30b5296d460001b90506118af565b60158203611677577f19be59f2f0413ce78c0c3703a3a5451b1d7f39629fa33abd11548a76065b296760001b90506118af565b601682036116aa577f1ff3f61797e538b70e619310d33f2a063e7eb59104e112e95738da1254dc345360001b90506118af565b601782036116dd577f10c16ae9959cf8358980d9dd9616e48228737310a10e2b6b731c1a548f036c4860001b90506118af565b60188203611710577f0ba433a63174a90ac20992e75e3095496812b652685b5e1a2eae0b1bf4e8fcd160001b90506118af565b60198203611743577f019ddb9df2bc98d987d0dfeca9d2b643deafab8f7036562e627c3667266a044c60001b90506118af565b601a8203611776577f2d3c88b23175c5a5565db928414c66d1912b11acf974b2e644caaac04739ce9960001b90506118af565b601b82036117a9577f2eab55f6ae4e66e32c5189eed5c470840863445760f5ed7e7b69b2a62600f35460001b90506118af565b601c82036117db577e2df37a2642621802383cf952bf4dd1f32e05433beeb1fd41031fb7eace979d60001b90506118af565b601d820361180e577f104aeb41435db66c3e62feccc1d6f5d98d0a0ed75d1374db457cf462e3a1f42760001b90506118af565b601e8203611841577f1f3c6fd858e9a7d4b0d1f38e256a09d81d5a5e3c963987e2d4b814cfab7c6ebb60001b90506118af565b601f8203611874577f2c7a07d20dff79d01fecedc1134284a8d08436606c93693b67e333f671bf69cc60001b90506118af565b6040517f08c379a00000000000000000000000000000000000000000000000000000000081526004016118a690613205565b60405180910390fd5b919050565b7f2fe54c60d3acabf3343a35b6eba15db4821b340f76e741e2249685ed4899af6c81565b7f000000000000000000000000000000000000000000000000000000000000000081565b60016020528060005260406000206000915090505481565b60076020528060005260406000206000915054906101000a900460ff1681565b600360049054906101000a900463ffffffff1681565b6005600082815260200190815260200160002060009054906101000a900460ff16156119ab576040517f08c379a00000000000000000000000000000000000000000000000000000000081526004016119a290613297565b60405180910390fd5b60016005600083815260200190815260200160002060006101000a81548160ff02191690831515021790555060006119e282611c58565b9050817f401999886e5f90a91b92a0bfb7e2d48f714651a4d1c929bb3a753525ba066b918242604051611a169291906132b7565b60405180910390a25050565b6004600086815260200190815260200160002060009054906101000a900460ff1615611a83576040517f08c379a0000000000000000000000000000000000000000000000000000000008152600401611a7a9061332c565b60405180910390fd5b611a8c84610d07565b611acb576040517f08c379a0000000000000000000000000000000000000000000000000000000008152600401611ac290613398565b60405180910390fd5b7f000000000000000000000000000000000000000000000000000000000000000073ffffffffffffffffffffffffffffffffffffffff1663f5c9d69e84848460405180604001604052808b60001c81526020018a60001c8152506040518563ffffffff1660e01b8152600401611b449493929190613561565b602060405180830381865afa158015611b61573d6000803e3d6000fd5b505050506040513d601f19601f82011682018060405250810190611b8591906135d4565b611bc4576040517f08c379a0000000000000000000000000000000000000000000000000000000008152600401611bbb9061364d565b60405180910390fd5b60016004600087815260200190815260200160002060006101000a81548160ff0219169083151502179055505050505050565b600081603c84611c07919061366d565b610e1086611c15919061366d565b62015180611c248b8b8b611e5d565b611c2e919061366d565b611c389190613119565b611c429190613119565b611c4c9190613119565b90509695505050505050565b600080600360049054906101000a900463ffffffff16905060008054906101000a900463ffffffff166002611c8d91906137e2565b63ffffffff168163ffffffff1603611cda576040517f08c379a0000000000000000000000000000000000000000000000000000000008152600401611cd190613883565b60405180910390fd5b6000819050600084905060008060005b60008054906101000a900463ffffffff1663ffffffff168163ffffffff161015611db3576000600286611d1d91906138a3565b63ffffffff1603611d5f57839250611d3a8163ffffffff16611215565b915083600160008363ffffffff16815260200190815260200160002081905550611d7f565b600160008263ffffffff1681526020019081526020016000205492508391505b611d8f8360001c8360001c610aac565b9350600285611d9e91906138d4565b94508080611dab90613905565b915050611cea565b506000601e6001600360009054906101000a900463ffffffff16611dd79190613931565b611de191906138a3565b905080600360006101000a81548163ffffffff021916908363ffffffff16021790555083600260008363ffffffff16815260200190815260200160002081905550600186611e2f9190613931565b600360046101000a81548163ffffffff021916908363ffffffff160217905550859650505050505050919050565b60006107b2841015611e6e57600080fd5b600084905060008490506000849050600062253d8c60046064600c600e87611e969190613973565b611ea091906139b6565b61132488611eae9190613a20565b611eb89190613a20565b611ec291906139b6565b6003611ece9190613a64565b611ed891906139b6565b600c80600c600e88611eea9190613973565b611ef491906139b6565b611efe9190613a64565b600287611f0b9190613973565b611f159190613973565b61016f611f229190613a64565b611f2c91906139b6565b6004600c600e88611f3d9190613973565b611f4791906139b6565b6112c089611f559190613a20565b611f5f9190613a20565b6105b5611f6c9190613a64565b611f7691906139b6565b617d4b86611f849190613973565b611f8e9190613a20565b611f989190613a20565b611fa29190613973565b611fac9190613973565b9050809450505050509392505050565b6000819050919050565b611fcf81611fbc565b82525050565b6000604082019050611fea6000830185611fc6565b611ff76020830184611fc6565b9392505050565b6000604051905090565b600080fd5b600080fd5b600080fd5b600080fd5b6000601f19601f8301169050919050565b7f4e487b7100000000000000000000000000000000000000000000000000000000600052604160045260246000fd5b6120658261201c565b810181811067ffffffffffffffff821117156120845761208361202d565b5b80604052505050565b6000612097611ffe565b90506120a3828261205c565b919050565b600067ffffffffffffffff8211156120c3576120c261202d565b5b6120cc8261201c565b9050602081019050919050565b82818337600083830152505050565b60006120fb6120f6846120a8565b61208d565b90508281526020810184848401111561211757612116612017565b5b6121228482856120d9565b509392505050565b600082601f83011261213f5761213e612012565b5b813561214f8482602086016120e8565b91505092915050565b6000806040838503121561216f5761216e612008565b5b600083013567ffffffffffffffff81111561218d5761218c61200d565b5b6121998582860161212a565b925050602083013567ffffffffffffffff8111156121ba576121b961200d565b5b6121c68582860161212a565b9150509250929050565b60008115159050919050565b6121e5816121d0565b82525050565b600060208201905061220060008301846121dc565b92915050565b61220f81611fbc565b811461221a57600080fd5b50565b60008135905061222c81612206565b92915050565b6000806040838503121561224957612248612008565b5b60006122578582860161221d565b92505060206122688582860161221d565b9150509250929050565b6000819050919050565b61228581612272565b811461229057600080fd5b50565b6000813590506122a28161227c565b92915050565b6000602082840312156122be576122bd612008565b5b60006122cc84828501612293565b91505092915050565b600073ffffffffffffffffffffffffffffffffffffffff82169050919050565b6000819050919050565b600061231a612315612310846122d5565b6122f5565b6122d5565b9050919050565b600061232c826122ff565b9050919050565b600061233e82612321565b9050919050565b61234e81612333565b82525050565b60006020820190506123696000830184612345565b92915050565b60006020828403121561238557612384612008565b5b60006123938482850161221d565b91505092915050565b600081519050919050565b600082825260208201905092915050565b60005b838110156123d65780820151818401526020810190506123bb565b60008484015250505050565b60006123ed8261239c565b6123f781856123a7565b93506124078185602086016123b8565b6124108161201c565b840191505092915050565b6000604082019050818103600083015261243581856123e2565b9050818103602083015261244981846123e2565b90509392505050565b60006020820190506124676000830184611fc6565b92915050565b600063ffffffff82169050919050565b6124868161246d565b82525050565b60006020820190506124a1600083018461247d565b92915050565b6124b081612272565b82525050565b60006020820190506124cb60008301846124a7565b92915050565b60006124dc826122d5565b9050919050565b6124ec816124d1565b82525050565b600060208201905061250760008301846124e3565b92915050565b612516816124d1565b811461252157600080fd5b50565b6000813590506125338161250d565b92915050565b60006020828403121561254f5761254e612008565b5b600061255d84828501612524565b91505092915050565b600067ffffffffffffffff8211156125815761258061202d565b5b602082029050919050565b600080fd5b60006125a461259f84612566565b61208d565b905080602084028301858111156125be576125bd61258c565b5b835b818110156125e757806125d3888261221d565b8452602084019350506020810190506125c0565b5050509392505050565b600082601f83011261260657612605612012565b5b6002612613848285612591565b91505092915050565b600067ffffffffffffffff8211156126375761263661202d565b5b602082029050919050565b60006126556126508461261c565b61208d565b9050806040840283018581111561266f5761266e61258c565b5b835b81811015612698578061268488826125f1565b845260208401935050604081019050612671565b5050509392505050565b600082601f8301126126b7576126b6612012565b5b60026126c4848285612642565b91505092915050565b60008060008060008061016087890312156126eb576126ea612008565b5b60006126f989828a0161221d565b965050602061270a89828a0161221d565b955050604061271b89828a0161221d565b945050606061272c89828a016125f1565b93505060a061273d89828a016126a2565b92505061012061274f89828a016125f1565b9150509295509295509295565b600061ffff82169050919050565b6127738161275c565b811461277e57600080fd5b50565b6000813590506127908161276a565b92915050565b600060ff82169050919050565b6127ac81612796565b81146127b757600080fd5b50565b6000813590506127c9816127a3565b92915050565b600080600080608085870312156127e9576127e8612008565b5b60006127f787828801612781565b9450506020612808878288016127ba565b9350506040612819878288016127ba565b925050606061282a878288016127ba565b91505092959194509250565b600061284182612321565b9050919050565b61285181612836565b82525050565b600060208201905061286c6000830184612848565b92915050565b7f4f6e6c79206f776e65722063616e206164642063616e64696461746521000000600082015250565b60006128a8601d836123a7565b91506128b382612872565b602082019050919050565b600060208201905081810360008301526128d78161289b565b9050919050565b7f546f6f206c61746520746f20726567697374657220612063616e646964617465600082015250565b60006129146020836123a7565b915061291f826128de565b602082019050919050565b6000602082019050818103600083015261294381612907565b9050919050565b7f4e487b7100000000000000000000000000000000000000000000000000000000600052602260045260246000fd5b6000600282049050600182168061299157607f821691505b6020821081036129a4576129a361294a565b5b50919050565b60008190508160005260206000209050919050565b60006020601f8301049050919050565b600082821b905092915050565b600060088302612a0c7fffffffffffffffffffffffffffffffffffffffffffffffffffffffffffffffff826129cf565b612a1686836129cf565b95508019841693508086168417925050509392505050565b6000612a49612a44612a3f84611fbc565b6122f5565b611fbc565b9050919050565b6000819050919050565b612a6383612a2e565b612a77612a6f82612a50565b8484546129dc565b825550505050565b600090565b612a8c612a7f565b612a97818484612a5a565b505050565b5b81811015612abb57612ab0600082612a84565b600181019050612a9d565b5050565b601f821115612b0057612ad1816129aa565b612ada846129bf565b81016020851015612ae9578190505b612afd612af5856129bf565b830182612a9c565b50505b505050565b600082821c905092915050565b6000612b2360001984600802612b05565b1980831691505092915050565b6000612b3c8383612b12565b9150826002028217905092915050565b612b558261239c565b67ffffffffffffffff811115612b6e57612b6d61202d565b5b612b788254612979565b612b83828285612abf565b600060209050601f831160018114612bb65760008415612ba4578287015190505b612bae8582612b30565b865550612c16565b601f198416612bc4866129aa565b60005b82811015612bec57848901518255600182019150602085019450602081019050612bc7565b86831015612c095784890151612c05601f891682612b12565b8355505b6001600288020188555050505b505050505050565b7f4e487b7100000000000000000000000000000000000000000000000000000000600052601160045260246000fd5b6000612c5882612796565b915060ff8203612c6b57612c6a612c1e565b5b600182019050919050565b600082825260208201905092915050565b6000612c928261239c565b612c9c8185612c76565b9350612cac8185602086016123b8565b612cb58161201c565b840191505092915050565b60006040830160008301518482036000860152612cdd8282612c87565b91505060208301518482036020860152612cf78282612c87565b9150508091505092915050565b60006020820190508181036000830152612d1e8184612cc0565b905092915050565b7f4f6e6c792076616c696461746f722063616e20636f6d6d697421000000000000600082015250565b6000612d5c601a836123a7565b9150612d6782612d26565b602082019050919050565b60006020820190508181036000830152612d8b81612d4f565b9050919050565b7f5468697320756e69717565206861736820697320616c7265616479207573656460008201527f2100000000000000000000000000000000000000000000000000000000000000602082015250565b6000612dee6021836123a7565b9150612df982612d92565b604082019050919050565b60006020820190508181036000830152612e1d81612de1565b9050919050565b7f5f6c6566742073686f756c6420626520696e7369646520746865206669656c64600082015250565b6000612e5a6020836123a7565b9150612e6582612e24565b602082019050919050565b60006020820190508181036000830152612e8981612e4d565b9050919050565b7f5f72696768742073686f756c6420626520696e7369646520746865206669656c60008201527f6400000000000000000000000000000000000000000000000000000000000000602082015250565b6000612eec6021836123a7565b9150612ef782612e90565b604082019050919050565b60006020820190508181036000830152612f1b81612edf565b9050919050565b6000819050919050565b6000612f47612f42612f3d84612f22565b6122f5565b611fbc565b9050919050565b612f5781612f2c565b82525050565b6000606082019050612f726000830186611fc6565b612f7f6020830185611fc6565b612f8c6040830184612f4e565b949350505050565b600081519050612fa381612206565b92915050565b60008060408385031215612fc057612fbf612008565b5b6000612fce85828601612f94565b9250506020612fdf85828601612f94565b9150509250929050565b7f4e487b7100000000000000000000000000000000000000000000000000000000600052601260045260246000fd5b60006130238261246d565b91506000820361303657613035612c1e565b5b600182039050919050565b7f4f6e6c79206f776e65722063616e206164642076616c696461746f7221000000600082015250565b6000613077601d836123a7565b915061308282613041565b602082019050919050565b600060208201905081810360008301526130a68161306a565b9050919050565b7f496e76616c6964206f7074696f6e210000000000000000000000000000000000600082015250565b60006130e3600f836123a7565b91506130ee826130ad565b602082019050919050565b60006020820190508181036000830152613112816130d6565b9050919050565b600061312482611fbc565b915061312f83611fbc565b925082820190508082111561314757613146612c1e565b5b92915050565b7f416c726561647920736574000000000000000000000000000000000000000000600082015250565b6000613183600b836123a7565b915061318e8261314d565b602082019050919050565b600060208201905081810360008301526131b281613176565b9050919050565b7f496e646578206f7574206f6620626f756e647300000000000000000000000000600082015250565b60006131ef6013836123a7565b91506131fa826131b9565b602082019050919050565b6000602082019050818103600083015261321e816131e2565b9050919050565b7f54686520636f6d6d69746d656e7420686173206265656e207375626d6974746560008201527f6400000000000000000000000000000000000000000000000000000000000000602082015250565b60006132816021836123a7565b915061328c82613225565b604082019050919050565b600060208201905081810360008301526132b081613274565b9050919050565b60006040820190506132cc600083018561247d565b6132d96020830184611fc6565b9392505050565b7f546865206e756c6c696669657220686173206265656e207375626d6974746564600082015250565b60006133166020836123a7565b9150613321826132e0565b602082019050919050565b6000602082019050818103600083015261334581613309565b9050919050565b7f43616e6e6f742066696e6420796f7572206d65726b6c6520726f6f7400000000600082015250565b6000613382601c836123a7565b915061338d8261334c565b602082019050919050565b600060208201905081810360008301526133b181613375565b9050919050565b600060029050919050565b600081905092915050565b6000819050919050565b6133e181611fbc565b82525050565b60006133f383836133d8565b60208301905092915050565b6000602082019050919050565b613415816133b8565b61341f81846133c3565b925061342a826133ce565b8060005b8381101561345b57815161344287826133e7565b965061344d836133ff565b92505060018101905061342e565b505050505050565b600060029050919050565b600081905092915050565b6000819050919050565b600081905092915050565b613497816133b8565b6134a18184613483565b92506134ac826133ce565b8060005b838110156134dd5781516134c487826133e7565b96506134cf836133ff565b9250506001810190506134b0565b505050505050565b60006134f1838361348e565b60408301905092915050565b6000602082019050919050565b61351381613463565b61351d818461346e565b925061352882613479565b8060005b8381101561355957815161354087826134e5565b965061354b836134fd565b92505060018101905061352c565b505050505050565b600061014082019050613577600083018761340c565b613584604083018661350a565b61359160c083018561340c565b61359f61010083018461340c565b95945050505050565b6135b1816121d0565b81146135bc57600080fd5b50565b6000815190506135ce816135a8565b92915050565b6000602082840312156135ea576135e9612008565b5b60006135f8848285016135bf565b91505092915050565b7f496e76616c69642070726f6f6600000000000000000000000000000000000000600082015250565b6000613637600d836123a7565b915061364282613601565b602082019050919050565b600060208201905081810360008301526136668161362a565b9050919050565b600061367882611fbc565b915061368383611fbc565b925082820261369181611fbc565b915082820484148315176136a8576136a7612c1e565b5b5092915050565b60008160011c9050919050565b6000808291508390505b6001851115613706578086048111156136e2576136e1612c1e565b5b60018516156136f15780820291505b80810290506136ff856136af565b94506136c6565b94509492505050565b60008261371f57600190506137db565b8161372d57600090506137db565b8160018114613743576002811461374d5761377c565b60019150506137db565b60ff84111561375f5761375e612c1e565b5b8360020a91508482111561377657613775612c1e565b5b506137db565b5060208310610133831016604e8410600b84101617156137b15782820a9050838111156137ac576137ab612c1e565b5b6137db565b6137be84848460016136bc565b925090508184048111156137d5576137d4612c1e565b5b81810290505b9392505050565b60006137ed8261246d565b91506137f88361246d565b925061380963ffffffff848461370f565b905092915050565b7f4d65726b6c6520747265652069732066756c6c2e204e6f206d6f7265206c656160008201527f7665732063616e20626520616464656400000000000000000000000000000000602082015250565b600061386d6030836123a7565b915061387882613811565b604082019050919050565b6000602082019050818103600083015261389c81613860565b9050919050565b60006138ae8261246d565b91506138b98361246d565b9250826138c9576138c8612fe9565b5b828206905092915050565b60006138df8261246d565b91506138ea8361246d565b9250826138fa576138f9612fe9565b5b828204905092915050565b60006139108261246d565b915063ffffffff820361392657613925612c1e565b5b600182019050919050565b600061393c8261246d565b91506139478361246d565b9250828201905063ffffffff81111561396357613962612c1e565b5b92915050565b6000819050919050565b600061397e82613969565b915061398983613969565b92508282039050818112600084121682821360008512151617156139b0576139af612c1e565b5b92915050565b60006139c182613969565b91506139cc83613969565b9250826139dc576139db612fe9565b5b600160000383147f800000000000000000000000000000000000000000000000000000000000000083141615613a1557613a14612c1e565b5b828205905092915050565b6000613a2b82613969565b9150613a3683613969565b925082820190508281121560008312168382126000841215161715613a5e57613a5d612c1e565b5b92915050565b6000613a6f82613969565b9150613a7a83613969565b9250828202613a8881613969565b91507f80000000000000000000000000000000000000000000000000000000000000008414600084121615613ac057613abf612c1e565b5b8282058414831517613ad557613ad4612c1e565b5b509291505056fea26469706673582212206b147a0b7e9e5642fdd25c56cd5704c91f1e9066aaeadbfd16449648a58fbad264736f6c63430008130033","opcodes":"PUSH1 0xC0 PUSH1 0x40 MSTORE PUSH1 0x0 PUSH1 0x3 PUSH1 0x0 PUSH2 0x100 EXP DUP2 SLOAD DUP2 PUSH4 0xFFFFFFFF MUL NOT AND SWAP1 DUP4 PUSH4 0xFFFFFFFF AND MUL OR SWAP1 SSTORE POP PUSH1 0x0 PUSH1 0x3 PUSH1 0x4 PUSH2 0x100 EXP DUP2 SLOAD DUP2 PUSH4 0xFFFFFFFF MUL NOT AND SWAP1 DUP4 PUSH4 0xFFFFFFFF AND MUL OR SWAP1 SSTORE POP PUSH1 0x0 PUSH1 0x9 PUSH1 0x0 PUSH2 0x100 EXP DUP2 SLOAD DUP2 PUSH1 0xFF MUL NOT AND SWAP1 DUP4 PUSH1 0xFF AND MUL OR SWAP1 SSTORE POP CALLVALUE DUP1 ISZERO PUSH3 0x71 JUMPI PUSH1 0x0 DUP1 REVERT JUMPDEST POP PUSH1 0x40 MLOAD PUSH3 0x48D4 CODESIZE SUB DUP1 PUSH3 0x48D4 DUP4 CODECOPY DUP2 DUP2 ADD PUSH1 0x40 MSTORE DUP2 ADD SWAP1 PUSH3 0x97 SWAP2 SWAP1 PUSH3 0xAE9 JUMP JUMPDEST DUP4 DUP4 DUP4 DUP3 DUP3 PUSH1 0x0 DUP3 PUSH4 0xFFFFFFFF AND GT PUSH3 0xE8 JUMPI PUSH1 0x40 MLOAD PUSH32 0x8C379A000000000000000000000000000000000000000000000000000000000 DUP2 MSTORE PUSH1 0x4 ADD PUSH3 0xDF SWAP1 PUSH3 0xBE2 JUMP JUMPDEST PUSH1 0x40 MLOAD DUP1 SWAP2 SUB SWAP1 REVERT JUMPDEST PUSH1 0x20 DUP3 PUSH4 0xFFFFFFFF AND LT PUSH3 0x134 JUMPI PUSH1 0x40 MLOAD PUSH32 0x8C379A000000000000000000000000000000000000000000000000000000000 DUP2 MSTORE PUSH1 0x4 ADD PUSH3 0x12B SWAP1 PUSH3 0xC54 JUMP JUMPDEST PUSH1 0x40 MLOAD DUP1 SWAP2 SUB SWAP1 REVERT JUMPDEST DUP2 PUSH1 0x0 DUP1 PUSH2 0x100 EXP DUP2 SLOAD DUP2 PUSH4 0xFFFFFFFF MUL NOT AND SWAP1 DUP4 PUSH4 0xFFFFFFFF AND MUL OR SWAP1 SSTORE POP DUP1 PUSH20 0xFFFFFFFFFFFFFFFFFFFFFFFFFFFFFFFFFFFFFFFF AND PUSH1 0x80 DUP2 PUSH20 0xFFFFFFFFFFFFFFFFFFFFFFFFFFFFFFFFFFFFFFFF AND DUP2 MSTORE POP POP PUSH1 0x0 JUMPDEST DUP3 PUSH4 0xFFFFFFFF AND DUP2 PUSH4 0xFFFFFFFF AND LT ISZERO PUSH3 0x1EA JUMPI PUSH3 0x1B7 DUP2 PUSH4 0xFFFFFFFF AND PUSH3 0x2C6 PUSH1 0x20 SHL PUSH1 0x20 SHR JUMP JUMPDEST PUSH1 0x1 PUSH1 0x0 DUP4 PUSH4 0xFFFFFFFF AND DUP2 MSTORE PUSH1 0x20 ADD SWAP1 DUP2 MSTORE PUSH1 0x20 ADD PUSH1 0x0 KECCAK256 DUP2 SWAP1 SSTORE POP DUP1 DUP1 PUSH3 0x1E1 SWAP1 PUSH3 0xCA5 JUMP JUMPDEST SWAP2 POP POP PUSH3 0x18B JUMP JUMPDEST POP PUSH3 0x210 PUSH1 0x1 DUP4 PUSH3 0x1FE SWAP2 SWAP1 PUSH3 0xCD6 JUMP JUMPDEST PUSH4 0xFFFFFFFF AND PUSH3 0x2C6 PUSH1 0x20 SHL PUSH1 0x20 SHR JUMP JUMPDEST PUSH1 0x2 PUSH1 0x0 DUP1 DUP2 MSTORE PUSH1 0x20 ADD SWAP1 DUP2 MSTORE PUSH1 0x20 ADD PUSH1 0x0 KECCAK256 DUP2 SWAP1 SSTORE POP POP POP DUP1 PUSH20 0xFFFFFFFFFFFFFFFFFFFFFFFFFFFFFFFFFFFFFFFF AND PUSH1 0xA0 DUP2 PUSH20 0xFFFFFFFFFFFFFFFFFFFFFFFFFFFFFFFFFFFFFFFF AND DUP2 MSTORE POP POP POP POP POP CALLER PUSH1 0x6 PUSH1 0x0 PUSH2 0x100 EXP DUP2 SLOAD DUP2 PUSH20 0xFFFFFFFFFFFFFFFFFFFFFFFFFFFFFFFFFFFFFFFF MUL NOT AND SWAP1 DUP4 PUSH20 0xFFFFFFFFFFFFFFFFFFFFFFFFFFFFFFFFFFFFFFFF AND MUL OR SWAP1 SSTORE POP DUP1 PUSH1 0x9 PUSH1 0x0 PUSH2 0x100 EXP DUP2 SLOAD DUP2 PUSH1 0xFF MUL NOT AND SWAP1 DUP4 PUSH1 0xFF AND MUL OR SWAP1 SSTORE POP POP POP POP POP PUSH3 0xD87 JUMP JUMPDEST PUSH1 0x0 DUP1 DUP3 SUB PUSH3 0x2FC JUMPI PUSH32 0x2FE54C60D3ACABF3343A35B6EBA15DB4821B340F76E741E2249685ED4899AF6C PUSH1 0x0 SHL SWAP1 POP PUSH3 0x9A2 JUMP JUMPDEST PUSH1 0x1 DUP3 SUB PUSH3 0x331 JUMPI PUSH32 0x256A6135777EEE2FD26F54B8B7037A25439D5235CAEE224154186D2B8A52E31D PUSH1 0x0 SHL SWAP1 POP PUSH3 0x9A2 JUMP JUMPDEST PUSH1 0x2 DUP3 SUB PUSH3 0x366 JUMPI PUSH32 0x1151949895E82AB19924DE92C40A3D6F7BCB60D92B00504B8199613683F0C200 PUSH1 0x0 SHL SWAP1 POP PUSH3 0x9A2 JUMP JUMPDEST PUSH1 0x3 DUP3 SUB PUSH3 0x39B JUMPI PUSH32 0x20121EE811489FF8D61F09FB89E313F14959A0F28BB428A20DBA6B0B068B3BDB PUSH1 0x0 SHL SWAP1 POP PUSH3 0x9A2 JUMP JUMPDEST PUSH1 0x4 DUP3 SUB PUSH3 0x3D0 JUMPI PUSH32 0xA89CA6FFA14CC462CFEDB842C30ED221A50A3D6BF022A6A57DC82AB24C157C9 PUSH1 0x0 SHL SWAP1 POP PUSH3 0x9A2 JUMP JUMPDEST PUSH1 0x5 DUP3 SUB PUSH3 0x405 JUMPI PUSH32 0x24CA05C2B5CD42E890D6BE94C68D0689F4F21C9CEC9C0F13FE41D566DFB54959 PUSH1 0x0 SHL SWAP1 POP PUSH3 0x9A2 JUMP JUMPDEST PUSH1 0x6 DUP3 SUB PUSH3 0x43A JUMPI PUSH32 0x1CCB97C932565A92C60156BDBA2D08F3BF1377464E025CEE765679E604A7315C PUSH1 0x0 SHL SWAP1 POP PUSH3 0x9A2 JUMP JUMPDEST PUSH1 0x7 DUP3 SUB PUSH3 0x46F JUMPI PUSH32 0x19156FBD7D1A8BF5CBA8909367DE1B624534EBAB4F0F79E003BCCDD1B182BDB4 PUSH1 0x0 SHL SWAP1 POP PUSH3 0x9A2 JUMP JUMPDEST PUSH1 0x8 DUP3 SUB PUSH3 0x4A4 JUMPI PUSH32 0x261AF8C1F0912E465744641409F622D466C3920AC6E5FF37E36604CB11DFFF80 PUSH1 0x0 SHL SWAP1 POP PUSH3 0x9A2 JUMP JUMPDEST PUSH1 0x9 DUP3 SUB PUSH3 0x4D8 JUMPI PUSH31 0x58459724FF6CA5A1652FCBC3E82B93895CF08E975B19BEAB3F54C217D1C007 PUSH1 0x0 SHL SWAP1 POP PUSH3 0x9A2 JUMP JUMPDEST PUSH1 0xA DUP3 SUB PUSH3 0x50D JUMPI PUSH32 0x1F04EF20DEE48D39984D8EABE768A70EAFA6310AD20849D4573C3C40C2AD1E30 PUSH1 0x0 SHL SWAP1 POP PUSH3 0x9A2 JUMP JUMPDEST PUSH1 0xB DUP3 SUB PUSH3 0x542 JUMPI PUSH32 0x1BEA3DEC5DAB51567CE7E200A30F7BA6D4276AEAA53E2686F962A46C66D511E5 PUSH1 0x0 SHL SWAP1 POP PUSH3 0x9A2 JUMP JUMPDEST PUSH1 0xC DUP3 SUB PUSH3 0x577 JUMPI PUSH32 0xEE0F941E2DA4B9E31C3CA97A40D8FA9CE68D97C084177071B3CB46CD3372F0F PUSH1 0x0 SHL SWAP1 POP PUSH3 0x9A2 JUMP JUMPDEST PUSH1 0xD DUP3 SUB PUSH3 0x5AC JUMPI PUSH32 0x1CA9503E8935884501BBAF20BE14EB4C46B89772C97B96E3B2EBF3A36A948BBD PUSH1 0x0 SHL SWAP1 POP PUSH3 0x9A2 JUMP JUMPDEST PUSH1 0xE DUP3 SUB PUSH3 0x5E1 JUMPI PUSH32 0x133A80E30697CD55D8F7D4B0965B7BE24057BA5DC3DA898EE2187232446CB108 PUSH1 0x0 SHL SWAP1 POP PUSH3 0x9A2 JUMP JUMPDEST PUSH1 0xF DUP3 SUB PUSH3 0x616 JUMPI PUSH32 0x13E6D8FC88839ED76E182C2A779AF5B2C0DA9DD18C90427A644F7E148A6253B6 PUSH1 0x0 SHL SWAP1 POP PUSH3 0x9A2 JUMP JUMPDEST PUSH1 0x10 DUP3 SUB PUSH3 0x64B JUMPI PUSH32 0x1EB16B057A477F4BC8F572EA6BEE39561098F78F15BFB3699DCBB7BD8DB61854 PUSH1 0x0 SHL SWAP1 POP PUSH3 0x9A2 JUMP JUMPDEST PUSH1 0x11 DUP3 SUB PUSH3 0x680 JUMPI PUSH32 0xDA2CB16A1CEAABF1C16B838F7A9E3F2A3A3088D9E0A6DEBAA748114620696EA PUSH1 0x0 SHL SWAP1 POP PUSH3 0x9A2 JUMP JUMPDEST PUSH1 0x12 DUP3 SUB PUSH3 0x6B5 JUMPI PUSH32 0x24A3B3D822420B14B5D8CB6C28A574F01E98EA9E940551D2EBD75CEE12649F9D PUSH1 0x0 SHL SWAP1 POP PUSH3 0x9A2 JUMP JUMPDEST PUSH1 0x13 DUP3 SUB PUSH3 0x6EA JUMPI PUSH32 0x198622ACBD783D1B0D9064105B1FC8E4D8889DE95C4C519B3F635809FE6AFC05 PUSH1 0x0 SHL SWAP1 POP PUSH3 0x9A2 JUMP JUMPDEST PUSH1 0x14 DUP3 SUB PUSH3 0x71F JUMPI PUSH32 0x29D7ED391256CCC3EA596C86E933B89FF339D25EA8DDCED975AE2FE30B5296D4 PUSH1 0x0 SHL SWAP1 POP PUSH3 0x9A2 JUMP JUMPDEST PUSH1 0x15 DUP3 SUB PUSH3 0x754 JUMPI PUSH32 0x19BE59F2F0413CE78C0C3703A3A5451B1D7F39629FA33ABD11548A76065B2967 PUSH1 0x0 SHL SWAP1 POP PUSH3 0x9A2 JUMP JUMPDEST PUSH1 0x16 DUP3 SUB PUSH3 0x789 JUMPI PUSH32 0x1FF3F61797E538B70E619310D33F2A063E7EB59104E112E95738DA1254DC3453 PUSH1 0x0 SHL SWAP1 POP PUSH3 0x9A2 JUMP JUMPDEST PUSH1 0x17 DUP3 SUB PUSH3 0x7BE JUMPI PUSH32 0x10C16AE9959CF8358980D9DD9616E48228737310A10E2B6B731C1A548F036C48 PUSH1 0x0 SHL SWAP1 POP PUSH3 0x9A2 JUMP JUMPDEST PUSH1 0x18 DUP3 SUB PUSH3 0x7F3 JUMPI PUSH32 0xBA433A63174A90AC20992E75E3095496812B652685B5E1A2EAE0B1BF4E8FCD1 PUSH1 0x0 SHL SWAP1 POP PUSH3 0x9A2 JUMP JUMPDEST PUSH1 0x19 DUP3 SUB PUSH3 0x828 JUMPI PUSH32 0x19DDB9DF2BC98D987D0DFECA9D2B643DEAFAB8F7036562E627C3667266A044C PUSH1 0x0 SHL SWAP1 POP PUSH3 0x9A2 JUMP JUMPDEST PUSH1 0x1A DUP3 SUB PUSH3 0x85D JUMPI PUSH32 0x2D3C88B23175C5A5565DB928414C66D1912B11ACF974B2E644CAAAC04739CE99 PUSH1 0x0 SHL SWAP1 POP PUSH3 0x9A2 JUMP JUMPDEST PUSH1 0x1B DUP3 SUB PUSH3 0x892 JUMPI PUSH32 0x2EAB55F6AE4E66E32C5189EED5C470840863445760F5ED7E7B69B2A62600F354 PUSH1 0x0 SHL SWAP1 POP PUSH3 0x9A2 JUMP JUMPDEST PUSH1 0x1C DUP3 SUB PUSH3 0x8C6 JUMPI PUSH31 0x2DF37A2642621802383CF952BF4DD1F32E05433BEEB1FD41031FB7EACE979D PUSH1 0x0 SHL SWAP1 POP PUSH3 0x9A2 JUMP JUMPDEST PUSH1 0x1D DUP3 SUB PUSH3 0x8FB JUMPI PUSH32 0x104AEB41435DB66C3E62FECCC1D6F5D98D0A0ED75D1374DB457CF462E3A1F427 PUSH1 0x0 SHL SWAP1 POP PUSH3 0x9A2 JUMP JUMPDEST PUSH1 0x1E DUP3 SUB PUSH3 0x930 JUMPI PUSH32 0x1F3C6FD858E9A7D4B0D1F38E256A09D81D5A5E3C963987E2D4B814CFAB7C6EBB PUSH1 0x0 SHL SWAP1 POP PUSH3 0x9A2 JUMP JUMPDEST PUSH1 0x1F DUP3 SUB PUSH3 0x965 JUMPI PUSH32 0x2C7A07D20DFF79D01FECEDC1134284A8D08436606C93693B67E333F671BF69CC PUSH1 0x0 SHL SWAP1 POP PUSH3 0x9A2 JUMP JUMPDEST PUSH1 0x40 MLOAD PUSH32 0x8C379A000000000000000000000000000000000000000000000000000000000 DUP2 MSTORE PUSH1 0x4 ADD PUSH3 0x999 SWAP1 PUSH3 0xD65 JUMP JUMPDEST PUSH1 0x40 MLOAD DUP1 SWAP2 SUB SWAP1 REVERT JUMPDEST SWAP2 SWAP1 POP JUMP JUMPDEST PUSH1 0x0 DUP1 REVERT JUMPDEST PUSH1 0x0 PUSH4 0xFFFFFFFF DUP3 AND SWAP1 POP SWAP2 SWAP1 POP JUMP JUMPDEST PUSH3 0x9C7 DUP2 PUSH3 0x9AC JUMP JUMPDEST DUP2 EQ PUSH3 0x9D3 JUMPI PUSH1 0x0 DUP1 REVERT JUMPDEST POP JUMP JUMPDEST PUSH1 0x0 DUP2 MLOAD SWAP1 POP PUSH3 0x9E7 DUP2 PUSH3 0x9BC JUMP JUMPDEST SWAP3 SWAP2 POP POP JUMP JUMPDEST PUSH1 0x0 PUSH20 0xFFFFFFFFFFFFFFFFFFFFFFFFFFFFFFFFFFFFFFFF DUP3 AND SWAP1 POP SWAP2 SWAP1 POP JUMP JUMPDEST PUSH1 0x0 PUSH3 0xA1A DUP3 PUSH3 0x9ED JUMP JUMPDEST SWAP1 POP SWAP2 SWAP1 POP JUMP JUMPDEST PUSH1 0x0 PUSH3 0xA2E DUP3 PUSH3 0xA0D JUMP JUMPDEST SWAP1 POP SWAP2 SWAP1 POP JUMP JUMPDEST PUSH3 0xA40 DUP2 PUSH3 0xA21 JUMP JUMPDEST DUP2 EQ PUSH3 0xA4C JUMPI PUSH1 0x0 DUP1 REVERT JUMPDEST POP JUMP JUMPDEST PUSH1 0x0 DUP2 MLOAD SWAP1 POP PUSH3 0xA60 DUP2 PUSH3 0xA35 JUMP JUMPDEST SWAP3 SWAP2 POP POP JUMP JUMPDEST PUSH1 0x0 PUSH3 0xA73 DUP3 PUSH3 0xA0D JUMP JUMPDEST SWAP1 POP SWAP2 SWAP1 POP JUMP JUMPDEST PUSH3 0xA85 DUP2 PUSH3 0xA66 JUMP JUMPDEST DUP2 EQ PUSH3 0xA91 JUMPI PUSH1 0x0 DUP1 REVERT JUMPDEST POP JUMP JUMPDEST PUSH1 0x0 DUP2 MLOAD SWAP1 POP PUSH3 0xAA5 DUP2 PUSH3 0xA7A JUMP JUMPDEST SWAP3 SWAP2 POP POP JUMP JUMPDEST PUSH1 0x0 PUSH1 0xFF DUP3 AND SWAP1 POP SWAP2 SWAP1 POP JUMP JUMPDEST PUSH3 0xAC3 DUP2 PUSH3 0xAAB JUMP JUMPDEST DUP2 EQ PUSH3 0xACF JUMPI PUSH1 0x0 DUP1 REVERT JUMPDEST POP JUMP JUMPDEST PUSH1 0x0 DUP2 MLOAD SWAP1 POP PUSH3 0xAE3 DUP2 PUSH3 0xAB8 JUMP JUMPDEST SWAP3 SWAP2 POP POP JUMP JUMPDEST PUSH1 0x0 DUP1 PUSH1 0x0 DUP1 PUSH1 0x80 DUP6 DUP8 SUB SLT ISZERO PUSH3 0xB06 JUMPI PUSH3 0xB05 PUSH3 0x9A7 JUMP JUMPDEST JUMPDEST PUSH1 0x0 PUSH3 0xB16 DUP8 DUP3 DUP9 ADD PUSH3 0x9D6 JUMP JUMPDEST SWAP5 POP POP PUSH1 0x20 PUSH3 0xB29 DUP8 DUP3 DUP9 ADD PUSH3 0xA4F JUMP JUMPDEST SWAP4 POP POP PUSH1 0x40 PUSH3 0xB3C DUP8 DUP3 DUP9 ADD PUSH3 0xA94 JUMP JUMPDEST SWAP3 POP POP PUSH1 0x60 PUSH3 0xB4F DUP8 DUP3 DUP9 ADD PUSH3 0xAD2 JUMP JUMPDEST SWAP2 POP POP SWAP3 SWAP6 SWAP2 SWAP5 POP SWAP3 POP JUMP JUMPDEST PUSH1 0x0 DUP3 DUP3 MSTORE PUSH1 0x20 DUP3 ADD SWAP1 POP SWAP3 SWAP2 POP POP JUMP JUMPDEST PUSH32 0x5F6C6576656C732073686F756C642062652067726561746572207468616E207A PUSH1 0x0 DUP3 ADD MSTORE PUSH32 0x65726F0000000000000000000000000000000000000000000000000000000000 PUSH1 0x20 DUP3 ADD MSTORE POP JUMP JUMPDEST PUSH1 0x0 PUSH3 0xBCA PUSH1 0x23 DUP4 PUSH3 0xB5B JUMP JUMPDEST SWAP2 POP PUSH3 0xBD7 DUP3 PUSH3 0xB6C JUMP JUMPDEST PUSH1 0x40 DUP3 ADD SWAP1 POP SWAP2 SWAP1 POP JUMP JUMPDEST PUSH1 0x0 PUSH1 0x20 DUP3 ADD SWAP1 POP DUP2 DUP2 SUB PUSH1 0x0 DUP4 ADD MSTORE PUSH3 0xBFD DUP2 PUSH3 0xBBB JUMP JUMPDEST SWAP1 POP SWAP2 SWAP1 POP JUMP JUMPDEST PUSH32 0x5F6C6576656C732073686F756C64206265206C657373207468616E2033320000 PUSH1 0x0 DUP3 ADD MSTORE POP JUMP JUMPDEST PUSH1 0x0 PUSH3 0xC3C PUSH1 0x1E DUP4 PUSH3 0xB5B JUMP JUMPDEST SWAP2 POP PUSH3 0xC49 DUP3 PUSH3 0xC04 JUMP JUMPDEST PUSH1 0x20 DUP3 ADD SWAP1 POP SWAP2 SWAP1 POP JUMP JUMPDEST PUSH1 0x0 PUSH1 0x20 DUP3 ADD SWAP1 POP DUP2 DUP2 SUB PUSH1 0x0 DUP4 ADD MSTORE PUSH3 0xC6F DUP2 PUSH3 0xC2D JUMP JUMPDEST SWAP1 POP SWAP2 SWAP1 POP JUMP JUMPDEST PUSH32 0x4E487B7100000000000000000000000000000000000000000000000000000000 PUSH1 0x0 MSTORE PUSH1 0x11 PUSH1 0x4 MSTORE PUSH1 0x24 PUSH1 0x0 REVERT JUMPDEST PUSH1 0x0 PUSH3 0xCB2 DUP3 PUSH3 0x9AC JUMP JUMPDEST SWAP2 POP PUSH4 0xFFFFFFFF DUP3 SUB PUSH3 0xCCB JUMPI PUSH3 0xCCA PUSH3 0xC76 JUMP JUMPDEST JUMPDEST PUSH1 0x1 DUP3 ADD SWAP1 POP SWAP2 SWAP1 POP JUMP JUMPDEST PUSH1 0x0 PUSH3 0xCE3 DUP3 PUSH3 0x9AC JUMP JUMPDEST SWAP2 POP PUSH3 0xCF0 DUP4 PUSH3 0x9AC JUMP JUMPDEST SWAP3 POP DUP3 DUP3 SUB SWAP1 POP PUSH4 0xFFFFFFFF DUP2 GT ISZERO PUSH3 0xD0F JUMPI PUSH3 0xD0E PUSH3 0xC76 JUMP JUMPDEST JUMPDEST SWAP3 SWAP2 POP POP JUMP JUMPDEST PUSH32 0x496E646578206F7574206F6620626F756E647300000000000000000000000000 PUSH1 0x0 DUP3 ADD MSTORE POP JUMP JUMPDEST PUSH1 0x0 PUSH3 0xD4D PUSH1 0x13 DUP4 PUSH3 0xB5B JUMP JUMPDEST SWAP2 POP PUSH3 0xD5A DUP3 PUSH3 0xD15 JUMP JUMPDEST PUSH1 0x20 DUP3 ADD SWAP1 POP SWAP2 SWAP1 POP JUMP JUMPDEST PUSH1 0x0 PUSH1 0x20 DUP3 ADD SWAP1 POP DUP2 DUP2 SUB PUSH1 0x0 DUP4 ADD MSTORE PUSH3 0xD80 DUP2 PUSH3 0xD3E JUMP JUMPDEST SWAP1 POP SWAP2 SWAP1 POP JUMP JUMPDEST PUSH1 0x80 MLOAD PUSH1 0xA0 MLOAD PUSH2 0x3B12 PUSH3 0xDC2 PUSH1 0x0 CODECOPY PUSH1 0x0 DUP2 DUP2 PUSH2 0x90E ADD MSTORE PUSH2 0x1ACD ADD MSTORE PUSH1 0x0 DUP2 DUP2 PUSH2 0xB7B ADD MSTORE DUP2 DUP2 PUSH2 0xC55 ADD MSTORE PUSH2 0x18DA ADD MSTORE PUSH2 0x3B12 PUSH1 0x0 RETURN INVALID PUSH1 0x80 PUSH1 0x40 MSTORE CALLVALUE DUP1 ISZERO PUSH2 0x10 JUMPI PUSH1 0x0 DUP1 REVERT JUMPDEST POP PUSH1 0x4 CALLDATASIZE LT PUSH2 0x1A9 JUMPI PUSH1 0x0 CALLDATALOAD PUSH1 0xE0 SHR DUP1 PUSH4 0x955E0377 GT PUSH2 0xF9 JUMPI DUP1 PUSH4 0xE4ED54A4 GT PUSH2 0x97 JUMPI DUP1 PUSH4 0xED33639F GT PUSH2 0x71 JUMPI DUP1 PUSH4 0xED33639F EQ PUSH2 0x522 JUMPI DUP1 PUSH4 0xF178E47C EQ PUSH2 0x540 JUMPI DUP1 PUSH4 0xFA52C7D8 EQ PUSH2 0x570 JUMPI DUP1 PUSH4 0xFC7E9C6F EQ PUSH2 0x5A0 JUMPI PUSH2 0x1A9 JUMP JUMPDEST DUP1 PUSH4 0xE4ED54A4 EQ PUSH2 0x4A4 JUMPI DUP1 PUSH4 0xE8295588 EQ PUSH2 0x4D4 JUMPI DUP1 PUSH4 0xEC732959 EQ PUSH2 0x504 JUMPI PUSH2 0x1A9 JUMP JUMPDEST DUP1 PUSH4 0xC2B40AE4 GT PUSH2 0xD3 JUMPI DUP1 PUSH4 0xC2B40AE4 EQ PUSH2 0x40A JUMPI DUP1 PUSH4 0xCD87A3B4 EQ PUSH2 0x43A JUMPI DUP1 PUSH4 0xCE8F6377 EQ PUSH2 0x458 JUMPI DUP1 PUSH4 0xDDF02388 EQ PUSH2 0x474 JUMPI PUSH2 0x1A9 JUMP JUMPDEST DUP1 PUSH4 0x955E0377 EQ PUSH2 0x3A0 JUMPI DUP1 PUSH4 0x9FCA5169 EQ PUSH2 0x3D0 JUMPI DUP1 PUSH4 0xBA70F757 EQ PUSH2 0x3EC JUMPI PUSH2 0x1A9 JUMP JUMPDEST DUP1 PUSH4 0x414A37BA GT PUSH2 0x166 JUMPI DUP1 PUSH4 0x6D9833E3 GT PUSH2 0x140 JUMPI DUP1 PUSH4 0x6D9833E3 EQ PUSH2 0x304 JUMPI DUP1 PUSH4 0x839DF945 EQ PUSH2 0x334 JUMPI DUP1 PUSH4 0x8DA5CB5B EQ PUSH2 0x364 JUMPI DUP1 PUSH4 0x90EEB02B EQ PUSH2 0x382 JUMPI PUSH2 0x1A9 JUMP JUMPDEST DUP1 PUSH4 0x414A37BA EQ PUSH2 0x298 JUMPI DUP1 PUSH4 0x4ECF518B EQ PUSH2 0x2B6 JUMPI DUP1 PUSH4 0x5BB93995 EQ PUSH2 0x2D4 JUMPI PUSH2 0x1A9 JUMP JUMPDEST DUP1 PUSH4 0x2A251A3 EQ PUSH2 0x1AE JUMPI DUP1 PUSH4 0xDBCE4DD EQ PUSH2 0x1CD JUMPI DUP1 PUSH4 0x1407BEB8 EQ PUSH2 0x1FD JUMPI DUP1 PUSH4 0x2997E86B EQ PUSH2 0x219 JUMPI DUP1 PUSH4 0x2B7AC3F3 EQ PUSH2 0x249 JUMPI DUP1 PUSH4 0x3477EE2E EQ PUSH2 0x267 JUMPI JUMPDEST PUSH1 0x0 DUP1 REVERT JUMPDEST PUSH2 0x1B6 PUSH2 0x5BE JUMP JUMPDEST PUSH1 0x40 MLOAD PUSH2 0x1C4 SWAP3 SWAP2 SWAP1 PUSH2 0x1FD5 JUMP JUMPDEST PUSH1 0x40 MLOAD DUP1 SWAP2 SUB SWAP1 RETURN JUMPDEST PUSH2 0x1E7 PUSH1 0x4 DUP1 CALLDATASIZE SUB DUP2 ADD SWAP1 PUSH2 0x1E2 SWAP2 SWAP1 PUSH2 0x2158 JUMP JUMPDEST PUSH2 0x5D0 JUMP JUMPDEST PUSH1 0x40 MLOAD PUSH2 0x1F4 SWAP2 SWAP1 PUSH2 0x21EB JUMP JUMPDEST PUSH1 0x40 MLOAD DUP1 SWAP2 SUB SWAP1 RETURN JUMPDEST PUSH2 0x217 PUSH1 0x4 DUP1 CALLDATASIZE SUB DUP2 ADD SWAP1 PUSH2 0x212 SWAP2 SWAP1 PUSH2 0x2232 JUMP JUMPDEST PUSH2 0x7C3 JUMP JUMPDEST STOP JUMPDEST PUSH2 0x233 PUSH1 0x4 DUP1 CALLDATASIZE SUB DUP2 ADD SWAP1 PUSH2 0x22E SWAP2 SWAP1 PUSH2 0x22A8 JUMP JUMPDEST PUSH2 0x8EC JUMP JUMPDEST PUSH1 0x40 MLOAD PUSH2 0x240 SWAP2 SWAP1 PUSH2 0x21EB JUMP JUMPDEST PUSH1 0x40 MLOAD DUP1 SWAP2 SUB SWAP1 RETURN JUMPDEST PUSH2 0x251 PUSH2 0x90C JUMP JUMPDEST PUSH1 0x40 MLOAD PUSH2 0x25E SWAP2 SWAP1 PUSH2 0x2354 JUMP JUMPDEST PUSH1 0x40 MLOAD DUP1 SWAP2 SUB SWAP1 RETURN JUMPDEST PUSH2 0x281 PUSH1 0x4 DUP1 CALLDATASIZE SUB DUP2 ADD SWAP1 PUSH2 0x27C SWAP2 SWAP1 PUSH2 0x236F JUMP JUMPDEST PUSH2 0x930 JUMP JUMPDEST PUSH1 0x40 MLOAD PUSH2 0x28F SWAP3 SWAP2 SWAP1 PUSH2 0x241B JUMP JUMPDEST PUSH1 0x40 MLOAD DUP1 SWAP2 SUB SWAP1 RETURN JUMPDEST PUSH2 0x2A0 PUSH2 0xA74 JUMP JUMPDEST PUSH1 0x40 MLOAD PUSH2 0x2AD SWAP2 SWAP1 PUSH2 0x2452 JUMP JUMPDEST PUSH1 0x40 MLOAD DUP1 SWAP2 SUB SWAP1 RETURN JUMPDEST PUSH2 0x2BE PUSH2 0xA98 JUMP JUMPDEST PUSH1 0x40 MLOAD PUSH2 0x2CB SWAP2 SWAP1 PUSH2 0x248C JUMP JUMPDEST PUSH1 0x40 MLOAD DUP1 SWAP2 SUB SWAP1 RETURN JUMPDEST PUSH2 0x2EE PUSH1 0x4 DUP1 CALLDATASIZE SUB DUP2 ADD SWAP1 PUSH2 0x2E9 SWAP2 SWAP1 PUSH2 0x2232 JUMP JUMPDEST PUSH2 0xAAC JUMP JUMPDEST PUSH1 0x40 MLOAD PUSH2 0x2FB SWAP2 SWAP1 PUSH2 0x24B6 JUMP JUMPDEST PUSH1 0x40 MLOAD DUP1 SWAP2 SUB SWAP1 RETURN JUMPDEST PUSH2 0x31E PUSH1 0x4 DUP1 CALLDATASIZE SUB DUP2 ADD SWAP1 PUSH2 0x319 SWAP2 SWAP1 PUSH2 0x22A8 JUMP JUMPDEST PUSH2 0xD07 JUMP JUMPDEST PUSH1 0x40 MLOAD PUSH2 0x32B SWAP2 SWAP1 PUSH2 0x21EB JUMP JUMPDEST PUSH1 0x40 MLOAD DUP1 SWAP2 SUB SWAP1 RETURN JUMPDEST PUSH2 0x34E PUSH1 0x4 DUP1 CALLDATASIZE SUB DUP2 ADD SWAP1 PUSH2 0x349 SWAP2 SWAP1 PUSH2 0x22A8 JUMP JUMPDEST PUSH2 0xDA4 JUMP JUMPDEST PUSH1 0x40 MLOAD PUSH2 0x35B SWAP2 SWAP1 PUSH2 0x21EB JUMP JUMPDEST PUSH1 0x40 MLOAD DUP1 SWAP2 SUB SWAP1 RETURN JUMPDEST PUSH2 0x36C PUSH2 0xDC4 JUMP JUMPDEST PUSH1 0x40 MLOAD PUSH2 0x379 SWAP2 SWAP1 PUSH2 0x24F2 JUMP JUMPDEST PUSH1 0x40 MLOAD DUP1 SWAP2 SUB SWAP1 RETURN JUMPDEST PUSH2 0x38A PUSH2 0xDEA JUMP JUMPDEST PUSH1 0x40 MLOAD PUSH2 0x397 SWAP2 SWAP1 PUSH2 0x248C JUMP JUMPDEST PUSH1 0x40 MLOAD DUP1 SWAP2 SUB SWAP1 RETURN JUMPDEST PUSH2 0x3BA PUSH1 0x4 DUP1 CALLDATASIZE SUB DUP2 ADD SWAP1 PUSH2 0x3B5 SWAP2 SWAP1 PUSH2 0x236F JUMP JUMPDEST PUSH2 0xE00 JUMP JUMPDEST PUSH1 0x40 MLOAD PUSH2 0x3C7 SWAP2 SWAP1 PUSH2 0x2452 JUMP JUMPDEST PUSH1 0x40 MLOAD DUP1 SWAP2 SUB SWAP1 RETURN JUMPDEST PUSH2 0x3EA PUSH1 0x4 DUP1 CALLDATASIZE SUB DUP2 ADD SWAP1 PUSH2 0x3E5 SWAP2 SWAP1 PUSH2 0x2539 JUMP JUMPDEST PUSH2 0xE1D JUMP JUMPDEST STOP JUMPDEST PUSH2 0x3F4 PUSH2 0xF08 JUMP JUMPDEST PUSH1 0x40 MLOAD PUSH2 0x401 SWAP2 SWAP1 PUSH2 0x24B6 JUMP JUMPDEST PUSH1 0x40 MLOAD DUP1 SWAP2 SUB SWAP1 RETURN JUMPDEST PUSH2 0x424 PUSH1 0x4 DUP1 CALLDATASIZE SUB DUP2 ADD SWAP1 PUSH2 0x41F SWAP2 SWAP1 PUSH2 0x236F JUMP JUMPDEST PUSH2 0xF3B JUMP JUMPDEST PUSH1 0x40 MLOAD PUSH2 0x431 SWAP2 SWAP1 PUSH2 0x24B6 JUMP JUMPDEST PUSH1 0x40 MLOAD DUP1 SWAP2 SUB SWAP1 RETURN JUMPDEST PUSH2 0x442 PUSH2 0xF53 JUMP JUMPDEST PUSH1 0x40 MLOAD PUSH2 0x44F SWAP2 SWAP1 PUSH2 0x248C JUMP JUMPDEST PUSH1 0x40 MLOAD DUP1 SWAP2 SUB SWAP1 RETURN JUMPDEST PUSH2 0x472 PUSH1 0x4 DUP1 CALLDATASIZE SUB DUP2 ADD SWAP1 PUSH2 0x46D SWAP2 SWAP1 PUSH2 0x26CD JUMP JUMPDEST PUSH2 0xF58 JUMP JUMPDEST STOP JUMPDEST PUSH2 0x48E PUSH1 0x4 DUP1 CALLDATASIZE SUB DUP2 ADD SWAP1 PUSH2 0x489 SWAP2 SWAP1 PUSH2 0x27CF JUMP JUMPDEST PUSH2 0xFFF JUMP JUMPDEST PUSH1 0x40 MLOAD PUSH2 0x49B SWAP2 SWAP1 PUSH2 0x21EB JUMP JUMPDEST PUSH1 0x40 MLOAD DUP1 SWAP2 SUB SWAP1 RETURN JUMPDEST PUSH2 0x4BE PUSH1 0x4 DUP1 CALLDATASIZE SUB DUP2 ADD SWAP1 PUSH2 0x4B9 SWAP2 SWAP1 PUSH2 0x27CF JUMP JUMPDEST PUSH2 0x110A JUMP JUMPDEST PUSH1 0x40 MLOAD PUSH2 0x4CB SWAP2 SWAP1 PUSH2 0x21EB JUMP JUMPDEST PUSH1 0x40 MLOAD DUP1 SWAP2 SUB SWAP1 RETURN JUMPDEST PUSH2 0x4EE PUSH1 0x4 DUP1 CALLDATASIZE SUB DUP2 ADD SWAP1 PUSH2 0x4E9 SWAP2 SWAP1 PUSH2 0x236F JUMP JUMPDEST PUSH2 0x1215 JUMP JUMPDEST PUSH1 0x40 MLOAD PUSH2 0x4FB SWAP2 SWAP1 PUSH2 0x24B6 JUMP JUMPDEST PUSH1 0x40 MLOAD DUP1 SWAP2 SUB SWAP1 RETURN JUMPDEST PUSH2 0x50C PUSH2 0x18B4 JUMP JUMPDEST PUSH1 0x40 MLOAD PUSH2 0x519 SWAP2 SWAP1 PUSH2 0x2452 JUMP JUMPDEST PUSH1 0x40 MLOAD DUP1 SWAP2 SUB SWAP1 RETURN JUMPDEST PUSH2 0x52A PUSH2 0x18D8 JUMP JUMPDEST PUSH1 0x40 MLOAD PUSH2 0x537 SWAP2 SWAP1 PUSH2 0x2857 JUMP JUMPDEST PUSH1 0x40 MLOAD DUP1 SWAP2 SUB SWAP1 RETURN JUMPDEST PUSH2 0x55A PUSH1 0x4 DUP1 CALLDATASIZE SUB DUP2 ADD SWAP1 PUSH2 0x555 SWAP2 SWAP1 PUSH2 0x236F JUMP JUMPDEST PUSH2 0x18FC JUMP JUMPDEST PUSH1 0x40 MLOAD PUSH2 0x567 SWAP2 SWAP1 PUSH2 0x24B6 JUMP JUMPDEST PUSH1 0x40 MLOAD DUP1 SWAP2 SUB SWAP1 RETURN JUMPDEST PUSH2 0x58A PUSH1 0x4 DUP1 CALLDATASIZE SUB DUP2 ADD SWAP1 PUSH2 0x585 SWAP2 SWAP1 PUSH2 0x2539 JUMP JUMPDEST PUSH2 0x1914 JUMP JUMPDEST PUSH1 0x40 MLOAD PUSH2 0x597 SWAP2 SWAP1 PUSH2 0x21EB JUMP JUMPDEST PUSH1 0x40 MLOAD DUP1 SWAP2 SUB SWAP1 RETURN JUMPDEST PUSH2 0x5A8 PUSH2 0x1934 JUMP JUMPDEST PUSH1 0x40 MLOAD PUSH2 0x5B5 SWAP2 SWAP1 PUSH2 0x248C JUMP JUMPDEST PUSH1 0x40 MLOAD DUP1 SWAP2 SUB SWAP1 RETURN JUMPDEST PUSH1 0xC DUP1 PUSH1 0x0 ADD SLOAD SWAP1 DUP1 PUSH1 0x1 ADD SLOAD SWAP1 POP DUP3 JUMP JUMPDEST PUSH1 0x0 PUSH1 0x6 PUSH1 0x0 SWAP1 SLOAD SWAP1 PUSH2 0x100 EXP SWAP1 DIV PUSH20 0xFFFFFFFFFFFFFFFFFFFFFFFFFFFFFFFFFFFFFFFF AND PUSH20 0xFFFFFFFFFFFFFFFFFFFFFFFFFFFFFFFFFFFFFFFF AND CALLER PUSH20 0xFFFFFFFFFFFFFFFFFFFFFFFFFFFFFFFFFFFFFFFF AND EQ PUSH2 0x662 JUMPI PUSH1 0x40 MLOAD PUSH32 0x8C379A000000000000000000000000000000000000000000000000000000000 DUP2 MSTORE PUSH1 0x4 ADD PUSH2 0x659 SWAP1 PUSH2 0x28BE JUMP JUMPDEST PUSH1 0x40 MLOAD DUP1 SWAP2 SUB SWAP1 REVERT JUMPDEST PUSH1 0xC PUSH1 0x0 ADD SLOAD TIMESTAMP LT PUSH2 0x6A9 JUMPI PUSH1 0x40 MLOAD PUSH32 0x8C379A000000000000000000000000000000000000000000000000000000000 DUP2 MSTORE PUSH1 0x4 ADD PUSH2 0x6A0 SWAP1 PUSH2 0x292A JUMP JUMPDEST PUSH1 0x40 MLOAD DUP1 SWAP2 SUB SWAP1 REVERT JUMPDEST PUSH1 0x0 PUSH1 0x40 MLOAD DUP1 PUSH1 0x40 ADD PUSH1 0x40 MSTORE DUP1 DUP6 DUP2 MSTORE PUSH1 0x20 ADD DUP5 DUP2 MSTORE POP SWAP1 POP PUSH1 0xB DUP2 SWAP1 DUP1 PUSH1 0x1 DUP2 SLOAD ADD DUP1 DUP3 SSTORE DUP1 SWAP2 POP POP PUSH1 0x1 SWAP1 SUB SWAP1 PUSH1 0x0 MSTORE PUSH1 0x20 PUSH1 0x0 KECCAK256 SWAP1 PUSH1 0x2 MUL ADD PUSH1 0x0 SWAP1 SWAP2 SWAP1 SWAP2 SWAP1 SWAP2 POP PUSH1 0x0 DUP3 ADD MLOAD DUP2 PUSH1 0x0 ADD SWAP1 DUP2 PUSH2 0x703 SWAP2 SWAP1 PUSH2 0x2B4C JUMP JUMPDEST POP PUSH1 0x20 DUP3 ADD MLOAD DUP2 PUSH1 0x1 ADD SWAP1 DUP2 PUSH2 0x719 SWAP2 SWAP1 PUSH2 0x2B4C JUMP JUMPDEST POP POP POP PUSH1 0x0 PUSH1 0xA PUSH1 0x0 PUSH1 0x9 PUSH1 0x0 SWAP1 SLOAD SWAP1 PUSH2 0x100 EXP SWAP1 DIV PUSH1 0xFF AND PUSH1 0xFF AND DUP2 MSTORE PUSH1 0x20 ADD SWAP1 DUP2 MSTORE PUSH1 0x20 ADD PUSH1 0x0 KECCAK256 DUP2 SWAP1 SSTORE POP PUSH1 0x9 PUSH1 0x0 DUP2 DUP2 SWAP1 SLOAD SWAP1 PUSH2 0x100 EXP SWAP1 DIV PUSH1 0xFF AND DUP1 SWAP3 SWAP2 SWAP1 PUSH2 0x766 SWAP1 PUSH2 0x2C4D JUMP JUMPDEST SWAP2 SWAP1 PUSH2 0x100 EXP DUP2 SLOAD DUP2 PUSH1 0xFF MUL NOT AND SWAP1 DUP4 PUSH1 0xFF AND MUL OR SWAP1 SSTORE POP PUSH1 0xFF AND PUSH32 0x406EA63ED3D054DAAF5DBCE82D781D1BAA6C3207F5BA37D94AE58D892C037486 DUP3 PUSH1 0x40 MLOAD PUSH2 0x7B0 SWAP2 SWAP1 PUSH2 0x2D04 JUMP JUMPDEST PUSH1 0x40 MLOAD DUP1 SWAP2 SUB SWAP1 LOG2 PUSH1 0x1 SWAP2 POP POP SWAP3 SWAP2 POP POP JUMP JUMPDEST PUSH1 0x7 PUSH1 0x0 CALLER PUSH20 0xFFFFFFFFFFFFFFFFFFFFFFFFFFFFFFFFFFFFFFFF AND PUSH20 0xFFFFFFFFFFFFFFFFFFFFFFFFFFFFFFFFFFFFFFFF AND DUP2 MSTORE PUSH1 0x20 ADD SWAP1 DUP2 MSTORE PUSH1 0x20 ADD PUSH1 0x0 KECCAK256 PUSH1 0x0 SWAP1 SLOAD SWAP1 PUSH2 0x100 EXP SWAP1 DIV PUSH1 0xFF AND PUSH2 0x84F JUMPI PUSH1 0x40 MLOAD PUSH32 0x8C379A000000000000000000000000000000000000000000000000000000000 DUP2 MSTORE PUSH1 0x4 ADD PUSH2 0x846 SWAP1 PUSH2 0x2D72 JUMP JUMPDEST PUSH1 0x40 MLOAD DUP1 SWAP2 SUB SWAP1 REVERT JUMPDEST PUSH1 0x8 PUSH1 0x0 DUP4 DUP2 MSTORE PUSH1 0x20 ADD SWAP1 DUP2 MSTORE PUSH1 0x20 ADD PUSH1 0x0 KECCAK256 PUSH1 0x0 SWAP1 SLOAD SWAP1 PUSH2 0x100 EXP SWAP1 DIV PUSH1 0xFF AND ISZERO PUSH2 0x8B0 JUMPI PUSH1 0x40 MLOAD PUSH32 0x8C379A000000000000000000000000000000000000000000000000000000000 DUP2 MSTORE PUSH1 0x4 ADD PUSH2 0x8A7 SWAP1 PUSH2 0x2E04 JUMP JUMPDEST PUSH1 0x40 MLOAD DUP1 SWAP2 SUB SWAP1 REVERT JUMPDEST PUSH2 0x8BC DUP2 PUSH1 0x0 SHL PUSH2 0x194A JUMP JUMPDEST PUSH1 0x1 PUSH1 0x8 PUSH1 0x0 DUP5 DUP2 MSTORE PUSH1 0x20 ADD SWAP1 DUP2 MSTORE PUSH1 0x20 ADD PUSH1 0x0 KECCAK256 PUSH1 0x0 PUSH2 0x100 EXP DUP2 SLOAD DUP2 PUSH1 0xFF MUL NOT AND SWAP1 DUP4 ISZERO ISZERO MUL OR SWAP1 SSTORE POP POP POP JUMP JUMPDEST PUSH1 0x4 PUSH1 0x20 MSTORE DUP1 PUSH1 0x0 MSTORE PUSH1 0x40 PUSH1 0x0 KECCAK256 PUSH1 0x0 SWAP2 POP SLOAD SWAP1 PUSH2 0x100 EXP SWAP1 DIV PUSH1 0xFF AND DUP2 JUMP JUMPDEST PUSH32 0x0 DUP2 JUMP JUMPDEST PUSH1 0xB DUP2 DUP2 SLOAD DUP2 LT PUSH2 0x940 JUMPI PUSH1 0x0 DUP1 REVERT JUMPDEST SWAP1 PUSH1 0x0 MSTORE PUSH1 0x20 PUSH1 0x0 KECCAK256 SWAP1 PUSH1 0x2 MUL ADD PUSH1 0x0 SWAP2 POP SWAP1 POP DUP1 PUSH1 0x0 ADD DUP1 SLOAD PUSH2 0x963 SWAP1 PUSH2 0x2979 JUMP JUMPDEST DUP1 PUSH1 0x1F ADD PUSH1 0x20 DUP1 SWAP2 DIV MUL PUSH1 0x20 ADD PUSH1 0x40 MLOAD SWAP1 DUP2 ADD PUSH1 0x40 MSTORE DUP1 SWAP3 SWAP2 SWAP1 DUP2 DUP2 MSTORE PUSH1 0x20 ADD DUP3 DUP1 SLOAD PUSH2 0x98F SWAP1 PUSH2 0x2979 JUMP JUMPDEST DUP1 ISZERO PUSH2 0x9DC JUMPI DUP1 PUSH1 0x1F LT PUSH2 0x9B1 JUMPI PUSH2 0x100 DUP1 DUP4 SLOAD DIV MUL DUP4 MSTORE SWAP2 PUSH1 0x20 ADD SWAP2 PUSH2 0x9DC JUMP JUMPDEST DUP3 ADD SWAP2 SWAP1 PUSH1 0x0 MSTORE PUSH1 0x20 PUSH1 0x0 KECCAK256 SWAP1 JUMPDEST DUP2 SLOAD DUP2 MSTORE SWAP1 PUSH1 0x1 ADD SWAP1 PUSH1 0x20 ADD DUP1 DUP4 GT PUSH2 0x9BF JUMPI DUP3 SWAP1 SUB PUSH1 0x1F AND DUP3 ADD SWAP2 JUMPDEST POP POP POP POP POP SWAP1 DUP1 PUSH1 0x1 ADD DUP1 SLOAD PUSH2 0x9F1 SWAP1 PUSH2 0x2979 JUMP JUMPDEST DUP1 PUSH1 0x1F ADD PUSH1 0x20 DUP1 SWAP2 DIV MUL PUSH1 0x20 ADD PUSH1 0x40 MLOAD SWAP1 DUP2 ADD PUSH1 0x40 MSTORE DUP1 SWAP3 SWAP2 SWAP1 DUP2 DUP2 MSTORE PUSH1 0x20 ADD DUP3 DUP1 SLOAD PUSH2 0xA1D SWAP1 PUSH2 0x2979 JUMP JUMPDEST DUP1 ISZERO PUSH2 0xA6A JUMPI DUP1 PUSH1 0x1F LT PUSH2 0xA3F JUMPI PUSH2 0x100 DUP1 DUP4 SLOAD DIV MUL DUP4 MSTORE SWAP2 PUSH1 0x20 ADD SWAP2 PUSH2 0xA6A JUMP JUMPDEST DUP3 ADD SWAP2 SWAP1 PUSH1 0x0 MSTORE PUSH1 0x20 PUSH1 0x0 KECCAK256 SWAP1 JUMPDEST DUP2 SLOAD DUP2 MSTORE SWAP1 PUSH1 0x1 ADD SWAP1 PUSH1 0x20 ADD DUP1 DUP4 GT PUSH2 0xA4D JUMPI DUP3 SWAP1 SUB PUSH1 0x1F AND DUP3 ADD SWAP2 JUMPDEST POP POP POP POP POP SWAP1 POP DUP3 JUMP JUMPDEST PUSH32 0x30644E72E131A029B85045B68181585D2833E84879B9709143E1F593F0000001 DUP2 JUMP JUMPDEST PUSH1 0x0 DUP1 SLOAD SWAP1 PUSH2 0x100 EXP SWAP1 DIV PUSH4 0xFFFFFFFF AND DUP2 JUMP JUMPDEST PUSH1 0x0 PUSH32 0x30644E72E131A029B85045B68181585D2833E84879B9709143E1F593F0000001 DUP4 LT PUSH2 0xB10 JUMPI PUSH1 0x40 MLOAD PUSH32 0x8C379A000000000000000000000000000000000000000000000000000000000 DUP2 MSTORE PUSH1 0x4 ADD PUSH2 0xB07 SWAP1 PUSH2 0x2E70 JUMP JUMPDEST PUSH1 0x40 MLOAD DUP1 SWAP2 SUB SWAP1 REVERT JUMPDEST PUSH32 0x30644E72E131A029B85045B68181585D2833E84879B9709143E1F593F0000001 DUP3 LT PUSH2 0xB72 JUMPI PUSH1 0x40 MLOAD PUSH32 0x8C379A000000000000000000000000000000000000000000000000000000000 DUP2 MSTORE PUSH1 0x4 ADD PUSH2 0xB69 SWAP1 PUSH2 0x2F02 JUMP JUMPDEST PUSH1 0x40 MLOAD DUP1 SWAP2 SUB SWAP1 REVERT JUMPDEST PUSH1 0x0 DUP4 SWAP1 POP PUSH1 0x0 PUSH32 0x0 PUSH20 0xFFFFFFFFFFFFFFFFFFFFFFFFFFFFFFFFFFFFFFFF AND PUSH4 0x3F1A1187 DUP4 DUP4 PUSH1 0x0 PUSH1 0x40 MLOAD DUP5 PUSH4 0xFFFFFFFF AND PUSH1 0xE0 SHL DUP2 MSTORE PUSH1 0x4 ADD PUSH2 0xBD7 SWAP4 SWAP3 SWAP2 SWAP1 PUSH2 0x2F5D JUMP JUMPDEST PUSH1 0x40 DUP1 MLOAD DUP1 DUP4 SUB DUP2 DUP7 GAS STATICCALL ISZERO DUP1 ISZERO PUSH2 0xBF3 JUMPI RETURNDATASIZE PUSH1 0x0 DUP1 RETURNDATACOPY RETURNDATASIZE PUSH1 0x0 REVERT JUMPDEST POP POP POP POP PUSH1 0x40 MLOAD RETURNDATASIZE PUSH1 0x1F NOT PUSH1 0x1F DUP3 ADD AND DUP3 ADD DUP1 PUSH1 0x40 MSTORE POP DUP2 ADD SWAP1 PUSH2 0xC17 SWAP2 SWAP1 PUSH2 0x2FA9 JUMP JUMPDEST DUP1 SWAP3 POP DUP2 SWAP4 POP POP POP PUSH32 0x30644E72E131A029B85045B68181585D2833E84879B9709143E1F593F0000001 DUP1 PUSH2 0xC4E JUMPI PUSH2 0xC4D PUSH2 0x2FE9 JUMP JUMPDEST JUMPDEST DUP5 DUP4 ADDMOD SWAP2 POP PUSH32 0x0 PUSH20 0xFFFFFFFFFFFFFFFFFFFFFFFFFFFFFFFFFFFFFFFF AND PUSH4 0x3F1A1187 DUP4 DUP4 PUSH1 0x0 PUSH1 0x40 MLOAD DUP5 PUSH4 0xFFFFFFFF AND PUSH1 0xE0 SHL DUP2 MSTORE PUSH1 0x4 ADD PUSH2 0xCB1 SWAP4 SWAP3 SWAP2 SWAP1 PUSH2 0x2F5D JUMP JUMPDEST PUSH1 0x40 DUP1 MLOAD DUP1 DUP4 SUB DUP2 DUP7 GAS STATICCALL ISZERO DUP1 ISZERO PUSH2 0xCCD JUMPI RETURNDATASIZE PUSH1 0x0 DUP1 RETURNDATACOPY RETURNDATASIZE PUSH1 0x0 REVERT JUMPDEST POP POP POP POP PUSH1 0x40 MLOAD RETURNDATASIZE PUSH1 0x1F NOT PUSH1 0x1F DUP3 ADD AND DUP3 ADD DUP1 PUSH1 0x40 MSTORE POP DUP2 ADD SWAP1 PUSH2 0xCF1 SWAP2 SWAP1 PUSH2 0x2FA9 JUMP JUMPDEST DUP1 SWAP3 POP DUP2 SWAP4 POP POP POP DUP2 PUSH1 0x0 SHL SWAP3 POP POP POP SWAP3 SWAP2 POP POP JUMP JUMPDEST PUSH1 0x0 DUP1 PUSH1 0x0 SHL DUP3 SUB PUSH2 0xD1C JUMPI PUSH1 0x0 SWAP1 POP PUSH2 0xD9F JUMP JUMPDEST PUSH1 0x0 PUSH1 0x3 PUSH1 0x0 SWAP1 SLOAD SWAP1 PUSH2 0x100 EXP SWAP1 DIV PUSH4 0xFFFFFFFF AND SWAP1 POP PUSH1 0x0 DUP2 SWAP1 POP JUMPDEST PUSH1 0x2 PUSH1 0x0 DUP3 PUSH4 0xFFFFFFFF AND DUP2 MSTORE PUSH1 0x20 ADD SWAP1 DUP2 MSTORE PUSH1 0x20 ADD PUSH1 0x0 KECCAK256 SLOAD DUP5 SUB PUSH2 0xD64 JUMPI PUSH1 0x1 SWAP3 POP POP POP PUSH2 0xD9F JUMP JUMPDEST PUSH1 0x0 DUP2 PUSH4 0xFFFFFFFF AND SUB PUSH2 0xD77 JUMPI PUSH1 0x1E SWAP1 POP JUMPDEST DUP1 DUP1 PUSH2 0xD82 SWAP1 PUSH2 0x3018 JUMP JUMPDEST SWAP2 POP POP DUP2 PUSH4 0xFFFFFFFF AND DUP2 PUSH4 0xFFFFFFFF AND SUB PUSH2 0xD39 JUMPI PUSH1 0x0 SWAP3 POP POP POP JUMPDEST SWAP2 SWAP1 POP JUMP JUMPDEST PUSH1 0x5 PUSH1 0x20 MSTORE DUP1 PUSH1 0x0 MSTORE PUSH1 0x40 PUSH1 0x0 KECCAK256 PUSH1 0x0 SWAP2 POP SLOAD SWAP1 PUSH2 0x100 EXP SWAP1 DIV PUSH1 0xFF AND DUP2 JUMP JUMPDEST PUSH1 0x6 PUSH1 0x0 SWAP1 SLOAD SWAP1 PUSH2 0x100 EXP SWAP1 DIV PUSH20 0xFFFFFFFFFFFFFFFFFFFFFFFFFFFFFFFFFFFFFFFF AND DUP2 JUMP JUMPDEST PUSH1 0x3 PUSH1 0x0 SWAP1 SLOAD SWAP1 PUSH2 0x100 EXP SWAP1 DIV PUSH4 0xFFFFFFFF AND DUP2 JUMP JUMPDEST PUSH1 0x0 PUSH1 0xA PUSH1 0x0 DUP4 DUP2 MSTORE PUSH1 0x20 ADD SWAP1 DUP2 MSTORE PUSH1 0x20 ADD PUSH1 0x0 KECCAK256 SLOAD SWAP1 POP SWAP2 SWAP1 POP JUMP JUMPDEST PUSH1 0x6 PUSH1 0x0 SWAP1 SLOAD SWAP1 PUSH2 0x100 EXP SWAP1 DIV PUSH20 0xFFFFFFFFFFFFFFFFFFFFFFFFFFFFFFFFFFFFFFFF AND PUSH20 0xFFFFFFFFFFFFFFFFFFFFFFFFFFFFFFFFFFFFFFFF AND CALLER PUSH20 0xFFFFFFFFFFFFFFFFFFFFFFFFFFFFFFFFFFFFFFFF AND EQ PUSH2 0xEAD JUMPI PUSH1 0x40 MLOAD PUSH32 0x8C379A000000000000000000000000000000000000000000000000000000000 DUP2 MSTORE PUSH1 0x4 ADD PUSH2 0xEA4 SWAP1 PUSH2 0x308D JUMP JUMPDEST PUSH1 0x40 MLOAD DUP1 SWAP2 SUB SWAP1 REVERT JUMPDEST PUSH1 0x1 PUSH1 0x7 PUSH1 0x0 DUP4 PUSH20 0xFFFFFFFFFFFFFFFFFFFFFFFFFFFFFFFFFFFFFFFF AND PUSH20 0xFFFFFFFFFFFFFFFFFFFFFFFFFFFFFFFFFFFFFFFF AND DUP2 MSTORE PUSH1 0x20 ADD SWAP1 DUP2 MSTORE PUSH1 0x20 ADD PUSH1 0x0 KECCAK256 PUSH1 0x0 PUSH2 0x100 EXP DUP2 SLOAD DUP2 PUSH1 0xFF MUL NOT AND SWAP1 DUP4 ISZERO ISZERO MUL OR SWAP1 SSTORE POP POP JUMP JUMPDEST PUSH1 0x0 PUSH1 0x2 PUSH1 0x0 PUSH1 0x3 PUSH1 0x0 SWAP1 SLOAD SWAP1 PUSH2 0x100 EXP SWAP1 DIV PUSH4 0xFFFFFFFF AND PUSH4 0xFFFFFFFF AND DUP2 MSTORE PUSH1 0x20 ADD SWAP1 DUP2 MSTORE PUSH1 0x20 ADD PUSH1 0x0 KECCAK256 SLOAD SWAP1 POP SWAP1 JUMP JUMPDEST PUSH1 0x2 PUSH1 0x20 MSTORE DUP1 PUSH1 0x0 MSTORE PUSH1 0x40 PUSH1 0x0 KECCAK256 PUSH1 0x0 SWAP2 POP SWAP1 POP SLOAD DUP2 JUMP JUMPDEST PUSH1 0x1E DUP2 JUMP JUMPDEST PUSH1 0x9 PUSH1 0x0 SWAP1 SLOAD SWAP1 PUSH2 0x100 EXP SWAP1 DIV PUSH1 0xFF AND PUSH1 0xFF AND DUP7 GT ISZERO PUSH2 0xFAD JUMPI PUSH1 0x40 MLOAD PUSH32 0x8C379A000000000000000000000000000000000000000000000000000000000 DUP2 MSTORE PUSH1 0x4 ADD PUSH2 0xFA4 SWAP1 PUSH2 0x30F9 JUMP JUMPDEST PUSH1 0x40 MLOAD DUP1 SWAP2 SUB SWAP1 REVERT JUMPDEST PUSH2 0xFC0 DUP6 PUSH1 0x0 SHL DUP6 PUSH1 0x0 SHL DUP6 DUP6 DUP6 PUSH2 0x1A22 JUMP JUMPDEST PUSH1 0x1 PUSH1 0xA PUSH1 0x0 DUP9 DUP2 MSTORE PUSH1 0x20 ADD SWAP1 DUP2 MSTORE PUSH1 0x20 ADD PUSH1 0x0 KECCAK256 SLOAD PUSH2 0xFE0 SWAP2 SWAP1 PUSH2 0x3119 JUMP JUMPDEST PUSH1 0xA PUSH1 0x0 DUP9 DUP2 MSTORE PUSH1 0x20 ADD SWAP1 DUP2 MSTORE PUSH1 0x20 ADD PUSH1 0x0 KECCAK256 DUP2 SWAP1 SSTORE POP POP POP POP POP POP POP JUMP JUMPDEST PUSH1 0x0 PUSH1 0x6 PUSH1 0x0 SWAP1 SLOAD SWAP1 PUSH2 0x100 EXP SWAP1 DIV PUSH20 0xFFFFFFFFFFFFFFFFFFFFFFFFFFFFFFFFFFFFFFFF AND PUSH20 0xFFFFFFFFFFFFFFFFFFFFFFFFFFFFFFFFFFFFFFFF AND CALLER PUSH20 0xFFFFFFFFFFFFFFFFFFFFFFFFFFFFFFFFFFFFFFFF AND EQ PUSH2 0x1091 JUMPI PUSH1 0x40 MLOAD PUSH32 0x8C379A000000000000000000000000000000000000000000000000000000000 DUP2 MSTORE PUSH1 0x4 ADD PUSH2 0x1088 SWAP1 PUSH2 0x28BE JUMP JUMPDEST PUSH1 0x40 MLOAD DUP1 SWAP2 SUB SWAP1 REVERT JUMPDEST PUSH1 0x0 PUSH1 0xC PUSH1 0x0 ADD SLOAD EQ PUSH2 0x10D9 JUMPI PUSH1 0x40 MLOAD PUSH32 0x8C379A000000000000000000000000000000000000000000000000000000000 DUP2 MSTORE PUSH1 0x4 ADD PUSH2 0x10D0 SWAP1 PUSH2 0x3199 JUMP JUMPDEST PUSH1 0x40 MLOAD DUP1 SWAP2 SUB SWAP1 REVERT JUMPDEST PUSH2 0x10F5 DUP6 PUSH2 0xFFFF AND DUP6 PUSH1 0xFF AND DUP6 PUSH1 0xFF AND DUP6 PUSH1 0xFF AND PUSH1 0x0 DUP1 PUSH2 0x1BF7 JUMP JUMPDEST PUSH1 0xC PUSH1 0x0 ADD DUP2 SWAP1 SSTORE POP PUSH1 0x1 SWAP1 POP SWAP5 SWAP4 POP POP POP POP JUMP JUMPDEST PUSH1 0x0 PUSH1 0x6 PUSH1 0x0 SWAP1 SLOAD SWAP1 PUSH2 0x100 EXP SWAP1 DIV PUSH20 0xFFFFFFFFFFFFFFFFFFFFFFFFFFFFFFFFFFFFFFFF AND PUSH20 0xFFFFFFFFFFFFFFFFFFFFFFFFFFFFFFFFFFFFFFFF AND CALLER PUSH20 0xFFFFFFFFFFFFFFFFFFFFFFFFFFFFFFFFFFFFFFFF AND EQ PUSH2 0x119C JUMPI PUSH1 0x40 MLOAD PUSH32 0x8C379A000000000000000000000000000000000000000000000000000000000 DUP2 MSTORE PUSH1 0x4 ADD PUSH2 0x1193 SWAP1 PUSH2 0x28BE JUMP JUMPDEST PUSH1 0x40 MLOAD DUP1 SWAP2 SUB SWAP1 REVERT JUMPDEST PUSH1 0x0 PUSH1 0xC PUSH1 0x1 ADD SLOAD EQ PUSH2 0x11E4 JUMPI PUSH1 0x40 MLOAD PUSH32 0x8C379A000000000000000000000000000000000000000000000000000000000 DUP2 MSTORE PUSH1 0x4 ADD PUSH2 0x11DB SWAP1 PUSH2 0x3199 JUMP JUMPDEST PUSH1 0x40 MLOAD DUP1 SWAP2 SUB SWAP1 REVERT JUMPDEST PUSH2 0x1200 DUP6 PUSH2 0xFFFF AND DUP6 PUSH1 0xFF AND DUP6 PUSH1 0xFF AND DUP6 PUSH1 0xFF AND PUSH1 0x0 DUP1 PUSH2 0x1BF7 JUMP JUMPDEST PUSH1 0xC PUSH1 0x1 ADD DUP2 SWAP1 SSTORE POP PUSH1 0x1 SWAP1 POP SWAP5 SWAP4 POP POP POP POP JUMP JUMPDEST PUSH1 0x0 DUP1 DUP3 SUB PUSH2 0x1249 JUMPI PUSH32 0x2FE54C60D3ACABF3343A35B6EBA15DB4821B340F76E741E2249685ED4899AF6C PUSH1 0x0 SHL SWAP1 POP PUSH2 0x18AF JUMP JUMPDEST PUSH1 0x1 DUP3 SUB PUSH2 0x127C JUMPI PUSH32 0x256A6135777EEE2FD26F54B8B7037A25439D5235CAEE224154186D2B8A52E31D PUSH1 0x0 SHL SWAP1 POP PUSH2 0x18AF JUMP JUMPDEST PUSH1 0x2 DUP3 SUB PUSH2 0x12AF JUMPI PUSH32 0x1151949895E82AB19924DE92C40A3D6F7BCB60D92B00504B8199613683F0C200 PUSH1 0x0 SHL SWAP1 POP PUSH2 0x18AF JUMP JUMPDEST PUSH1 0x3 DUP3 SUB PUSH2 0x12E2 JUMPI PUSH32 0x20121EE811489FF8D61F09FB89E313F14959A0F28BB428A20DBA6B0B068B3BDB PUSH1 0x0 SHL SWAP1 POP PUSH2 0x18AF JUMP JUMPDEST PUSH1 0x4 DUP3 SUB PUSH2 0x1315 JUMPI PUSH32 0xA89CA6FFA14CC462CFEDB842C30ED221A50A3D6BF022A6A57DC82AB24C157C9 PUSH1 0x0 SHL SWAP1 POP PUSH2 0x18AF JUMP JUMPDEST PUSH1 0x5 DUP3 SUB PUSH2 0x1348 JUMPI PUSH32 0x24CA05C2B5CD42E890D6BE94C68D0689F4F21C9CEC9C0F13FE41D566DFB54959 PUSH1 0x0 SHL SWAP1 POP PUSH2 0x18AF JUMP JUMPDEST PUSH1 0x6 DUP3 SUB PUSH2 0x137B JUMPI PUSH32 0x1CCB97C932565A92C60156BDBA2D08F3BF1377464E025CEE765679E604A7315C PUSH1 0x0 SHL SWAP1 POP PUSH2 0x18AF JUMP JUMPDEST PUSH1 0x7 DUP3 SUB PUSH2 0x13AE JUMPI PUSH32 0x19156FBD7D1A8BF5CBA8909367DE1B624534EBAB4F0F79E003BCCDD1B182BDB4 PUSH1 0x0 SHL SWAP1 POP PUSH2 0x18AF JUMP JUMPDEST PUSH1 0x8 DUP3 SUB PUSH2 0x13E1 JUMPI PUSH32 0x261AF8C1F0912E465744641409F622D466C3920AC6E5FF37E36604CB11DFFF80 PUSH1 0x0 SHL SWAP1 POP PUSH2 0x18AF JUMP JUMPDEST PUSH1 0x9 DUP3 SUB PUSH2 0x1413 JUMPI PUSH31 0x58459724FF6CA5A1652FCBC3E82B93895CF08E975B19BEAB3F54C217D1C007 PUSH1 0x0 SHL SWAP1 POP PUSH2 0x18AF JUMP JUMPDEST PUSH1 0xA DUP3 SUB PUSH2 0x1446 JUMPI PUSH32 0x1F04EF20DEE48D39984D8EABE768A70EAFA6310AD20849D4573C3C40C2AD1E30 PUSH1 0x0 SHL SWAP1 POP PUSH2 0x18AF JUMP JUMPDEST PUSH1 0xB DUP3 SUB PUSH2 0x1479 JUMPI PUSH32 0x1BEA3DEC5DAB51567CE7E200A30F7BA6D4276AEAA53E2686F962A46C66D511E5 PUSH1 0x0 SHL SWAP1 POP PUSH2 0x18AF JUMP JUMPDEST PUSH1 0xC DUP3 SUB PUSH2 0x14AC JUMPI PUSH32 0xEE0F941E2DA4B9E31C3CA97A40D8FA9CE68D97C084177071B3CB46CD3372F0F PUSH1 0x0 SHL SWAP1 POP PUSH2 0x18AF JUMP JUMPDEST PUSH1 0xD DUP3 SUB PUSH2 0x14DF JUMPI PUSH32 0x1CA9503E8935884501BBAF20BE14EB4C46B89772C97B96E3B2EBF3A36A948BBD PUSH1 0x0 SHL SWAP1 POP PUSH2 0x18AF JUMP JUMPDEST PUSH1 0xE DUP3 SUB PUSH2 0x1512 JUMPI PUSH32 0x133A80E30697CD55D8F7D4B0965B7BE24057BA5DC3DA898EE2187232446CB108 PUSH1 0x0 SHL SWAP1 POP PUSH2 0x18AF JUMP JUMPDEST PUSH1 0xF DUP3 SUB PUSH2 0x1545 JUMPI PUSH32 0x13E6D8FC88839ED76E182C2A779AF5B2C0DA9DD18C90427A644F7E148A6253B6 PUSH1 0x0 SHL SWAP1 POP PUSH2 0x18AF JUMP JUMPDEST PUSH1 0x10 DUP3 SUB PUSH2 0x1578 JUMPI PUSH32 0x1EB16B057A477F4BC8F572EA6BEE39561098F78F15BFB3699DCBB7BD8DB61854 PUSH1 0x0 SHL SWAP1 POP PUSH2 0x18AF JUMP JUMPDEST PUSH1 0x11 DUP3 SUB PUSH2 0x15AB JUMPI PUSH32 0xDA2CB16A1CEAABF1C16B838F7A9E3F2A3A3088D9E0A6DEBAA748114620696EA PUSH1 0x0 SHL SWAP1 POP PUSH2 0x18AF JUMP JUMPDEST PUSH1 0x12 DUP3 SUB PUSH2 0x15DE JUMPI PUSH32 0x24A3B3D822420B14B5D8CB6C28A574F01E98EA9E940551D2EBD75CEE12649F9D PUSH1 0x0 SHL SWAP1 POP PUSH2 0x18AF JUMP JUMPDEST PUSH1 0x13 DUP3 SUB PUSH2 0x1611 JUMPI PUSH32 0x198622ACBD783D1B0D9064105B1FC8E4D8889DE95C4C519B3F635809FE6AFC05 PUSH1 0x0 SHL SWAP1 POP PUSH2 0x18AF JUMP JUMPDEST PUSH1 0x14 DUP3 SUB PUSH2 0x1644 JUMPI PUSH32 0x29D7ED391256CCC3EA596C86E933B89FF339D25EA8DDCED975AE2FE30B5296D4 PUSH1 0x0 SHL SWAP1 POP PUSH2 0x18AF JUMP JUMPDEST PUSH1 0x15 DUP3 SUB PUSH2 0x1677 JUMPI PUSH32 0x19BE59F2F0413CE78C0C3703A3A5451B1D7F39629FA33ABD11548A76065B2967 PUSH1 0x0 SHL SWAP1 POP PUSH2 0x18AF JUMP JUMPDEST PUSH1 0x16 DUP3 SUB PUSH2 0x16AA JUMPI PUSH32 0x1FF3F61797E538B70E619310D33F2A063E7EB59104E112E95738DA1254DC3453 PUSH1 0x0 SHL SWAP1 POP PUSH2 0x18AF JUMP JUMPDEST PUSH1 0x17 DUP3 SUB PUSH2 0x16DD JUMPI PUSH32 0x10C16AE9959CF8358980D9DD9616E48228737310A10E2B6B731C1A548F036C48 PUSH1 0x0 SHL SWAP1 POP PUSH2 0x18AF JUMP JUMPDEST PUSH1 0x18 DUP3 SUB PUSH2 0x1710 JUMPI PUSH32 0xBA433A63174A90AC20992E75E3095496812B652685B5E1A2EAE0B1BF4E8FCD1 PUSH1 0x0 SHL SWAP1 POP PUSH2 0x18AF JUMP JUMPDEST PUSH1 0x19 DUP3 SUB PUSH2 0x1743 JUMPI PUSH32 0x19DDB9DF2BC98D987D0DFECA9D2B643DEAFAB8F7036562E627C3667266A044C PUSH1 0x0 SHL SWAP1 POP PUSH2 0x18AF JUMP JUMPDEST PUSH1 0x1A DUP3 SUB PUSH2 0x1776 JUMPI PUSH32 0x2D3C88B23175C5A5565DB928414C66D1912B11ACF974B2E644CAAAC04739CE99 PUSH1 0x0 SHL SWAP1 POP PUSH2 0x18AF JUMP JUMPDEST PUSH1 0x1B DUP3 SUB PUSH2 0x17A9 JUMPI PUSH32 0x2EAB55F6AE4E66E32C5189EED5C470840863445760F5ED7E7B69B2A62600F354 PUSH1 0x0 SHL SWAP1 POP PUSH2 0x18AF JUMP JUMPDEST PUSH1 0x1C DUP3 SUB PUSH2 0x17DB JUMPI PUSH31 0x2DF37A2642621802383CF952BF4DD1F32E05433BEEB1FD41031FB7EACE979D PUSH1 0x0 SHL SWAP1 POP PUSH2 0x18AF JUMP JUMPDEST PUSH1 0x1D DUP3 SUB PUSH2 0x180E JUMPI PUSH32 0x104AEB41435DB66C3E62FECCC1D6F5D98D0A0ED75D1374DB457CF462E3A1F427 PUSH1 0x0 SHL SWAP1 POP PUSH2 0x18AF JUMP JUMPDEST PUSH1 0x1E DUP3 SUB PUSH2 0x1841 JUMPI PUSH32 0x1F3C6FD858E9A7D4B0D1F38E256A09D81D5A5E3C963987E2D4B814CFAB7C6EBB PUSH1 0x0 SHL SWAP1 POP PUSH2 0x18AF JUMP JUMPDEST PUSH1 0x1F DUP3 SUB PUSH2 0x1874 JUMPI PUSH32 0x2C7A07D20DFF79D01FECEDC1134284A8D08436606C93693B67E333F671BF69CC PUSH1 0x0 SHL SWAP1 POP PUSH2 0x18AF JUMP JUMPDEST PUSH1 0x40 MLOAD PUSH32 0x8C379A000000000000000000000000000000000000000000000000000000000 DUP2 MSTORE PUSH1 0x4 ADD PUSH2 0x18A6 SWAP1 PUSH2 0x3205 JUMP JUMPDEST PUSH1 0x40 MLOAD DUP1 SWAP2 SUB SWAP1 REVERT JUMPDEST SWAP2 SWAP1 POP JUMP JUMPDEST PUSH32 0x2FE54C60D3ACABF3343A35B6EBA15DB4821B340F76E741E2249685ED4899AF6C DUP2 JUMP JUMPDEST PUSH32 0x0 DUP2 JUMP JUMPDEST PUSH1 0x1 PUSH1 0x20 MSTORE DUP1 PUSH1 0x0 MSTORE PUSH1 0x40 PUSH1 0x0 KECCAK256 PUSH1 0x0 SWAP2 POP SWAP1 POP SLOAD DUP2 JUMP JUMPDEST PUSH1 0x7 PUSH1 0x20 MSTORE DUP1 PUSH1 0x0 MSTORE PUSH1 0x40 PUSH1 0x0 KECCAK256 PUSH1 0x0 SWAP2 POP SLOAD SWAP1 PUSH2 0x100 EXP SWAP1 DIV PUSH1 0xFF AND DUP2 JUMP JUMPDEST PUSH1 0x3 PUSH1 0x4 SWAP1 SLOAD SWAP1 PUSH2 0x100 EXP SWAP1 DIV PUSH4 0xFFFFFFFF AND DUP2 JUMP JUMPDEST PUSH1 0x5 PUSH1 0x0 DUP3 DUP2 MSTORE PUSH1 0x20 ADD SWAP1 DUP2 MSTORE PUSH1 0x20 ADD PUSH1 0x0 KECCAK256 PUSH1 0x0 SWAP1 SLOAD SWAP1 PUSH2 0x100 EXP SWAP1 DIV PUSH1 0xFF AND ISZERO PUSH2 0x19AB JUMPI PUSH1 0x40 MLOAD PUSH32 0x8C379A000000000000000000000000000000000000000000000000000000000 DUP2 MSTORE PUSH1 0x4 ADD PUSH2 0x19A2 SWAP1 PUSH2 0x3297 JUMP JUMPDEST PUSH1 0x40 MLOAD DUP1 SWAP2 SUB SWAP1 REVERT JUMPDEST PUSH1 0x1 PUSH1 0x5 PUSH1 0x0 DUP4 DUP2 MSTORE PUSH1 0x20 ADD SWAP1 DUP2 MSTORE PUSH1 0x20 ADD PUSH1 0x0 KECCAK256 PUSH1 0x0 PUSH2 0x100 EXP DUP2 SLOAD DUP2 PUSH1 0xFF MUL NOT AND SWAP1 DUP4 ISZERO ISZERO MUL OR SWAP1 SSTORE POP PUSH1 0x0 PUSH2 0x19E2 DUP3 PUSH2 0x1C58 JUMP JUMPDEST SWAP1 POP DUP2 PUSH32 0x401999886E5F90A91B92A0BFB7E2D48F714651A4D1C929BB3A753525BA066B91 DUP3 TIMESTAMP PUSH1 0x40 MLOAD PUSH2 0x1A16 SWAP3 SWAP2 SWAP1 PUSH2 0x32B7 JUMP JUMPDEST PUSH1 0x40 MLOAD DUP1 SWAP2 SUB SWAP1 LOG2 POP POP JUMP JUMPDEST PUSH1 0x4 PUSH1 0x0 DUP7 DUP2 MSTORE PUSH1 0x20 ADD SWAP1 DUP2 MSTORE PUSH1 0x20 ADD PUSH1 0x0 KECCAK256 PUSH1 0x0 SWAP1 SLOAD SWAP1 PUSH2 0x100 EXP SWAP1 DIV PUSH1 0xFF AND ISZERO PUSH2 0x1A83 JUMPI PUSH1 0x40 MLOAD PUSH32 0x8C379A000000000000000000000000000000000000000000000000000000000 DUP2 MSTORE PUSH1 0x4 ADD PUSH2 0x1A7A SWAP1 PUSH2 0x332C JUMP JUMPDEST PUSH1 0x40 MLOAD DUP1 SWAP2 SUB SWAP1 REVERT JUMPDEST PUSH2 0x1A8C DUP5 PUSH2 0xD07 JUMP JUMPDEST PUSH2 0x1ACB JUMPI PUSH1 0x40 MLOAD PUSH32 0x8C379A000000000000000000000000000000000000000000000000000000000 DUP2 MSTORE PUSH1 0x4 ADD PUSH2 0x1AC2 SWAP1 PUSH2 0x3398 JUMP JUMPDEST PUSH1 0x40 MLOAD DUP1 SWAP2 SUB SWAP1 REVERT JUMPDEST PUSH32 0x0 PUSH20 0xFFFFFFFFFFFFFFFFFFFFFFFFFFFFFFFFFFFFFFFF AND PUSH4 0xF5C9D69E DUP5 DUP5 DUP5 PUSH1 0x40 MLOAD DUP1 PUSH1 0x40 ADD PUSH1 0x40 MSTORE DUP1 DUP12 PUSH1 0x0 SHR DUP2 MSTORE PUSH1 0x20 ADD DUP11 PUSH1 0x0 SHR DUP2 MSTORE POP PUSH1 0x40 MLOAD DUP6 PUSH4 0xFFFFFFFF AND PUSH1 0xE0 SHL DUP2 MSTORE PUSH1 0x4 ADD PUSH2 0x1B44 SWAP5 SWAP4 SWAP3 SWAP2 SWAP1 PUSH2 0x3561 JUMP JUMPDEST PUSH1 0x20 PUSH1 0x40 MLOAD DUP1 DUP4 SUB DUP2 DUP7 GAS STATICCALL ISZERO DUP1 ISZERO PUSH2 0x1B61 JUMPI RETURNDATASIZE PUSH1 0x0 DUP1 RETURNDATACOPY RETURNDATASIZE PUSH1 0x0 REVERT JUMPDEST POP POP POP POP PUSH1 0x40 MLOAD RETURNDATASIZE PUSH1 0x1F NOT PUSH1 0x1F DUP3 ADD AND DUP3 ADD DUP1 PUSH1 0x40 MSTORE POP DUP2 ADD SWAP1 PUSH2 0x1B85 SWAP2 SWAP1 PUSH2 0x35D4 JUMP JUMPDEST PUSH2 0x1BC4 JUMPI PUSH1 0x40 MLOAD PUSH32 0x8C379A000000000000000000000000000000000000000000000000000000000 DUP2 MSTORE PUSH1 0x4 ADD PUSH2 0x1BBB SWAP1 PUSH2 0x364D JUMP JUMPDEST PUSH1 0x40 MLOAD DUP1 SWAP2 SUB SWAP1 REVERT JUMPDEST PUSH1 0x1 PUSH1 0x4 PUSH1 0x0 DUP8 DUP2 MSTORE PUSH1 0x20 ADD SWAP1 DUP2 MSTORE PUSH1 0x20 ADD PUSH1 0x0 KECCAK256 PUSH1 0x0 PUSH2 0x100 EXP DUP2 SLOAD DUP2 PUSH1 0xFF MUL NOT AND SWAP1 DUP4 ISZERO ISZERO MUL OR SWAP1 SSTORE POP POP POP POP POP POP JUMP JUMPDEST PUSH1 0x0 DUP2 PUSH1 0x3C DUP5 PUSH2 0x1C07 SWAP2 SWAP1 PUSH2 0x366D JUMP JUMPDEST PUSH2 0xE10 DUP7 PUSH2 0x1C15 SWAP2 SWAP1 PUSH2 0x366D JUMP JUMPDEST PUSH3 0x15180 PUSH2 0x1C24 DUP12 DUP12 DUP12 PUSH2 0x1E5D JUMP JUMPDEST PUSH2 0x1C2E SWAP2 SWAP1 PUSH2 0x366D JUMP JUMPDEST PUSH2 0x1C38 SWAP2 SWAP1 PUSH2 0x3119 JUMP JUMPDEST PUSH2 0x1C42 SWAP2 SWAP1 PUSH2 0x3119 JUMP JUMPDEST PUSH2 0x1C4C SWAP2 SWAP1 PUSH2 0x3119 JUMP JUMPDEST SWAP1 POP SWAP7 SWAP6 POP POP POP POP POP POP JUMP JUMPDEST PUSH1 0x0 DUP1 PUSH1 0x3 PUSH1 0x4 SWAP1 SLOAD SWAP1 PUSH2 0x100 EXP SWAP1 DIV PUSH4 0xFFFFFFFF AND SWAP1 POP PUSH1 0x0 DUP1 SLOAD SWAP1 PUSH2 0x100 EXP SWAP1 DIV PUSH4 0xFFFFFFFF AND PUSH1 0x2 PUSH2 0x1C8D SWAP2 SWAP1 PUSH2 0x37E2 JUMP JUMPDEST PUSH4 0xFFFFFFFF AND DUP2 PUSH4 0xFFFFFFFF AND SUB PUSH2 0x1CDA JUMPI PUSH1 0x40 MLOAD PUSH32 0x8C379A000000000000000000000000000000000000000000000000000000000 DUP2 MSTORE PUSH1 0x4 ADD PUSH2 0x1CD1 SWAP1 PUSH2 0x3883 JUMP JUMPDEST PUSH1 0x40 MLOAD DUP1 SWAP2 SUB SWAP1 REVERT JUMPDEST PUSH1 0x0 DUP2 SWAP1 POP PUSH1 0x0 DUP5 SWAP1 POP PUSH1 0x0 DUP1 PUSH1 0x0 JUMPDEST PUSH1 0x0 DUP1 SLOAD SWAP1 PUSH2 0x100 EXP SWAP1 DIV PUSH4 0xFFFFFFFF AND PUSH4 0xFFFFFFFF AND DUP2 PUSH4 0xFFFFFFFF AND LT ISZERO PUSH2 0x1DB3 JUMPI PUSH1 0x0 PUSH1 0x2 DUP7 PUSH2 0x1D1D SWAP2 SWAP1 PUSH2 0x38A3 JUMP JUMPDEST PUSH4 0xFFFFFFFF AND SUB PUSH2 0x1D5F JUMPI DUP4 SWAP3 POP PUSH2 0x1D3A DUP2 PUSH4 0xFFFFFFFF AND PUSH2 0x1215 JUMP JUMPDEST SWAP2 POP DUP4 PUSH1 0x1 PUSH1 0x0 DUP4 PUSH4 0xFFFFFFFF AND DUP2 MSTORE PUSH1 0x20 ADD SWAP1 DUP2 MSTORE PUSH1 0x20 ADD PUSH1 0x0 KECCAK256 DUP2 SWAP1 SSTORE POP PUSH2 0x1D7F JUMP JUMPDEST PUSH1 0x1 PUSH1 0x0 DUP3 PUSH4 0xFFFFFFFF AND DUP2 MSTORE PUSH1 0x20 ADD SWAP1 DUP2 MSTORE PUSH1 0x20 ADD PUSH1 0x0 KECCAK256 SLOAD SWAP3 POP DUP4 SWAP2 POP JUMPDEST PUSH2 0x1D8F DUP4 PUSH1 0x0 SHR DUP4 PUSH1 0x0 SHR PUSH2 0xAAC JUMP JUMPDEST SWAP4 POP PUSH1 0x2 DUP6 PUSH2 0x1D9E SWAP2 SWAP1 PUSH2 0x38D4 JUMP JUMPDEST SWAP5 POP DUP1 DUP1 PUSH2 0x1DAB SWAP1 PUSH2 0x3905 JUMP JUMPDEST SWAP2 POP POP PUSH2 0x1CEA JUMP JUMPDEST POP PUSH1 0x0 PUSH1 0x1E PUSH1 0x1 PUSH1 0x3 PUSH1 0x0 SWAP1 SLOAD SWAP1 PUSH2 0x100 EXP SWAP1 DIV PUSH4 0xFFFFFFFF AND PUSH2 0x1DD7 SWAP2 SWAP1 PUSH2 0x3931 JUMP JUMPDEST PUSH2 0x1DE1 SWAP2 SWAP1 PUSH2 0x38A3 JUMP JUMPDEST SWAP1 POP DUP1 PUSH1 0x3 PUSH1 0x0 PUSH2 0x100 EXP DUP2 SLOAD DUP2 PUSH4 0xFFFFFFFF MUL NOT AND SWAP1 DUP4 PUSH4 0xFFFFFFFF AND MUL OR SWAP1 SSTORE POP DUP4 PUSH1 0x2 PUSH1 0x0 DUP4 PUSH4 0xFFFFFFFF AND DUP2 MSTORE PUSH1 0x20 ADD SWAP1 DUP2 MSTORE PUSH1 0x20 ADD PUSH1 0x0 KECCAK256 DUP2 SWAP1 SSTORE POP PUSH1 0x1 DUP7 PUSH2 0x1E2F SWAP2 SWAP1 PUSH2 0x3931 JUMP JUMPDEST PUSH1 0x3 PUSH1 0x4 PUSH2 0x100 EXP DUP2 SLOAD DUP2 PUSH4 0xFFFFFFFF MUL NOT AND SWAP1 DUP4 PUSH4 0xFFFFFFFF AND MUL OR SWAP1 SSTORE POP DUP6 SWAP7 POP POP POP POP POP POP POP SWAP2 SWAP1 POP JUMP JUMPDEST PUSH1 0x0 PUSH2 0x7B2 DUP5 LT ISZERO PUSH2 0x1E6E JUMPI PUSH1 0x0 DUP1 REVERT JUMPDEST PUSH1 0x0 DUP5 SWAP1 POP PUSH1 0x0 DUP5 SWAP1 POP PUSH1 0x0 DUP5 SWAP1 POP PUSH1 0x0 PUSH3 0x253D8C PUSH1 0x4 PUSH1 0x64 PUSH1 0xC PUSH1 0xE DUP8 PUSH2 0x1E96 SWAP2 SWAP1 PUSH2 0x3973 JUMP JUMPDEST PUSH2 0x1EA0 SWAP2 SWAP1 PUSH2 0x39B6 JUMP JUMPDEST PUSH2 0x1324 DUP9 PUSH2 0x1EAE SWAP2 SWAP1 PUSH2 0x3A20 JUMP JUMPDEST PUSH2 0x1EB8 SWAP2 SWAP1 PUSH2 0x3A20 JUMP JUMPDEST PUSH2 0x1EC2 SWAP2 SWAP1 PUSH2 0x39B6 JUMP JUMPDEST PUSH1 0x3 PUSH2 0x1ECE SWAP2 SWAP1 PUSH2 0x3A64 JUMP JUMPDEST PUSH2 0x1ED8 SWAP2 SWAP1 PUSH2 0x39B6 JUMP JUMPDEST PUSH1 0xC DUP1 PUSH1 0xC PUSH1 0xE DUP9 PUSH2 0x1EEA SWAP2 SWAP1 PUSH2 0x3973 JUMP JUMPDEST PUSH2 0x1EF4 SWAP2 SWAP1 PUSH2 0x39B6 JUMP JUMPDEST PUSH2 0x1EFE SWAP2 SWAP1 PUSH2 0x3A64 JUMP JUMPDEST PUSH1 0x2 DUP8 PUSH2 0x1F0B SWAP2 SWAP1 PUSH2 0x3973 JUMP JUMPDEST PUSH2 0x1F15 SWAP2 SWAP1 PUSH2 0x3973 JUMP JUMPDEST PUSH2 0x16F PUSH2 0x1F22 SWAP2 SWAP1 PUSH2 0x3A64 JUMP JUMPDEST PUSH2 0x1F2C SWAP2 SWAP1 PUSH2 0x39B6 JUMP JUMPDEST PUSH1 0x4 PUSH1 0xC PUSH1 0xE DUP9 PUSH2 0x1F3D SWAP2 SWAP1 PUSH2 0x3973 JUMP JUMPDEST PUSH2 0x1F47 SWAP2 SWAP1 PUSH2 0x39B6 JUMP JUMPDEST PUSH2 0x12C0 DUP10 PUSH2 0x1F55 SWAP2 SWAP1 PUSH2 0x3A20 JUMP JUMPDEST PUSH2 0x1F5F SWAP2 SWAP1 PUSH2 0x3A20 JUMP JUMPDEST PUSH2 0x5B5 PUSH2 0x1F6C SWAP2 SWAP1 PUSH2 0x3A64 JUMP JUMPDEST PUSH2 0x1F76 SWAP2 SWAP1 PUSH2 0x39B6 JUMP JUMPDEST PUSH2 0x7D4B DUP7 PUSH2 0x1F84 SWAP2 SWAP1 PUSH2 0x3973 JUMP JUMPDEST PUSH2 0x1F8E SWAP2 SWAP1 PUSH2 0x3A20 JUMP JUMPDEST PUSH2 0x1F98 SWAP2 SWAP1 PUSH2 0x3A20 JUMP JUMPDEST PUSH2 0x1FA2 SWAP2 SWAP1 PUSH2 0x3973 JUMP JUMPDEST PUSH2 0x1FAC SWAP2 SWAP1 PUSH2 0x3973 JUMP JUMPDEST SWAP1 POP DUP1 SWAP5 POP POP POP POP POP SWAP4 SWAP3 POP POP POP JUMP JUMPDEST PUSH1 0x0 DUP2 SWAP1 POP SWAP2 SWAP1 POP JUMP JUMPDEST PUSH2 0x1FCF DUP2 PUSH2 0x1FBC JUMP JUMPDEST DUP3 MSTORE POP POP JUMP JUMPDEST PUSH1 0x0 PUSH1 0x40 DUP3 ADD SWAP1 POP PUSH2 0x1FEA PUSH1 0x0 DUP4 ADD DUP6 PUSH2 0x1FC6 JUMP JUMPDEST PUSH2 0x1FF7 PUSH1 0x20 DUP4 ADD DUP5 PUSH2 0x1FC6 JUMP JUMPDEST SWAP4 SWAP3 POP POP POP JUMP JUMPDEST PUSH1 0x0 PUSH1 0x40 MLOAD SWAP1 POP SWAP1 JUMP JUMPDEST PUSH1 0x0 DUP1 REVERT JUMPDEST PUSH1 0x0 DUP1 REVERT JUMPDEST PUSH1 0x0 DUP1 REVERT JUMPDEST PUSH1 0x0 DUP1 REVERT JUMPDEST PUSH1 0x0 PUSH1 0x1F NOT PUSH1 0x1F DUP4 ADD AND SWAP1 POP SWAP2 SWAP1 POP JUMP JUMPDEST PUSH32 0x4E487B7100000000000000000000000000000000000000000000000000000000 PUSH1 0x0 MSTORE PUSH1 0x41 PUSH1 0x4 MSTORE PUSH1 0x24 PUSH1 0x0 REVERT JUMPDEST PUSH2 0x2065 DUP3 PUSH2 0x201C JUMP JUMPDEST DUP2 ADD DUP2 DUP2 LT PUSH8 0xFFFFFFFFFFFFFFFF DUP3 GT OR ISZERO PUSH2 0x2084 JUMPI PUSH2 0x2083 PUSH2 0x202D JUMP JUMPDEST JUMPDEST DUP1 PUSH1 0x40 MSTORE POP POP POP JUMP JUMPDEST PUSH1 0x0 PUSH2 0x2097 PUSH2 0x1FFE JUMP JUMPDEST SWAP1 POP PUSH2 0x20A3 DUP3 DUP3 PUSH2 0x205C JUMP JUMPDEST SWAP2 SWAP1 POP JUMP JUMPDEST PUSH1 0x0 PUSH8 0xFFFFFFFFFFFFFFFF DUP3 GT ISZERO PUSH2 0x20C3 JUMPI PUSH2 0x20C2 PUSH2 0x202D JUMP JUMPDEST JUMPDEST PUSH2 0x20CC DUP3 PUSH2 0x201C JUMP JUMPDEST SWAP1 POP PUSH1 0x20 DUP2 ADD SWAP1 POP SWAP2 SWAP1 POP JUMP JUMPDEST DUP3 DUP2 DUP4 CALLDATACOPY PUSH1 0x0 DUP4 DUP4 ADD MSTORE POP POP POP JUMP JUMPDEST PUSH1 0x0 PUSH2 0x20FB PUSH2 0x20F6 DUP5 PUSH2 0x20A8 JUMP JUMPDEST PUSH2 0x208D JUMP JUMPDEST SWAP1 POP DUP3 DUP2 MSTORE PUSH1 0x20 DUP2 ADD DUP5 DUP5 DUP5 ADD GT ISZERO PUSH2 0x2117 JUMPI PUSH2 0x2116 PUSH2 0x2017 JUMP JUMPDEST JUMPDEST PUSH2 0x2122 DUP5 DUP3 DUP6 PUSH2 0x20D9 JUMP JUMPDEST POP SWAP4 SWAP3 POP POP POP JUMP JUMPDEST PUSH1 0x0 DUP3 PUSH1 0x1F DUP4 ADD SLT PUSH2 0x213F JUMPI PUSH2 0x213E PUSH2 0x2012 JUMP JUMPDEST JUMPDEST DUP2 CALLDATALOAD PUSH2 0x214F DUP5 DUP3 PUSH1 0x20 DUP7 ADD PUSH2 0x20E8 JUMP JUMPDEST SWAP2 POP POP SWAP3 SWAP2 POP POP JUMP JUMPDEST PUSH1 0x0 DUP1 PUSH1 0x40 DUP4 DUP6 SUB SLT ISZERO PUSH2 0x216F JUMPI PUSH2 0x216E PUSH2 0x2008 JUMP JUMPDEST JUMPDEST PUSH1 0x0 DUP4 ADD CALLDATALOAD PUSH8 0xFFFFFFFFFFFFFFFF DUP2 GT ISZERO PUSH2 0x218D JUMPI PUSH2 0x218C PUSH2 0x200D JUMP JUMPDEST JUMPDEST PUSH2 0x2199 DUP6 DUP3 DUP7 ADD PUSH2 0x212A JUMP JUMPDEST SWAP3 POP POP PUSH1 0x20 DUP4 ADD CALLDATALOAD PUSH8 0xFFFFFFFFFFFFFFFF DUP2 GT ISZERO PUSH2 0x21BA JUMPI PUSH2 0x21B9 PUSH2 0x200D JUMP JUMPDEST JUMPDEST PUSH2 0x21C6 DUP6 DUP3 DUP7 ADD PUSH2 0x212A JUMP JUMPDEST SWAP2 POP POP SWAP3 POP SWAP3 SWAP1 POP JUMP JUMPDEST PUSH1 0x0 DUP2 ISZERO ISZERO SWAP1 POP SWAP2 SWAP1 POP JUMP JUMPDEST PUSH2 0x21E5 DUP2 PUSH2 0x21D0 JUMP JUMPDEST DUP3 MSTORE POP POP JUMP JUMPDEST PUSH1 0x0 PUSH1 0x20 DUP3 ADD SWAP1 POP PUSH2 0x2200 PUSH1 0x0 DUP4 ADD DUP5 PUSH2 0x21DC JUMP JUMPDEST SWAP3 SWAP2 POP POP JUMP JUMPDEST PUSH2 0x220F DUP2 PUSH2 0x1FBC JUMP JUMPDEST DUP2 EQ PUSH2 0x221A JUMPI PUSH1 0x0 DUP1 REVERT JUMPDEST POP JUMP JUMPDEST PUSH1 0x0 DUP2 CALLDATALOAD SWAP1 POP PUSH2 0x222C DUP2 PUSH2 0x2206 JUMP JUMPDEST SWAP3 SWAP2 POP POP JUMP JUMPDEST PUSH1 0x0 DUP1 PUSH1 0x40 DUP4 DUP6 SUB SLT ISZERO PUSH2 0x2249 JUMPI PUSH2 0x2248 PUSH2 0x2008 JUMP JUMPDEST JUMPDEST PUSH1 0x0 PUSH2 0x2257 DUP6 DUP3 DUP7 ADD PUSH2 0x221D JUMP JUMPDEST SWAP3 POP POP PUSH1 0x20 PUSH2 0x2268 DUP6 DUP3 DUP7 ADD PUSH2 0x221D JUMP JUMPDEST SWAP2 POP POP SWAP3 POP SWAP3 SWAP1 POP JUMP JUMPDEST PUSH1 0x0 DUP2 SWAP1 POP SWAP2 SWAP1 POP JUMP JUMPDEST PUSH2 0x2285 DUP2 PUSH2 0x2272 JUMP JUMPDEST DUP2 EQ PUSH2 0x2290 JUMPI PUSH1 0x0 DUP1 REVERT JUMPDEST POP JUMP JUMPDEST PUSH1 0x0 DUP2 CALLDATALOAD SWAP1 POP PUSH2 0x22A2 DUP2 PUSH2 0x227C JUMP JUMPDEST SWAP3 SWAP2 POP POP JUMP JUMPDEST PUSH1 0x0 PUSH1 0x20 DUP3 DUP5 SUB SLT ISZERO PUSH2 0x22BE JUMPI PUSH2 0x22BD PUSH2 0x2008 JUMP JUMPDEST JUMPDEST PUSH1 0x0 PUSH2 0x22CC DUP5 DUP3 DUP6 ADD PUSH2 0x2293 JUMP JUMPDEST SWAP2 POP POP SWAP3 SWAP2 POP POP JUMP JUMPDEST PUSH1 0x0 PUSH20 0xFFFFFFFFFFFFFFFFFFFFFFFFFFFFFFFFFFFFFFFF DUP3 AND SWAP1 POP SWAP2 SWAP1 POP JUMP JUMPDEST PUSH1 0x0 DUP2 SWAP1 POP SWAP2 SWAP1 POP JUMP JUMPDEST PUSH1 0x0 PUSH2 0x231A PUSH2 0x2315 PUSH2 0x2310 DUP5 PUSH2 0x22D5 JUMP JUMPDEST PUSH2 0x22F5 JUMP JUMPDEST PUSH2 0x22D5 JUMP JUMPDEST SWAP1 POP SWAP2 SWAP1 POP JUMP JUMPDEST PUSH1 0x0 PUSH2 0x232C DUP3 PUSH2 0x22FF JUMP JUMPDEST SWAP1 POP SWAP2 SWAP1 POP JUMP JUMPDEST PUSH1 0x0 PUSH2 0x233E DUP3 PUSH2 0x2321 JUMP JUMPDEST SWAP1 POP SWAP2 SWAP1 POP JUMP JUMPDEST PUSH2 0x234E DUP2 PUSH2 0x2333 JUMP JUMPDEST DUP3 MSTORE POP POP JUMP JUMPDEST PUSH1 0x0 PUSH1 0x20 DUP3 ADD SWAP1 POP PUSH2 0x2369 PUSH1 0x0 DUP4 ADD DUP5 PUSH2 0x2345 JUMP JUMPDEST SWAP3 SWAP2 POP POP JUMP JUMPDEST PUSH1 0x0 PUSH1 0x20 DUP3 DUP5 SUB SLT ISZERO PUSH2 0x2385 JUMPI PUSH2 0x2384 PUSH2 0x2008 JUMP JUMPDEST JUMPDEST PUSH1 0x0 PUSH2 0x2393 DUP5 DUP3 DUP6 ADD PUSH2 0x221D JUMP JUMPDEST SWAP2 POP POP SWAP3 SWAP2 POP POP JUMP JUMPDEST PUSH1 0x0 DUP2 MLOAD SWAP1 POP SWAP2 SWAP1 POP JUMP JUMPDEST PUSH1 0x0 DUP3 DUP3 MSTORE PUSH1 0x20 DUP3 ADD SWAP1 POP SWAP3 SWAP2 POP POP JUMP JUMPDEST PUSH1 0x0 JUMPDEST DUP4 DUP2 LT ISZERO PUSH2 0x23D6 JUMPI DUP1 DUP3 ADD MLOAD DUP2 DUP5 ADD MSTORE PUSH1 0x20 DUP2 ADD SWAP1 POP PUSH2 0x23BB JUMP JUMPDEST PUSH1 0x0 DUP5 DUP5 ADD MSTORE POP POP POP POP JUMP JUMPDEST PUSH1 0x0 PUSH2 0x23ED DUP3 PUSH2 0x239C JUMP JUMPDEST PUSH2 0x23F7 DUP2 DUP6 PUSH2 0x23A7 JUMP JUMPDEST SWAP4 POP PUSH2 0x2407 DUP2 DUP6 PUSH1 0x20 DUP7 ADD PUSH2 0x23B8 JUMP JUMPDEST PUSH2 0x2410 DUP2 PUSH2 0x201C JUMP JUMPDEST DUP5 ADD SWAP2 POP POP SWAP3 SWAP2 POP POP JUMP JUMPDEST PUSH1 0x0 PUSH1 0x40 DUP3 ADD SWAP1 POP DUP2 DUP2 SUB PUSH1 0x0 DUP4 ADD MSTORE PUSH2 0x2435 DUP2 DUP6 PUSH2 0x23E2 JUMP JUMPDEST SWAP1 POP DUP2 DUP2 SUB PUSH1 0x20 DUP4 ADD MSTORE PUSH2 0x2449 DUP2 DUP5 PUSH2 0x23E2 JUMP JUMPDEST SWAP1 POP SWAP4 SWAP3 POP POP POP JUMP JUMPDEST PUSH1 0x0 PUSH1 0x20 DUP3 ADD SWAP1 POP PUSH2 0x2467 PUSH1 0x0 DUP4 ADD DUP5 PUSH2 0x1FC6 JUMP JUMPDEST SWAP3 SWAP2 POP POP JUMP JUMPDEST PUSH1 0x0 PUSH4 0xFFFFFFFF DUP3 AND SWAP1 POP SWAP2 SWAP1 POP JUMP JUMPDEST PUSH2 0x2486 DUP2 PUSH2 0x246D JUMP JUMPDEST DUP3 MSTORE POP POP JUMP JUMPDEST PUSH1 0x0 PUSH1 0x20 DUP3 ADD SWAP1 POP PUSH2 0x24A1 PUSH1 0x0 DUP4 ADD DUP5 PUSH2 0x247D JUMP JUMPDEST SWAP3 SWAP2 POP POP JUMP JUMPDEST PUSH2 0x24B0 DUP2 PUSH2 0x2272 JUMP JUMPDEST DUP3 MSTORE POP POP JUMP JUMPDEST PUSH1 0x0 PUSH1 0x20 DUP3 ADD SWAP1 POP PUSH2 0x24CB PUSH1 0x0 DUP4 ADD DUP5 PUSH2 0x24A7 JUMP JUMPDEST SWAP3 SWAP2 POP POP JUMP JUMPDEST PUSH1 0x0 PUSH2 0x24DC DUP3 PUSH2 0x22D5 JUMP JUMPDEST SWAP1 POP SWAP2 SWAP1 POP JUMP JUMPDEST PUSH2 0x24EC DUP2 PUSH2 0x24D1 JUMP JUMPDEST DUP3 MSTORE POP POP JUMP JUMPDEST PUSH1 0x0 PUSH1 0x20 DUP3 ADD SWAP1 POP PUSH2 0x2507 PUSH1 0x0 DUP4 ADD DUP5 PUSH2 0x24E3 JUMP JUMPDEST SWAP3 SWAP2 POP POP JUMP JUMPDEST PUSH2 0x2516 DUP2 PUSH2 0x24D1 JUMP JUMPDEST DUP2 EQ PUSH2 0x2521 JUMPI PUSH1 0x0 DUP1 REVERT JUMPDEST POP JUMP JUMPDEST PUSH1 0x0 DUP2 CALLDATALOAD SWAP1 POP PUSH2 0x2533 DUP2 PUSH2 0x250D JUMP JUMPDEST SWAP3 SWAP2 POP POP JUMP JUMPDEST PUSH1 0x0 PUSH1 0x20 DUP3 DUP5 SUB SLT ISZERO PUSH2 0x254F JUMPI PUSH2 0x254E PUSH2 0x2008 JUMP JUMPDEST JUMPDEST PUSH1 0x0 PUSH2 0x255D DUP5 DUP3 DUP6 ADD PUSH2 0x2524 JUMP JUMPDEST SWAP2 POP POP SWAP3 SWAP2 POP POP JUMP JUMPDEST PUSH1 0x0 PUSH8 0xFFFFFFFFFFFFFFFF DUP3 GT ISZERO PUSH2 0x2581 JUMPI PUSH2 0x2580 PUSH2 0x202D JUMP JUMPDEST JUMPDEST PUSH1 0x20 DUP3 MUL SWAP1 POP SWAP2 SWAP1 POP JUMP JUMPDEST PUSH1 0x0 DUP1 REVERT JUMPDEST PUSH1 0x0 PUSH2 0x25A4 PUSH2 0x259F DUP5 PUSH2 0x2566 JUMP JUMPDEST PUSH2 0x208D JUMP JUMPDEST SWAP1 POP DUP1 PUSH1 0x20 DUP5 MUL DUP4 ADD DUP6 DUP2 GT ISZERO PUSH2 0x25BE JUMPI PUSH2 0x25BD PUSH2 0x258C JUMP JUMPDEST JUMPDEST DUP4 JUMPDEST DUP2 DUP2 LT ISZERO PUSH2 0x25E7 JUMPI DUP1 PUSH2 0x25D3 DUP9 DUP3 PUSH2 0x221D JUMP JUMPDEST DUP5 MSTORE PUSH1 0x20 DUP5 ADD SWAP4 POP POP PUSH1 0x20 DUP2 ADD SWAP1 POP PUSH2 0x25C0 JUMP JUMPDEST POP POP POP SWAP4 SWAP3 POP POP POP JUMP JUMPDEST PUSH1 0x0 DUP3 PUSH1 0x1F DUP4 ADD SLT PUSH2 0x2606 JUMPI PUSH2 0x2605 PUSH2 0x2012 JUMP JUMPDEST JUMPDEST PUSH1 0x2 PUSH2 0x2613 DUP5 DUP3 DUP6 PUSH2 0x2591 JUMP JUMPDEST SWAP2 POP POP SWAP3 SWAP2 POP POP JUMP JUMPDEST PUSH1 0x0 PUSH8 0xFFFFFFFFFFFFFFFF DUP3 GT ISZERO PUSH2 0x2637 JUMPI PUSH2 0x2636 PUSH2 0x202D JUMP JUMPDEST JUMPDEST PUSH1 0x20 DUP3 MUL SWAP1 POP SWAP2 SWAP1 POP JUMP JUMPDEST PUSH1 0x0 PUSH2 0x2655 PUSH2 0x2650 DUP5 PUSH2 0x261C JUMP JUMPDEST PUSH2 0x208D JUMP JUMPDEST SWAP1 POP DUP1 PUSH1 0x40 DUP5 MUL DUP4 ADD DUP6 DUP2 GT ISZERO PUSH2 0x266F JUMPI PUSH2 0x266E PUSH2 0x258C JUMP JUMPDEST JUMPDEST DUP4 JUMPDEST DUP2 DUP2 LT ISZERO PUSH2 0x2698 JUMPI DUP1 PUSH2 0x2684 DUP9 DUP3 PUSH2 0x25F1 JUMP JUMPDEST DUP5 MSTORE PUSH1 0x20 DUP5 ADD SWAP4 POP POP PUSH1 0x40 DUP2 ADD SWAP1 POP PUSH2 0x2671 JUMP JUMPDEST POP POP POP SWAP4 SWAP3 POP POP POP JUMP JUMPDEST PUSH1 0x0 DUP3 PUSH1 0x1F DUP4 ADD SLT PUSH2 0x26B7 JUMPI PUSH2 0x26B6 PUSH2 0x2012 JUMP JUMPDEST JUMPDEST PUSH1 0x2 PUSH2 0x26C4 DUP5 DUP3 DUP6 PUSH2 0x2642 JUMP JUMPDEST SWAP2 POP POP SWAP3 SWAP2 POP POP JUMP JUMPDEST PUSH1 0x0 DUP1 PUSH1 0x0 DUP1 PUSH1 0x0 DUP1 PUSH2 0x160 DUP8 DUP10 SUB SLT ISZERO PUSH2 0x26EB JUMPI PUSH2 0x26EA PUSH2 0x2008 JUMP JUMPDEST JUMPDEST PUSH1 0x0 PUSH2 0x26F9 DUP10 DUP3 DUP11 ADD PUSH2 0x221D JUMP JUMPDEST SWAP7 POP POP PUSH1 0x20 PUSH2 0x270A DUP10 DUP3 DUP11 ADD PUSH2 0x221D JUMP JUMPDEST SWAP6 POP POP PUSH1 0x40 PUSH2 0x271B DUP10 DUP3 DUP11 ADD PUSH2 0x221D JUMP JUMPDEST SWAP5 POP POP PUSH1 0x60 PUSH2 0x272C DUP10 DUP3 DUP11 ADD PUSH2 0x25F1 JUMP JUMPDEST SWAP4 POP POP PUSH1 0xA0 PUSH2 0x273D DUP10 DUP3 DUP11 ADD PUSH2 0x26A2 JUMP JUMPDEST SWAP3 POP POP PUSH2 0x120 PUSH2 0x274F DUP10 DUP3 DUP11 ADD PUSH2 0x25F1 JUMP JUMPDEST SWAP2 POP POP SWAP3 SWAP6 POP SWAP3 SWAP6 POP SWAP3 SWAP6 JUMP JUMPDEST PUSH1 0x0 PUSH2 0xFFFF DUP3 AND SWAP1 POP SWAP2 SWAP1 POP JUMP JUMPDEST PUSH2 0x2773 DUP2 PUSH2 0x275C JUMP JUMPDEST DUP2 EQ PUSH2 0x277E JUMPI PUSH1 0x0 DUP1 REVERT JUMPDEST POP JUMP JUMPDEST PUSH1 0x0 DUP2 CALLDATALOAD SWAP1 POP PUSH2 0x2790 DUP2 PUSH2 0x276A JUMP JUMPDEST SWAP3 SWAP2 POP POP JUMP JUMPDEST PUSH1 0x0 PUSH1 0xFF DUP3 AND SWAP1 POP SWAP2 SWAP1 POP JUMP JUMPDEST PUSH2 0x27AC DUP2 PUSH2 0x2796 JUMP JUMPDEST DUP2 EQ PUSH2 0x27B7 JUMPI PUSH1 0x0 DUP1 REVERT JUMPDEST POP JUMP JUMPDEST PUSH1 0x0 DUP2 CALLDATALOAD SWAP1 POP PUSH2 0x27C9 DUP2 PUSH2 0x27A3 JUMP JUMPDEST SWAP3 SWAP2 POP POP JUMP JUMPDEST PUSH1 0x0 DUP1 PUSH1 0x0 DUP1 PUSH1 0x80 DUP6 DUP8 SUB SLT ISZERO PUSH2 0x27E9 JUMPI PUSH2 0x27E8 PUSH2 0x2008 JUMP JUMPDEST JUMPDEST PUSH1 0x0 PUSH2 0x27F7 DUP8 DUP3 DUP9 ADD PUSH2 0x2781 JUMP JUMPDEST SWAP5 POP POP PUSH1 0x20 PUSH2 0x2808 DUP8 DUP3 DUP9 ADD PUSH2 0x27BA JUMP JUMPDEST SWAP4 POP POP PUSH1 0x40 PUSH2 0x2819 DUP8 DUP3 DUP9 ADD PUSH2 0x27BA JUMP JUMPDEST SWAP3 POP POP PUSH1 0x60 PUSH2 0x282A DUP8 DUP3 DUP9 ADD PUSH2 0x27BA JUMP JUMPDEST SWAP2 POP POP SWAP3 SWAP6 SWAP2 SWAP5 POP SWAP3 POP JUMP JUMPDEST PUSH1 0x0 PUSH2 0x2841 DUP3 PUSH2 0x2321 JUMP JUMPDEST SWAP1 POP SWAP2 SWAP1 POP JUMP JUMPDEST PUSH2 0x2851 DUP2 PUSH2 0x2836 JUMP JUMPDEST DUP3 MSTORE POP POP JUMP JUMPDEST PUSH1 0x0 PUSH1 0x20 DUP3 ADD SWAP1 POP PUSH2 0x286C PUSH1 0x0 DUP4 ADD DUP5 PUSH2 0x2848 JUMP JUMPDEST SWAP3 SWAP2 POP POP JUMP JUMPDEST PUSH32 0x4F6E6C79206F776E65722063616E206164642063616E64696461746521000000 PUSH1 0x0 DUP3 ADD MSTORE POP JUMP JUMPDEST PUSH1 0x0 PUSH2 0x28A8 PUSH1 0x1D DUP4 PUSH2 0x23A7 JUMP JUMPDEST SWAP2 POP PUSH2 0x28B3 DUP3 PUSH2 0x2872 JUMP JUMPDEST PUSH1 0x20 DUP3 ADD SWAP1 POP SWAP2 SWAP1 POP JUMP JUMPDEST PUSH1 0x0 PUSH1 0x20 DUP3 ADD SWAP1 POP DUP2 DUP2 SUB PUSH1 0x0 DUP4 ADD MSTORE PUSH2 0x28D7 DUP2 PUSH2 0x289B JUMP JUMPDEST SWAP1 POP SWAP2 SWAP1 POP JUMP JUMPDEST PUSH32 0x546F6F206C61746520746F20726567697374657220612063616E646964617465 PUSH1 0x0 DUP3 ADD MSTORE POP JUMP JUMPDEST PUSH1 0x0 PUSH2 0x2914 PUSH1 0x20 DUP4 PUSH2 0x23A7 JUMP JUMPDEST SWAP2 POP PUSH2 0x291F DUP3 PUSH2 0x28DE JUMP JUMPDEST PUSH1 0x20 DUP3 ADD SWAP1 POP SWAP2 SWAP1 POP JUMP JUMPDEST PUSH1 0x0 PUSH1 0x20 DUP3 ADD SWAP1 POP DUP2 DUP2 SUB PUSH1 0x0 DUP4 ADD MSTORE PUSH2 0x2943 DUP2 PUSH2 0x2907 JUMP JUMPDEST SWAP1 POP SWAP2 SWAP1 POP JUMP JUMPDEST PUSH32 0x4E487B7100000000000000000000000000000000000000000000000000000000 PUSH1 0x0 MSTORE PUSH1 0x22 PUSH1 0x4 MSTORE PUSH1 0x24 PUSH1 0x0 REVERT JUMPDEST PUSH1 0x0 PUSH1 0x2 DUP3 DIV SWAP1 POP PUSH1 0x1 DUP3 AND DUP1 PUSH2 0x2991 JUMPI PUSH1 0x7F DUP3 AND SWAP2 POP JUMPDEST PUSH1 0x20 DUP3 LT DUP2 SUB PUSH2 0x29A4 JUMPI PUSH2 0x29A3 PUSH2 0x294A JUMP JUMPDEST JUMPDEST POP SWAP2 SWAP1 POP JUMP JUMPDEST PUSH1 0x0 DUP2 SWAP1 POP DUP2 PUSH1 0x0 MSTORE PUSH1 0x20 PUSH1 0x0 KECCAK256 SWAP1 POP SWAP2 SWAP1 POP JUMP JUMPDEST PUSH1 0x0 PUSH1 0x20 PUSH1 0x1F DUP4 ADD DIV SWAP1 POP SWAP2 SWAP1 POP JUMP JUMPDEST PUSH1 0x0 DUP3 DUP3 SHL SWAP1 POP SWAP3 SWAP2 POP POP JUMP JUMPDEST PUSH1 0x0 PUSH1 0x8 DUP4 MUL PUSH2 0x2A0C PUSH32 0xFFFFFFFFFFFFFFFFFFFFFFFFFFFFFFFFFFFFFFFFFFFFFFFFFFFFFFFFFFFFFFFF DUP3 PUSH2 0x29CF JUMP JUMPDEST PUSH2 0x2A16 DUP7 DUP4 PUSH2 0x29CF JUMP JUMPDEST SWAP6 POP DUP1 NOT DUP5 AND SWAP4 POP DUP1 DUP7 AND DUP5 OR SWAP3 POP POP POP SWAP4 SWAP3 POP POP POP JUMP JUMPDEST PUSH1 0x0 PUSH2 0x2A49 PUSH2 0x2A44 PUSH2 0x2A3F DUP5 PUSH2 0x1FBC JUMP JUMPDEST PUSH2 0x22F5 JUMP JUMPDEST PUSH2 0x1FBC JUMP JUMPDEST SWAP1 POP SWAP2 SWAP1 POP JUMP JUMPDEST PUSH1 0x0 DUP2 SWAP1 POP SWAP2 SWAP1 POP JUMP JUMPDEST PUSH2 0x2A63 DUP4 PUSH2 0x2A2E JUMP JUMPDEST PUSH2 0x2A77 PUSH2 0x2A6F DUP3 PUSH2 0x2A50 JUMP JUMPDEST DUP5 DUP5 SLOAD PUSH2 0x29DC JUMP JUMPDEST DUP3 SSTORE POP POP POP POP JUMP JUMPDEST PUSH1 0x0 SWAP1 JUMP JUMPDEST PUSH2 0x2A8C PUSH2 0x2A7F JUMP JUMPDEST PUSH2 0x2A97 DUP2 DUP5 DUP5 PUSH2 0x2A5A JUMP JUMPDEST POP POP POP JUMP JUMPDEST JUMPDEST DUP2 DUP2 LT ISZERO PUSH2 0x2ABB JUMPI PUSH2 0x2AB0 PUSH1 0x0 DUP3 PUSH2 0x2A84 JUMP JUMPDEST PUSH1 0x1 DUP2 ADD SWAP1 POP PUSH2 0x2A9D JUMP JUMPDEST POP POP JUMP JUMPDEST PUSH1 0x1F DUP3 GT ISZERO PUSH2 0x2B00 JUMPI PUSH2 0x2AD1 DUP2 PUSH2 0x29AA JUMP JUMPDEST PUSH2 0x2ADA DUP5 PUSH2 0x29BF JUMP JUMPDEST DUP2 ADD PUSH1 0x20 DUP6 LT ISZERO PUSH2 0x2AE9 JUMPI DUP2 SWAP1 POP JUMPDEST PUSH2 0x2AFD PUSH2 0x2AF5 DUP6 PUSH2 0x29BF JUMP JUMPDEST DUP4 ADD DUP3 PUSH2 0x2A9C JUMP JUMPDEST POP POP JUMPDEST POP POP POP JUMP JUMPDEST PUSH1 0x0 DUP3 DUP3 SHR SWAP1 POP SWAP3 SWAP2 POP POP JUMP JUMPDEST PUSH1 0x0 PUSH2 0x2B23 PUSH1 0x0 NOT DUP5 PUSH1 0x8 MUL PUSH2 0x2B05 JUMP JUMPDEST NOT DUP1 DUP4 AND SWAP2 POP POP SWAP3 SWAP2 POP POP JUMP JUMPDEST PUSH1 0x0 PUSH2 0x2B3C DUP4 DUP4 PUSH2 0x2B12 JUMP JUMPDEST SWAP2 POP DUP3 PUSH1 0x2 MUL DUP3 OR SWAP1 POP SWAP3 SWAP2 POP POP JUMP JUMPDEST PUSH2 0x2B55 DUP3 PUSH2 0x239C JUMP JUMPDEST PUSH8 0xFFFFFFFFFFFFFFFF DUP2 GT ISZERO PUSH2 0x2B6E JUMPI PUSH2 0x2B6D PUSH2 0x202D JUMP JUMPDEST JUMPDEST PUSH2 0x2B78 DUP3 SLOAD PUSH2 0x2979 JUMP JUMPDEST PUSH2 0x2B83 DUP3 DUP3 DUP6 PUSH2 0x2ABF JUMP JUMPDEST PUSH1 0x0 PUSH1 0x20 SWAP1 POP PUSH1 0x1F DUP4 GT PUSH1 0x1 DUP2 EQ PUSH2 0x2BB6 JUMPI PUSH1 0x0 DUP5 ISZERO PUSH2 0x2BA4 JUMPI DUP3 DUP8 ADD MLOAD SWAP1 POP JUMPDEST PUSH2 0x2BAE DUP6 DUP3 PUSH2 0x2B30 JUMP JUMPDEST DUP7 SSTORE POP PUSH2 0x2C16 JUMP JUMPDEST PUSH1 0x1F NOT DUP5 AND PUSH2 0x2BC4 DUP7 PUSH2 0x29AA JUMP JUMPDEST PUSH1 0x0 JUMPDEST DUP3 DUP2 LT ISZERO PUSH2 0x2BEC JUMPI DUP5 DUP10 ADD MLOAD DUP3 SSTORE PUSH1 0x1 DUP3 ADD SWAP2 POP PUSH1 0x20 DUP6 ADD SWAP5 POP PUSH1 0x20 DUP2 ADD SWAP1 POP PUSH2 0x2BC7 JUMP JUMPDEST DUP7 DUP4 LT ISZERO PUSH2 0x2C09 JUMPI DUP5 DUP10 ADD MLOAD PUSH2 0x2C05 PUSH1 0x1F DUP10 AND DUP3 PUSH2 0x2B12 JUMP JUMPDEST DUP4 SSTORE POP JUMPDEST PUSH1 0x1 PUSH1 0x2 DUP9 MUL ADD DUP9 SSTORE POP POP POP JUMPDEST POP POP POP POP POP POP JUMP JUMPDEST PUSH32 0x4E487B7100000000000000000000000000000000000000000000000000000000 PUSH1 0x0 MSTORE PUSH1 0x11 PUSH1 0x4 MSTORE PUSH1 0x24 PUSH1 0x0 REVERT JUMPDEST PUSH1 0x0 PUSH2 0x2C58 DUP3 PUSH2 0x2796 JUMP JUMPDEST SWAP2 POP PUSH1 0xFF DUP3 SUB PUSH2 0x2C6B JUMPI PUSH2 0x2C6A PUSH2 0x2C1E JUMP JUMPDEST JUMPDEST PUSH1 0x1 DUP3 ADD SWAP1 POP SWAP2 SWAP1 POP JUMP JUMPDEST PUSH1 0x0 DUP3 DUP3 MSTORE PUSH1 0x20 DUP3 ADD SWAP1 POP SWAP3 SWAP2 POP POP JUMP JUMPDEST PUSH1 0x0 PUSH2 0x2C92 DUP3 PUSH2 0x239C JUMP JUMPDEST PUSH2 0x2C9C DUP2 DUP6 PUSH2 0x2C76 JUMP JUMPDEST SWAP4 POP PUSH2 0x2CAC DUP2 DUP6 PUSH1 0x20 DUP7 ADD PUSH2 0x23B8 JUMP JUMPDEST PUSH2 0x2CB5 DUP2 PUSH2 0x201C JUMP JUMPDEST DUP5 ADD SWAP2 POP POP SWAP3 SWAP2 POP POP JUMP JUMPDEST PUSH1 0x0 PUSH1 0x40 DUP4 ADD PUSH1 0x0 DUP4 ADD MLOAD DUP5 DUP3 SUB PUSH1 0x0 DUP7 ADD MSTORE PUSH2 0x2CDD DUP3 DUP3 PUSH2 0x2C87 JUMP JUMPDEST SWAP2 POP POP PUSH1 0x20 DUP4 ADD MLOAD DUP5 DUP3 SUB PUSH1 0x20 DUP7 ADD MSTORE PUSH2 0x2CF7 DUP3 DUP3 PUSH2 0x2C87 JUMP JUMPDEST SWAP2 POP POP DUP1 SWAP2 POP POP SWAP3 SWAP2 POP POP JUMP JUMPDEST PUSH1 0x0 PUSH1 0x20 DUP3 ADD SWAP1 POP DUP2 DUP2 SUB PUSH1 0x0 DUP4 ADD MSTORE PUSH2 0x2D1E DUP2 DUP5 PUSH2 0x2CC0 JUMP JUMPDEST SWAP1 POP SWAP3 SWAP2 POP POP JUMP JUMPDEST PUSH32 0x4F6E6C792076616C696461746F722063616E20636F6D6D697421000000000000 PUSH1 0x0 DUP3 ADD MSTORE POP JUMP JUMPDEST PUSH1 0x0 PUSH2 0x2D5C PUSH1 0x1A DUP4 PUSH2 0x23A7 JUMP JUMPDEST SWAP2 POP PUSH2 0x2D67 DUP3 PUSH2 0x2D26 JUMP JUMPDEST PUSH1 0x20 DUP3 ADD SWAP1 POP SWAP2 SWAP1 POP JUMP JUMPDEST PUSH1 0x0 PUSH1 0x20 DUP3 ADD SWAP1 POP DUP2 DUP2 SUB PUSH1 0x0 DUP4 ADD MSTORE PUSH2 0x2D8B DUP2 PUSH2 0x2D4F JUMP JUMPDEST SWAP1 POP SWAP2 SWAP1 POP JUMP JUMPDEST PUSH32 0x5468697320756E69717565206861736820697320616C72656164792075736564 PUSH1 0x0 DUP3 ADD MSTORE PUSH32 0x2100000000000000000000000000000000000000000000000000000000000000 PUSH1 0x20 DUP3 ADD MSTORE POP JUMP JUMPDEST PUSH1 0x0 PUSH2 0x2DEE PUSH1 0x21 DUP4 PUSH2 0x23A7 JUMP JUMPDEST SWAP2 POP PUSH2 0x2DF9 DUP3 PUSH2 0x2D92 JUMP JUMPDEST PUSH1 0x40 DUP3 ADD SWAP1 POP SWAP2 SWAP1 POP JUMP JUMPDEST PUSH1 0x0 PUSH1 0x20 DUP3 ADD SWAP1 POP DUP2 DUP2 SUB PUSH1 0x0 DUP4 ADD MSTORE PUSH2 0x2E1D DUP2 PUSH2 0x2DE1 JUMP JUMPDEST SWAP1 POP SWAP2 SWAP1 POP JUMP JUMPDEST PUSH32 0x5F6C6566742073686F756C6420626520696E7369646520746865206669656C64 PUSH1 0x0 DUP3 ADD MSTORE POP JUMP JUMPDEST PUSH1 0x0 PUSH2 0x2E5A PUSH1 0x20 DUP4 PUSH2 0x23A7 JUMP JUMPDEST SWAP2 POP PUSH2 0x2E65 DUP3 PUSH2 0x2E24 JUMP JUMPDEST PUSH1 0x20 DUP3 ADD SWAP1 POP SWAP2 SWAP1 POP JUMP JUMPDEST PUSH1 0x0 PUSH1 0x20 DUP3 ADD SWAP1 POP DUP2 DUP2 SUB PUSH1 0x0 DUP4 ADD MSTORE PUSH2 0x2E89 DUP2 PUSH2 0x2E4D JUMP JUMPDEST SWAP1 POP SWAP2 SWAP1 POP JUMP JUMPDEST PUSH32 0x5F72696768742073686F756C6420626520696E7369646520746865206669656C PUSH1 0x0 DUP3 ADD MSTORE PUSH32 0x6400000000000000000000000000000000000000000000000000000000000000 PUSH1 0x20 DUP3 ADD MSTORE POP JUMP JUMPDEST PUSH1 0x0 PUSH2 0x2EEC PUSH1 0x21 DUP4 PUSH2 0x23A7 JUMP JUMPDEST SWAP2 POP PUSH2 0x2EF7 DUP3 PUSH2 0x2E90 JUMP JUMPDEST PUSH1 0x40 DUP3 ADD SWAP1 POP SWAP2 SWAP1 POP JUMP JUMPDEST PUSH1 0x0 PUSH1 0x20 DUP3 ADD SWAP1 POP DUP2 DUP2 SUB PUSH1 0x0 DUP4 ADD MSTORE PUSH2 0x2F1B DUP2 PUSH2 0x2EDF JUMP JUMPDEST SWAP1 POP SWAP2 SWAP1 POP JUMP JUMPDEST PUSH1 0x0 DUP2 SWAP1 POP SWAP2 SWAP1 POP JUMP JUMPDEST PUSH1 0x0 PUSH2 0x2F47 PUSH2 0x2F42 PUSH2 0x2F3D DUP5 PUSH2 0x2F22 JUMP JUMPDEST PUSH2 0x22F5 JUMP JUMPDEST PUSH2 0x1FBC JUMP JUMPDEST SWAP1 POP SWAP2 SWAP1 POP JUMP JUMPDEST PUSH2 0x2F57 DUP2 PUSH2 0x2F2C JUMP JUMPDEST DUP3 MSTORE POP POP JUMP JUMPDEST PUSH1 0x0 PUSH1 0x60 DUP3 ADD SWAP1 POP PUSH2 0x2F72 PUSH1 0x0 DUP4 ADD DUP7 PUSH2 0x1FC6 JUMP JUMPDEST PUSH2 0x2F7F PUSH1 0x20 DUP4 ADD DUP6 PUSH2 0x1FC6 JUMP JUMPDEST PUSH2 0x2F8C PUSH1 0x40 DUP4 ADD DUP5 PUSH2 0x2F4E JUMP JUMPDEST SWAP5 SWAP4 POP POP POP POP JUMP JUMPDEST PUSH1 0x0 DUP2 MLOAD SWAP1 POP PUSH2 0x2FA3 DUP2 PUSH2 0x2206 JUMP JUMPDEST SWAP3 SWAP2 POP POP JUMP JUMPDEST PUSH1 0x0 DUP1 PUSH1 0x40 DUP4 DUP6 SUB SLT ISZERO PUSH2 0x2FC0 JUMPI PUSH2 0x2FBF PUSH2 0x2008 JUMP JUMPDEST JUMPDEST PUSH1 0x0 PUSH2 0x2FCE DUP6 DUP3 DUP7 ADD PUSH2 0x2F94 JUMP JUMPDEST SWAP3 POP POP PUSH1 0x20 PUSH2 0x2FDF DUP6 DUP3 DUP7 ADD PUSH2 0x2F94 JUMP JUMPDEST SWAP2 POP POP SWAP3 POP SWAP3 SWAP1 POP JUMP JUMPDEST PUSH32 0x4E487B7100000000000000000000000000000000000000000000000000000000 PUSH1 0x0 MSTORE PUSH1 0x12 PUSH1 0x4 MSTORE PUSH1 0x24 PUSH1 0x0 REVERT JUMPDEST PUSH1 0x0 PUSH2 0x3023 DUP3 PUSH2 0x246D JUMP JUMPDEST SWAP2 POP PUSH1 0x0 DUP3 SUB PUSH2 0x3036 JUMPI PUSH2 0x3035 PUSH2 0x2C1E JUMP JUMPDEST JUMPDEST PUSH1 0x1 DUP3 SUB SWAP1 POP SWAP2 SWAP1 POP JUMP JUMPDEST PUSH32 0x4F6E6C79206F776E65722063616E206164642076616C696461746F7221000000 PUSH1 0x0 DUP3 ADD MSTORE POP JUMP JUMPDEST PUSH1 0x0 PUSH2 0x3077 PUSH1 0x1D DUP4 PUSH2 0x23A7 JUMP JUMPDEST SWAP2 POP PUSH2 0x3082 DUP3 PUSH2 0x3041 JUMP JUMPDEST PUSH1 0x20 DUP3 ADD SWAP1 POP SWAP2 SWAP1 POP JUMP JUMPDEST PUSH1 0x0 PUSH1 0x20 DUP3 ADD SWAP1 POP DUP2 DUP2 SUB PUSH1 0x0 DUP4 ADD MSTORE PUSH2 0x30A6 DUP2 PUSH2 0x306A JUMP JUMPDEST SWAP1 POP SWAP2 SWAP1 POP JUMP JUMPDEST PUSH32 0x496E76616C6964206F7074696F6E210000000000000000000000000000000000 PUSH1 0x0 DUP3 ADD MSTORE POP JUMP JUMPDEST PUSH1 0x0 PUSH2 0x30E3 PUSH1 0xF DUP4 PUSH2 0x23A7 JUMP JUMPDEST SWAP2 POP PUSH2 0x30EE DUP3 PUSH2 0x30AD JUMP JUMPDEST PUSH1 0x20 DUP3 ADD SWAP1 POP SWAP2 SWAP1 POP JUMP JUMPDEST PUSH1 0x0 PUSH1 0x20 DUP3 ADD SWAP1 POP DUP2 DUP2 SUB PUSH1 0x0 DUP4 ADD MSTORE PUSH2 0x3112 DUP2 PUSH2 0x30D6 JUMP JUMPDEST SWAP1 POP SWAP2 SWAP1 POP JUMP JUMPDEST PUSH1 0x0 PUSH2 0x3124 DUP3 PUSH2 0x1FBC JUMP JUMPDEST SWAP2 POP PUSH2 0x312F DUP4 PUSH2 0x1FBC JUMP JUMPDEST SWAP3 POP DUP3 DUP3 ADD SWAP1 POP DUP1 DUP3 GT ISZERO PUSH2 0x3147 JUMPI PUSH2 0x3146 PUSH2 0x2C1E JUMP JUMPDEST JUMPDEST SWAP3 SWAP2 POP POP JUMP JUMPDEST PUSH32 0x416C726561647920736574000000000000000000000000000000000000000000 PUSH1 0x0 DUP3 ADD MSTORE POP JUMP JUMPDEST PUSH1 0x0 PUSH2 0x3183 PUSH1 0xB DUP4 PUSH2 0x23A7 JUMP JUMPDEST SWAP2 POP PUSH2 0x318E DUP3 PUSH2 0x314D JUMP JUMPDEST PUSH1 0x20 DUP3 ADD SWAP1 POP SWAP2 SWAP1 POP JUMP JUMPDEST PUSH1 0x0 PUSH1 0x20 DUP3 ADD SWAP1 POP DUP2 DUP2 SUB PUSH1 0x0 DUP4 ADD MSTORE PUSH2 0x31B2 DUP2 PUSH2 0x3176 JUMP JUMPDEST SWAP1 POP SWAP2 SWAP1 POP JUMP JUMPDEST PUSH32 0x496E646578206F7574206F6620626F756E647300000000000000000000000000 PUSH1 0x0 DUP3 ADD MSTORE POP JUMP JUMPDEST PUSH1 0x0 PUSH2 0x31EF PUSH1 0x13 DUP4 PUSH2 0x23A7 JUMP JUMPDEST SWAP2 POP PUSH2 0x31FA DUP3 PUSH2 0x31B9 JUMP JUMPDEST PUSH1 0x20 DUP3 ADD SWAP1 POP SWAP2 SWAP1 POP JUMP JUMPDEST PUSH1 0x0 PUSH1 0x20 DUP3 ADD SWAP1 POP DUP2 DUP2 SUB PUSH1 0x0 DUP4 ADD MSTORE PUSH2 0x321E DUP2 PUSH2 0x31E2 JUMP JUMPDEST SWAP1 POP SWAP2 SWAP1 POP JUMP JUMPDEST PUSH32 0x54686520636F6D6D69746D656E7420686173206265656E207375626D69747465 PUSH1 0x0 DUP3 ADD MSTORE PUSH32 0x6400000000000000000000000000000000000000000000000000000000000000 PUSH1 0x20 DUP3 ADD MSTORE POP JUMP JUMPDEST PUSH1 0x0 PUSH2 0x3281 PUSH1 0x21 DUP4 PUSH2 0x23A7 JUMP JUMPDEST SWAP2 POP PUSH2 0x328C DUP3 PUSH2 0x3225 JUMP JUMPDEST PUSH1 0x40 DUP3 ADD SWAP1 POP SWAP2 SWAP1 POP JUMP JUMPDEST PUSH1 0x0 PUSH1 0x20 DUP3 ADD SWAP1 POP DUP2 DUP2 SUB PUSH1 0x0 DUP4 ADD MSTORE PUSH2 0x32B0 DUP2 PUSH2 0x3274 JUMP JUMPDEST SWAP1 POP SWAP2 SWAP1 POP JUMP JUMPDEST PUSH1 0x0 PUSH1 0x40 DUP3 ADD SWAP1 POP PUSH2 0x32CC PUSH1 0x0 DUP4 ADD DUP6 PUSH2 0x247D JUMP JUMPDEST PUSH2 0x32D9 PUSH1 0x20 DUP4 ADD DUP5 PUSH2 0x1FC6 JUMP JUMPDEST SWAP4 SWAP3 POP POP POP JUMP JUMPDEST PUSH32 0x546865206E756C6C696669657220686173206265656E207375626D6974746564 PUSH1 0x0 DUP3 ADD MSTORE POP JUMP JUMPDEST PUSH1 0x0 PUSH2 0x3316 PUSH1 0x20 DUP4 PUSH2 0x23A7 JUMP JUMPDEST SWAP2 POP PUSH2 0x3321 DUP3 PUSH2 0x32E0 JUMP JUMPDEST PUSH1 0x20 DUP3 ADD SWAP1 POP SWAP2 SWAP1 POP JUMP JUMPDEST PUSH1 0x0 PUSH1 0x20 DUP3 ADD SWAP1 POP DUP2 DUP2 SUB PUSH1 0x0 DUP4 ADD MSTORE PUSH2 0x3345 DUP2 PUSH2 0x3309 JUMP JUMPDEST SWAP1 POP SWAP2 SWAP1 POP JUMP JUMPDEST PUSH32 0x43616E6E6F742066696E6420796F7572206D65726B6C6520726F6F7400000000 PUSH1 0x0 DUP3 ADD MSTORE POP JUMP JUMPDEST PUSH1 0x0 PUSH2 0x3382 PUSH1 0x1C DUP4 PUSH2 0x23A7 JUMP JUMPDEST SWAP2 POP PUSH2 0x338D DUP3 PUSH2 0x334C JUMP JUMPDEST PUSH1 0x20 DUP3 ADD SWAP1 POP SWAP2 SWAP1 POP JUMP JUMPDEST PUSH1 0x0 PUSH1 0x20 DUP3 ADD SWAP1 POP DUP2 DUP2 SUB PUSH1 0x0 DUP4 ADD MSTORE PUSH2 0x33B1 DUP2 PUSH2 0x3375 JUMP JUMPDEST SWAP1 POP SWAP2 SWAP1 POP JUMP JUMPDEST PUSH1 0x0 PUSH1 0x2 SWAP1 POP SWAP2 SWAP1 POP JUMP JUMPDEST PUSH1 0x0 DUP2 SWAP1 POP SWAP3 SWAP2 POP POP JUMP JUMPDEST PUSH1 0x0 DUP2 SWAP1 POP SWAP2 SWAP1 POP JUMP JUMPDEST PUSH2 0x33E1 DUP2 PUSH2 0x1FBC JUMP JUMPDEST DUP3 MSTORE POP POP JUMP JUMPDEST PUSH1 0x0 PUSH2 0x33F3 DUP4 DUP4 PUSH2 0x33D8 JUMP JUMPDEST PUSH1 0x20 DUP4 ADD SWAP1 POP SWAP3 SWAP2 POP POP JUMP JUMPDEST PUSH1 0x0 PUSH1 0x20 DUP3 ADD SWAP1 POP SWAP2 SWAP1 POP JUMP JUMPDEST PUSH2 0x3415 DUP2 PUSH2 0x33B8 JUMP JUMPDEST PUSH2 0x341F DUP2 DUP5 PUSH2 0x33C3 JUMP JUMPDEST SWAP3 POP PUSH2 0x342A DUP3 PUSH2 0x33CE JUMP JUMPDEST DUP1 PUSH1 0x0 JUMPDEST DUP4 DUP2 LT ISZERO PUSH2 0x345B JUMPI DUP2 MLOAD PUSH2 0x3442 DUP8 DUP3 PUSH2 0x33E7 JUMP JUMPDEST SWAP7 POP PUSH2 0x344D DUP4 PUSH2 0x33FF JUMP JUMPDEST SWAP3 POP POP PUSH1 0x1 DUP2 ADD SWAP1 POP PUSH2 0x342E JUMP JUMPDEST POP POP POP POP POP POP JUMP JUMPDEST PUSH1 0x0 PUSH1 0x2 SWAP1 POP SWAP2 SWAP1 POP JUMP JUMPDEST PUSH1 0x0 DUP2 SWAP1 POP SWAP3 SWAP2 POP POP JUMP JUMPDEST PUSH1 0x0 DUP2 SWAP1 POP SWAP2 SWAP1 POP JUMP JUMPDEST PUSH1 0x0 DUP2 SWAP1 POP SWAP3 SWAP2 POP POP JUMP JUMPDEST PUSH2 0x3497 DUP2 PUSH2 0x33B8 JUMP JUMPDEST PUSH2 0x34A1 DUP2 DUP5 PUSH2 0x3483 JUMP JUMPDEST SWAP3 POP PUSH2 0x34AC DUP3 PUSH2 0x33CE JUMP JUMPDEST DUP1 PUSH1 0x0 JUMPDEST DUP4 DUP2 LT ISZERO PUSH2 0x34DD JUMPI DUP2 MLOAD PUSH2 0x34C4 DUP8 DUP3 PUSH2 0x33E7 JUMP JUMPDEST SWAP7 POP PUSH2 0x34CF DUP4 PUSH2 0x33FF JUMP JUMPDEST SWAP3 POP POP PUSH1 0x1 DUP2 ADD SWAP1 POP PUSH2 0x34B0 JUMP JUMPDEST POP POP POP POP POP POP JUMP JUMPDEST PUSH1 0x0 PUSH2 0x34F1 DUP4 DUP4 PUSH2 0x348E JUMP JUMPDEST PUSH1 0x40 DUP4 ADD SWAP1 POP SWAP3 SWAP2 POP POP JUMP JUMPDEST PUSH1 0x0 PUSH1 0x20 DUP3 ADD SWAP1 POP SWAP2 SWAP1 POP JUMP JUMPDEST PUSH2 0x3513 DUP2 PUSH2 0x3463 JUMP JUMPDEST PUSH2 0x351D DUP2 DUP5 PUSH2 0x346E JUMP JUMPDEST SWAP3 POP PUSH2 0x3528 DUP3 PUSH2 0x3479 JUMP JUMPDEST DUP1 PUSH1 0x0 JUMPDEST DUP4 DUP2 LT ISZERO PUSH2 0x3559 JUMPI DUP2 MLOAD PUSH2 0x3540 DUP8 DUP3 PUSH2 0x34E5 JUMP JUMPDEST SWAP7 POP PUSH2 0x354B DUP4 PUSH2 0x34FD JUMP JUMPDEST SWAP3 POP POP PUSH1 0x1 DUP2 ADD SWAP1 POP PUSH2 0x352C JUMP JUMPDEST POP POP POP POP POP POP JUMP JUMPDEST PUSH1 0x0 PUSH2 0x140 DUP3 ADD SWAP1 POP PUSH2 0x3577 PUSH1 0x0 DUP4 ADD DUP8 PUSH2 0x340C JUMP JUMPDEST PUSH2 0x3584 PUSH1 0x40 DUP4 ADD DUP7 PUSH2 0x350A JUMP JUMPDEST PUSH2 0x3591 PUSH1 0xC0 DUP4 ADD DUP6 PUSH2 0x340C JUMP JUMPDEST PUSH2 0x359F PUSH2 0x100 DUP4 ADD DUP5 PUSH2 0x340C JUMP JUMPDEST SWAP6 SWAP5 POP POP POP POP POP JUMP JUMPDEST PUSH2 0x35B1 DUP2 PUSH2 0x21D0 JUMP JUMPDEST DUP2 EQ PUSH2 0x35BC JUMPI PUSH1 0x0 DUP1 REVERT JUMPDEST POP JUMP JUMPDEST PUSH1 0x0 DUP2 MLOAD SWAP1 POP PUSH2 0x35CE DUP2 PUSH2 0x35A8 JUMP JUMPDEST SWAP3 SWAP2 POP POP JUMP JUMPDEST PUSH1 0x0 PUSH1 0x20 DUP3 DUP5 SUB SLT ISZERO PUSH2 0x35EA JUMPI PUSH2 0x35E9 PUSH2 0x2008 JUMP JUMPDEST JUMPDEST PUSH1 0x0 PUSH2 0x35F8 DUP5 DUP3 DUP6 ADD PUSH2 0x35BF JUMP JUMPDEST SWAP2 POP POP SWAP3 SWAP2 POP POP JUMP JUMPDEST PUSH32 0x496E76616C69642070726F6F6600000000000000000000000000000000000000 PUSH1 0x0 DUP3 ADD MSTORE POP JUMP JUMPDEST PUSH1 0x0 PUSH2 0x3637 PUSH1 0xD DUP4 PUSH2 0x23A7 JUMP JUMPDEST SWAP2 POP PUSH2 0x3642 DUP3 PUSH2 0x3601 JUMP JUMPDEST PUSH1 0x20 DUP3 ADD SWAP1 POP SWAP2 SWAP1 POP JUMP JUMPDEST PUSH1 0x0 PUSH1 0x20 DUP3 ADD SWAP1 POP DUP2 DUP2 SUB PUSH1 0x0 DUP4 ADD MSTORE PUSH2 0x3666 DUP2 PUSH2 0x362A JUMP JUMPDEST SWAP1 POP SWAP2 SWAP1 POP JUMP JUMPDEST PUSH1 0x0 PUSH2 0x3678 DUP3 PUSH2 0x1FBC JUMP JUMPDEST SWAP2 POP PUSH2 0x3683 DUP4 PUSH2 0x1FBC JUMP JUMPDEST SWAP3 POP DUP3 DUP3 MUL PUSH2 0x3691 DUP2 PUSH2 0x1FBC JUMP JUMPDEST SWAP2 POP DUP3 DUP3 DIV DUP5 EQ DUP4 ISZERO OR PUSH2 0x36A8 JUMPI PUSH2 0x36A7 PUSH2 0x2C1E JUMP JUMPDEST JUMPDEST POP SWAP3 SWAP2 POP POP JUMP JUMPDEST PUSH1 0x0 DUP2 PUSH1 0x1 SHR SWAP1 POP SWAP2 SWAP1 POP JUMP JUMPDEST PUSH1 0x0 DUP1 DUP3 SWAP2 POP DUP4 SWAP1 POP JUMPDEST PUSH1 0x1 DUP6 GT ISZERO PUSH2 0x3706 JUMPI DUP1 DUP7 DIV DUP2 GT ISZERO PUSH2 0x36E2 JUMPI PUSH2 0x36E1 PUSH2 0x2C1E JUMP JUMPDEST JUMPDEST PUSH1 0x1 DUP6 AND ISZERO PUSH2 0x36F1 JUMPI DUP1 DUP3 MUL SWAP2 POP JUMPDEST DUP1 DUP2 MUL SWAP1 POP PUSH2 0x36FF DUP6 PUSH2 0x36AF JUMP JUMPDEST SWAP5 POP PUSH2 0x36C6 JUMP JUMPDEST SWAP5 POP SWAP5 SWAP3 POP POP POP JUMP JUMPDEST PUSH1 0x0 DUP3 PUSH2 0x371F JUMPI PUSH1 0x1 SWAP1 POP PUSH2 0x37DB JUMP JUMPDEST DUP2 PUSH2 0x372D JUMPI PUSH1 0x0 SWAP1 POP PUSH2 0x37DB JUMP JUMPDEST DUP2 PUSH1 0x1 DUP2 EQ PUSH2 0x3743 JUMPI PUSH1 0x2 DUP2 EQ PUSH2 0x374D JUMPI PUSH2 0x377C JUMP JUMPDEST PUSH1 0x1 SWAP2 POP POP PUSH2 0x37DB JUMP JUMPDEST PUSH1 0xFF DUP5 GT ISZERO PUSH2 0x375F JUMPI PUSH2 0x375E PUSH2 0x2C1E JUMP JUMPDEST JUMPDEST DUP4 PUSH1 0x2 EXP SWAP2 POP DUP5 DUP3 GT ISZERO PUSH2 0x3776 JUMPI PUSH2 0x3775 PUSH2 0x2C1E JUMP JUMPDEST JUMPDEST POP PUSH2 0x37DB JUMP JUMPDEST POP PUSH1 0x20 DUP4 LT PUSH2 0x133 DUP4 LT AND PUSH1 0x4E DUP5 LT PUSH1 0xB DUP5 LT AND OR ISZERO PUSH2 0x37B1 JUMPI DUP3 DUP3 EXP SWAP1 POP DUP4 DUP2 GT ISZERO PUSH2 0x37AC JUMPI PUSH2 0x37AB PUSH2 0x2C1E JUMP JUMPDEST JUMPDEST PUSH2 0x37DB JUMP JUMPDEST PUSH2 0x37BE DUP5 DUP5 DUP5 PUSH1 0x1 PUSH2 0x36BC JUMP JUMPDEST SWAP3 POP SWAP1 POP DUP2 DUP5 DIV DUP2 GT ISZERO PUSH2 0x37D5 JUMPI PUSH2 0x37D4 PUSH2 0x2C1E JUMP JUMPDEST JUMPDEST DUP2 DUP2 MUL SWAP1 POP JUMPDEST SWAP4 SWAP3 POP POP POP JUMP JUMPDEST PUSH1 0x0 PUSH2 0x37ED DUP3 PUSH2 0x246D JUMP JUMPDEST SWAP2 POP PUSH2 0x37F8 DUP4 PUSH2 0x246D JUMP JUMPDEST SWAP3 POP PUSH2 0x3809 PUSH4 0xFFFFFFFF DUP5 DUP5 PUSH2 0x370F JUMP JUMPDEST SWAP1 POP SWAP3 SWAP2 POP POP JUMP JUMPDEST PUSH32 0x4D65726B6C6520747265652069732066756C6C2E204E6F206D6F7265206C6561 PUSH1 0x0 DUP3 ADD MSTORE PUSH32 0x7665732063616E20626520616464656400000000000000000000000000000000 PUSH1 0x20 DUP3 ADD MSTORE POP JUMP JUMPDEST PUSH1 0x0 PUSH2 0x386D PUSH1 0x30 DUP4 PUSH2 0x23A7 JUMP JUMPDEST SWAP2 POP PUSH2 0x3878 DUP3 PUSH2 0x3811 JUMP JUMPDEST PUSH1 0x40 DUP3 ADD SWAP1 POP SWAP2 SWAP1 POP JUMP JUMPDEST PUSH1 0x0 PUSH1 0x20 DUP3 ADD SWAP1 POP DUP2 DUP2 SUB PUSH1 0x0 DUP4 ADD MSTORE PUSH2 0x389C DUP2 PUSH2 0x3860 JUMP JUMPDEST SWAP1 POP SWAP2 SWAP1 POP JUMP JUMPDEST PUSH1 0x0 PUSH2 0x38AE DUP3 PUSH2 0x246D JUMP JUMPDEST SWAP2 POP PUSH2 0x38B9 DUP4 PUSH2 0x246D JUMP JUMPDEST SWAP3 POP DUP3 PUSH2 0x38C9 JUMPI PUSH2 0x38C8 PUSH2 0x2FE9 JUMP JUMPDEST JUMPDEST DUP3 DUP3 MOD SWAP1 POP SWAP3 SWAP2 POP POP JUMP JUMPDEST PUSH1 0x0 PUSH2 0x38DF DUP3 PUSH2 0x246D JUMP JUMPDEST SWAP2 POP PUSH2 0x38EA DUP4 PUSH2 0x246D JUMP JUMPDEST SWAP3 POP DUP3 PUSH2 0x38FA JUMPI PUSH2 0x38F9 PUSH2 0x2FE9 JUMP JUMPDEST JUMPDEST DUP3 DUP3 DIV SWAP1 POP SWAP3 SWAP2 POP POP JUMP JUMPDEST PUSH1 0x0 PUSH2 0x3910 DUP3 PUSH2 0x246D JUMP JUMPDEST SWAP2 POP PUSH4 0xFFFFFFFF DUP3 SUB PUSH2 0x3926 JUMPI PUSH2 0x3925 PUSH2 0x2C1E JUMP JUMPDEST JUMPDEST PUSH1 0x1 DUP3 ADD SWAP1 POP SWAP2 SWAP1 POP JUMP JUMPDEST PUSH1 0x0 PUSH2 0x393C DUP3 PUSH2 0x246D JUMP JUMPDEST SWAP2 POP PUSH2 0x3947 DUP4 PUSH2 0x246D JUMP JUMPDEST SWAP3 POP DUP3 DUP3 ADD SWAP1 POP PUSH4 0xFFFFFFFF DUP2 GT ISZERO PUSH2 0x3963 JUMPI PUSH2 0x3962 PUSH2 0x2C1E JUMP JUMPDEST JUMPDEST SWAP3 SWAP2 POP POP JUMP JUMPDEST PUSH1 0x0 DUP2 SWAP1 POP SWAP2 SWAP1 POP JUMP JUMPDEST PUSH1 0x0 PUSH2 0x397E DUP3 PUSH2 0x3969 JUMP JUMPDEST SWAP2 POP PUSH2 0x3989 DUP4 PUSH2 0x3969 JUMP JUMPDEST SWAP3 POP DUP3 DUP3 SUB SWAP1 POP DUP2 DUP2 SLT PUSH1 0x0 DUP5 SLT AND DUP3 DUP3 SGT PUSH1 0x0 DUP6 SLT ISZERO AND OR ISZERO PUSH2 0x39B0 JUMPI PUSH2 0x39AF PUSH2 0x2C1E JUMP JUMPDEST JUMPDEST SWAP3 SWAP2 POP POP JUMP JUMPDEST PUSH1 0x0 PUSH2 0x39C1 DUP3 PUSH2 0x3969 JUMP JUMPDEST SWAP2 POP PUSH2 0x39CC DUP4 PUSH2 0x3969 JUMP JUMPDEST SWAP3 POP DUP3 PUSH2 0x39DC JUMPI PUSH2 0x39DB PUSH2 0x2FE9 JUMP JUMPDEST JUMPDEST PUSH1 0x1 PUSH1 0x0 SUB DUP4 EQ PUSH32 0x8000000000000000000000000000000000000000000000000000000000000000 DUP4 EQ AND ISZERO PUSH2 0x3A15 JUMPI PUSH2 0x3A14 PUSH2 0x2C1E JUMP JUMPDEST JUMPDEST DUP3 DUP3 SDIV SWAP1 POP SWAP3 SWAP2 POP POP JUMP JUMPDEST PUSH1 0x0 PUSH2 0x3A2B DUP3 PUSH2 0x3969 JUMP JUMPDEST SWAP2 POP PUSH2 0x3A36 DUP4 PUSH2 0x3969 JUMP JUMPDEST SWAP3 POP DUP3 DUP3 ADD SWAP1 POP DUP3 DUP2 SLT ISZERO PUSH1 0x0 DUP4 SLT AND DUP4 DUP3 SLT PUSH1 0x0 DUP5 SLT ISZERO AND OR ISZERO PUSH2 0x3A5E JUMPI PUSH2 0x3A5D PUSH2 0x2C1E JUMP JUMPDEST JUMPDEST SWAP3 SWAP2 POP POP JUMP JUMPDEST PUSH1 0x0 PUSH2 0x3A6F DUP3 PUSH2 0x3969 JUMP JUMPDEST SWAP2 POP PUSH2 0x3A7A DUP4 PUSH2 0x3969 JUMP JUMPDEST SWAP3 POP DUP3 DUP3 MUL PUSH2 0x3A88 DUP2 PUSH2 0x3969 JUMP JUMPDEST SWAP2 POP PUSH32 0x8000000000000000000000000000000000000000000000000000000000000000 DUP5 EQ PUSH1 0x0 DUP5 SLT AND ISZERO PUSH2 0x3AC0 JUMPI PUSH2 0x3ABF PUSH2 0x2C1E JUMP JUMPDEST JUMPDEST DUP3 DUP3 SDIV DUP5 EQ DUP4 ISZERO OR PUSH2 0x3AD5 JUMPI PUSH2 0x3AD4 PUSH2 0x2C1E JUMP JUMPDEST JUMPDEST POP SWAP3 SWAP2 POP POP JUMP INVALID LOG2 PUSH5 0x6970667358 0x22 SLT KECCAK256 PUSH12 0x147A0B7E9E5642FDD25C56CD JUMPI DIV 0xC9 0x1F 0x1E SWAP1 PUSH7 0xAAEADBFD164496 BASEFEE 0xA5 DUP16 0xBA 0xD2 PUSH5 0x736F6C6343 STOP ADDMOD SGT STOP CALLER "},"methodIdentifiers":{"FIELD_SIZE()":"414a37ba","ROOT_HISTORY_SIZE()":"cd87a3b4","ZERO_VALUE()":"ec732959","candidates(uint256)":"3477ee2e","commitments(bytes32)":"839df945","currentRootIndex()":"90eeb02b","filledSubtrees(uint256)":"f178e47c","getLastRoot()":"ba70f757","getOptionCounter(uint256)":"955e0377","hashLeftRight(uint256,uint256)":"5bb93995","hasher()":"ed33639f","isKnownRoot(bytes32)":"6d9833e3","levels()":"4ecf518b","nextIndex()":"fc7e9c6f","nullifiers(bytes32)":"2997e86b","owner()":"8da5cb5b","registerCandidate(string,string)":"0dbce4dd","registerCommitment(uint256,uint256)":"1407beb8","registerValidator(address)":"9fca5169","roots(uint256)":"c2b40ae4","setBeginning(uint16,uint8,uint8,uint8)":"ddf02388","setDeadline(uint16,uint8,uint8,uint8)":"e4ed54a4","validators(address)":"fa52c7d8","verifier()":"2b7ac3f3","vote(uint256,uint256,uint256,uint256[2],uint256[2][2],uint256[2])":"ce8f6377","votingPeriod()":"02a251a3","zeros(uint256)":"e8295588"}}}}}